{
  "_format": "hh-sol-artifact-1",
  "contractName": "DAOfiV1Factory",
  "sourceName": "contracts/DAOfiV1Factory.sol",
  "abi": [
    {
      "inputs": [
        {
          "internalType": "address",
          "name": "_formula",
          "type": "address"
        }
      ],
      "stateMutability": "nonpayable",
      "type": "constructor"
    },
    {
      "anonymous": false,
      "inputs": [
        {
          "indexed": true,
          "internalType": "address",
          "name": "baseToken",
          "type": "address"
        },
        {
          "indexed": true,
          "internalType": "address",
          "name": "quoteToken",
          "type": "address"
        },
        {
          "indexed": false,
          "internalType": "address",
          "name": "pairOwner",
          "type": "address"
        },
        {
          "indexed": false,
          "internalType": "uint32",
          "name": "slopeNumerator",
          "type": "uint32"
        },
        {
          "indexed": false,
          "internalType": "uint32",
          "name": "n",
          "type": "uint32"
        },
        {
          "indexed": false,
          "internalType": "uint32",
          "name": "fee",
          "type": "uint32"
        },
        {
          "indexed": false,
          "internalType": "address",
          "name": "pair",
          "type": "address"
        },
        {
          "indexed": false,
          "internalType": "uint256",
          "name": "length",
          "type": "uint256"
        }
      ],
      "name": "PairCreated",
      "type": "event"
    },
    {
      "inputs": [
        {
          "internalType": "uint256",
          "name": "",
          "type": "uint256"
        }
      ],
      "name": "allPairs",
      "outputs": [
        {
          "internalType": "address",
          "name": "",
          "type": "address"
        }
      ],
      "stateMutability": "view",
      "type": "function"
    },
    {
      "inputs": [],
      "name": "allPairsLength",
      "outputs": [
        {
          "internalType": "uint256",
          "name": "",
          "type": "uint256"
        }
      ],
      "stateMutability": "view",
      "type": "function"
    },
    {
      "inputs": [
        {
          "internalType": "address",
          "name": "router",
          "type": "address"
        },
        {
          "internalType": "address",
          "name": "baseToken",
          "type": "address"
        },
        {
          "internalType": "address",
          "name": "quoteToken",
          "type": "address"
        },
        {
          "internalType": "address",
          "name": "pairOwner",
          "type": "address"
        },
        {
          "internalType": "uint32",
          "name": "slopeNumerator",
          "type": "uint32"
        },
        {
          "internalType": "uint32",
          "name": "n",
          "type": "uint32"
        },
        {
          "internalType": "uint32",
          "name": "fee",
          "type": "uint32"
        }
      ],
      "name": "createPair",
      "outputs": [
        {
          "internalType": "address",
          "name": "pair",
          "type": "address"
        }
      ],
      "stateMutability": "nonpayable",
      "type": "function"
    },
    {
      "inputs": [],
      "name": "formula",
      "outputs": [
        {
          "internalType": "address",
          "name": "",
          "type": "address"
        }
      ],
      "stateMutability": "view",
      "type": "function"
    },
    {
      "inputs": [
        {
          "internalType": "address",
          "name": "baseToken",
          "type": "address"
        },
        {
          "internalType": "address",
          "name": "quoteToken",
          "type": "address"
        },
        {
          "internalType": "uint32",
          "name": "slopeNumerator",
          "type": "uint32"
        },
        {
          "internalType": "uint32",
          "name": "n",
          "type": "uint32"
        },
        {
          "internalType": "uint32",
          "name": "fee",
          "type": "uint32"
        }
      ],
      "name": "getPair",
      "outputs": [
        {
          "internalType": "address",
          "name": "pair",
          "type": "address"
        }
      ],
      "stateMutability": "view",
      "type": "function"
    },
    {
      "inputs": [
        {
          "internalType": "bytes32",
          "name": "",
          "type": "bytes32"
        }
      ],
      "name": "pairs",
      "outputs": [
        {
          "internalType": "address",
          "name": "",
          "type": "address"
        }
      ],
      "stateMutability": "view",
      "type": "function"
    }
  ],
  "bytecode": "0x60806040523480156200001157600080fd5b506040516200508438038062005084833981810160405281019062000037919062000109565b600073ffffffffffffffffffffffffffffffffffffffff168173ffffffffffffffffffffffffffffffffffffffff161415620000aa576040517f08c379a0000000000000000000000000000000000000000000000000000000008152600401620000a19062000177565b60405180910390fd5b80600260006101000a81548173ffffffffffffffffffffffffffffffffffffffff021916908373ffffffffffffffffffffffffffffffffffffffff16021790555050620001f8565b6000815190506200010381620001de565b92915050565b6000602082840312156200011c57600080fd5b60006200012c84828501620000f2565b91505092915050565b60006200014460188362000199565b91507f44414f666956313a20494e56414c49445f464f524d554c4100000000000000006000830152602082019050919050565b60006020820190508181036000830152620001928162000135565b9050919050565b600082825260208201905092915050565b6000620001b782620001be565b9050919050565b600073ffffffffffffffffffffffffffffffffffffffff82169050919050565b620001e981620001aa565b8114620001f557600080fd5b50565b614e7c80620002086000396000f3fe608060405234801561001057600080fd5b50600436106100625760003560e01c80631e3dd18b146100675780634b75f54f14610097578063574f2ba3146100b5578063673e0481146100d35780636b8b5e3114610103578063835f6ef614610133575b600080fd5b610081600480360381019061007c91906108f7565b610163565b60405161008e9190610b5a565b60405180910390f35b61009f6101a2565b6040516100ac9190610b5a565b60405180910390f35b6100bd6101c8565b6040516100ca9190610d14565b60405180910390f35b6100ed60048036038101906100e891906108ce565b6101d5565b6040516100fa9190610b5a565b60405180910390f35b61011d60048036038101906101189190610857565b610208565b60405161012a9190610b5a565b60405180910390f35b61014d600480360381019061014891906107b9565b610276565b60405161015a9190610b5a565b60405180910390f35b6001818154811061017357600080fd5b906000526020600020016000915054906101000a900473ffffffffffffffffffffffffffffffffffffffff1681565b600260009054906101000a900473ffffffffffffffffffffffffffffffffffffffff1681565b6000600180549050905090565b60006020528060005260406000206000915054906101000a900473ffffffffffffffffffffffffffffffffffffffff1681565b60008060008787878787604051602001610226959493929190610afb565b60405160208183030381529060405280519060200120815260200190815260200160002060009054906101000a900473ffffffffffffffffffffffffffffffffffffffff16905095945050505050565b60008073ffffffffffffffffffffffffffffffffffffffff168873ffffffffffffffffffffffffffffffffffffffff1614156102e7576040517f08c379a00000000000000000000000000000000000000000000000000000000081526004016102de90610cf4565b60405180910390fd5b600073ffffffffffffffffffffffffffffffffffffffff168773ffffffffffffffffffffffffffffffffffffffff161415610357576040517f08c379a000000000000000000000000000000000000000000000000000000000815260040161034e90610c94565b60405180910390fd5b600073ffffffffffffffffffffffffffffffffffffffff168673ffffffffffffffffffffffffffffffffffffffff1614156103c7576040517f08c379a00000000000000000000000000000000000000000000000000000000081526004016103be90610cb4565b60405180910390fd5b600073ffffffffffffffffffffffffffffffffffffffff168573ffffffffffffffffffffffffffffffffffffffff161415610437576040517f08c379a000000000000000000000000000000000000000000000000000000000815260040161042e90610c74565b60405180910390fd5b8573ffffffffffffffffffffffffffffffffffffffff168773ffffffffffffffffffffffffffffffffffffffff1614156104a6576040517f08c379a000000000000000000000000000000000000000000000000000000000815260040161049d90610c54565b60405180910390fd5b600073ffffffffffffffffffffffffffffffffffffffff166104cb8888878787610208565b73ffffffffffffffffffffffffffffffffffffffff1614610521576040517f08c379a000000000000000000000000000000000000000000000000000000000815260040161051890610cd4565b60405180910390fd5b60606040518060200161053390610758565b6020820181038252601f19601f82011660405250905060008888878787604051602001610564959493929190610afb565b604051602081830303815290604052805190602001209050808251602084016000f592508273ffffffffffffffffffffffffffffffffffffffff1663f940f446600260009054906101000a900473ffffffffffffffffffffffffffffffffffffffff168c8c8c8c8c8c8c6040518963ffffffff1660e01b81526004016105f1989796959493929190610b75565b600060405180830381600087803b15801561060b57600080fd5b505af115801561061f573d6000803e3d6000fd5b505050508260008083815260200190815260200160002060006101000a81548173ffffffffffffffffffffffffffffffffffffffff021916908373ffffffffffffffffffffffffffffffffffffffff1602179055506001839080600181540180825580915050600190039060005260206000200160009091909190916101000a81548173ffffffffffffffffffffffffffffffffffffffff021916908373ffffffffffffffffffffffffffffffffffffffff1602179055508773ffffffffffffffffffffffffffffffffffffffff168973ffffffffffffffffffffffffffffffffffffffff167fb3fa7f0692a1e60cd160a3ab4e54c82ddbd058ac672f4654686c6311b672a837898989898960018054905060405161074396959493929190610bf3565b60405180910390a35050979650505050505050565b61400480610e4383390190565b60008135905061077481610de6565b92915050565b60008135905061078981610dfd565b92915050565b60008135905061079e81610e14565b92915050565b6000813590506107b381610e2b565b92915050565b600080600080600080600060e0888a0312156107d457600080fd5b60006107e28a828b01610765565b97505060206107f38a828b01610765565b96505060406108048a828b01610765565b95505060606108158a828b01610765565b94505060806108268a828b016107a4565b93505060a06108378a828b016107a4565b92505060c06108488a828b016107a4565b91505092959891949750929550565b600080600080600060a0868803121561086f57600080fd5b600061087d88828901610765565b955050602061088e88828901610765565b945050604061089f888289016107a4565b93505060606108b0888289016107a4565b92505060806108c1888289016107a4565b9150509295509295909350565b6000602082840312156108e057600080fd5b60006108ee8482850161077a565b91505092915050565b60006020828403121561090957600080fd5b60006109178482850161078f565b91505092915050565b61092981610d40565b82525050565b61094061093b82610d40565b610d96565b82525050565b6000610953601c83610d2f565b91507f44414f666956313a204944454e544943414c5f414444524553534553000000006000830152602082019050919050565b6000610993601683610d2f565b91507f44414f666956313a20494e56414c49445f4f574e4552000000000000000000006000830152602082019050919050565b60006109d3601583610d2f565b91507f44414f666956313a20494e56414c49445f4241534500000000000000000000006000830152602082019050919050565b6000610a13601683610d2f565b91507f44414f666956313a20494e56414c49445f51554f5445000000000000000000006000830152602082019050919050565b6000610a53601483610d2f565b91507f44414f666956313a20504149525f4558495354530000000000000000000000006000830152602082019050919050565b6000610a93601783610d2f565b91507f44414f666956313a20494e56414c49445f524f555445520000000000000000006000830152602082019050919050565b610acf81610d7c565b82525050565b610ade81610d86565b82525050565b610af5610af082610d86565b610dba565b82525050565b6000610b07828861092f565b601482019150610b17828761092f565b601482019150610b278286610ae4565b600482019150610b378285610ae4565b600482019150610b478284610ae4565b6004820191508190509695505050505050565b6000602082019050610b6f6000830184610920565b92915050565b600061010082019050610b8b600083018b610920565b610b98602083018a610920565b610ba56040830189610920565b610bb26060830188610920565b610bbf6080830187610920565b610bcc60a0830186610ad5565b610bd960c0830185610ad5565b610be660e0830184610ad5565b9998505050505050505050565b600060c082019050610c086000830189610920565b610c156020830188610ad5565b610c226040830187610ad5565b610c2f6060830186610ad5565b610c3c6080830185610920565b610c4960a0830184610ac6565b979650505050505050565b60006020820190508181036000830152610c6d81610946565b9050919050565b60006020820190508181036000830152610c8d81610986565b9050919050565b60006020820190508181036000830152610cad816109c6565b9050919050565b60006020820190508181036000830152610ccd81610a06565b9050919050565b60006020820190508181036000830152610ced81610a46565b9050919050565b60006020820190508181036000830152610d0d81610a86565b9050919050565b6000602082019050610d296000830184610ac6565b92915050565b600082825260208201905092915050565b6000610d4b82610d5c565b9050919050565b6000819050919050565b600073ffffffffffffffffffffffffffffffffffffffff82169050919050565b6000819050919050565b600063ffffffff82169050919050565b6000610da182610da8565b9050919050565b6000610db382610dd9565b9050919050565b6000610dc582610dcc565b9050919050565b60008160e01b9050919050565b60008160601b9050919050565b610def81610d40565b8114610dfa57600080fd5b50565b610e0681610d52565b8114610e1157600080fd5b50565b610e1d81610d7c565b8114610e2857600080fd5b50565b610e3481610d86565b8114610e3f57600080fd5b5056fe60806040526000600d60006101000a81548160ff0219169083151502179055506001600e5534801561003057600080fd5b50336000806101000a81548173ffffffffffffffffffffffffffffffffffffffff021916908373ffffffffffffffffffffffffffffffffffffffff1602179055506207a120600160146101000a81548163ffffffff021916908363ffffffff160217905550620f4240600160186101000a81548163ffffffff021916908363ffffffff160217905550600180601c6101000a81548163ffffffff021916908363ffffffff1602179055506000600260006101000a81548163ffffffff021916908363ffffffff1602179055506000600581905550613ef1806101136000396000f3fe608060405234801561001057600080fd5b50600436106101585760003560e01c80637efc77fa116100c3578063d0b7830b1161007c578063d0b7830b1461039f578063d5bcb9b5146103be578063ddca3f43146103da578063e6d7059a146103f8578063f340fa0114610428578063f940f4461461045857610158565b80637efc77fa146102ea5780639dade07d14610308578063a035b1fe14610327578063bc063e1a14610345578063c45a015514610363578063c55dae631461038157610158565b80632e52d606116101155780632e52d606146102105780632ec2fe3d1461022e57806334fbc9a11461024c57806351cff8d91461026a578063552372001461029b5780637b31ae64146102ba57610158565b8063047fc9aa1461015d5780630902f1ac1461017b5780630c7d5cd81461019a578063217a4b70146101b857806321800fc3146101d65780632dd2a921146101f4575b600080fd5b610165610474565b6040516101729190613c4e565b60405180910390f35b61018361047a565b604051610191929190613c69565b60405180910390f35b6101a261048b565b6040516101af9190613d53565b60405180910390f35b6101c06104a1565b6040516101cd9190613825565b60405180910390f35b6101de6104c7565b6040516101eb9190613d53565b60405180910390f35b61020e60048036038101906102099190612d6e565b6104dd565b005b610218610621565b6040516102259190613d53565b60405180910390f35b610236610637565b6040516102439190613825565b60405180910390f35b61025461065d565b6040516102619190613d6e565b60405180910390f35b610284600480360381019061027f9190612d6e565b610662565b604051610292929190613c69565b60405180910390f35b6102a36109fb565b6040516102b1929190613c69565b60405180910390f35b6102d460048036038101906102cf9190612ee9565b610a0c565b6040516102e19190613c4e565b60405180910390f35b6102f2610b2b565b6040516102ff9190613825565b60405180910390f35b610310610b43565b60405161031e929190613c69565b60405180910390f35b61032f610b54565b60405161033c9190613c4e565b60405180910390f35b61034d610cd9565b60405161035a9190613d6e565b60405180910390f35b61036b610cde565b6040516103789190613825565b60405180910390f35b610389610d02565b6040516103969190613825565b60405180910390f35b6103a7610d28565b6040516103b5929190613c69565b60405180910390f35b6103d860048036038101906103d39190612e49565b610eea565b005b6103e2611a28565b6040516103ef9190613d53565b60405180910390f35b610412600480360381019061040d9190612ee9565b611a3e565b60405161041f9190613c4e565b60405180910390f35b610442600480360381019061043d9190612d6e565b612009565b60405161044f9190613c4e565b60405180910390f35b610472600480360381019061046d9190612d97565b6123ec565b005b60055481565b600080600754915060085490509091565b600160149054906101000a900463ffffffff1681565b600360009054906101000a900473ffffffffffffffffffffffffffffffffffffffff1681565b600160189054906101000a900463ffffffff1681565b600460009054906101000a900473ffffffffffffffffffffffffffffffffffffffff1673ffffffffffffffffffffffffffffffffffffffff163373ffffffffffffffffffffffffffffffffffffffff161461056d576040517f08c379a000000000000000000000000000000000000000000000000000000000815260040161056490613b8e565b60405180910390fd5b600073ffffffffffffffffffffffffffffffffffffffff168173ffffffffffffffffffffffffffffffffffffffff1614156105dd576040517f08c379a00000000000000000000000000000000000000000000000000000000081526004016105d4906138ce565b60405180910390fd5b80600460006101000a81548173ffffffffffffffffffffffffffffffffffffffff021916908373ffffffffffffffffffffffffffffffffffffffff16021790555050565b6001601c9054906101000a900463ffffffff1681565b600460009054906101000a900473ffffffffffffffffffffffffffffffffffffffff1681565b600181565b6000806001600e54146106aa576040517f08c379a00000000000000000000000000000000000000000000000000000000081526004016106a190613c2e565b60405180910390fd5b6000600e81905550600660009054906101000a900473ffffffffffffffffffffffffffffffffffffffff1673ffffffffffffffffffffffffffffffffffffffff163373ffffffffffffffffffffffffffffffffffffffff1614610742576040517f08c379a000000000000000000000000000000000000000000000000000000000815260040161073990613a8e565b60405180910390fd5b600d60009054906101000a900460ff16610791576040517f08c379a0000000000000000000000000000000000000000000000000000000008152600401610788906139ee565b60405180910390fd5b610850600b54600260049054906101000a900473ffffffffffffffffffffffffffffffffffffffff1673ffffffffffffffffffffffffffffffffffffffff166370a08231306040518263ffffffff1660e01b81526004016107f29190613825565b60206040518083038186803b15801561080a57600080fd5b505afa15801561081e573d6000803e3d6000fd5b505050506040513d601f19601f820116820180604052508101906108429190612f12565b61283c90919063ffffffff16565b9150610911600c54600360009054906101000a900473ffffffffffffffffffffffffffffffffffffffff1673ffffffffffffffffffffffffffffffffffffffff166370a08231306040518263ffffffff1660e01b81526004016108b39190613825565b60206040518083038186803b1580156108cb57600080fd5b505afa1580156108df573d6000803e3d6000fd5b505050506040513d601f19601f820116820180604052508101906109039190612f12565b61283c90919063ffffffff16565b9050610940600260049054906101000a900473ffffffffffffffffffffffffffffffffffffffff16848461288c565b61096d600360009054906101000a900473ffffffffffffffffffffffffffffffffffffffff16848361288c565b600060098190556007819055506000600a8190556008819055508273ffffffffffffffffffffffffffffffffffffffff163373ffffffffffffffffffffffffffffffffffffffff167f8166bf25f8a2b7ed3c85049207da4358d16edbed977d23fa2ee6f0dde3ec213284846040516109e6929190613c69565b60405180910390a36001600e81905550915091565b600080600b549150600c5490509091565b6000600d60009054906101000a900460ff16610a5d576040517f08c379a0000000000000000000000000000000000000000000000000000000008152600401610a54906138ee565b60405180910390fd5b600160009054906101000a900473ffffffffffffffffffffffffffffffffffffffff1673ffffffffffffffffffffffffffffffffffffffff166376cf0b56600554600854600160149054906101000a900463ffffffff16866040518563ffffffff1660e01b8152600401610ad49493929190613cc9565b60206040518083038186803b158015610aec57600080fd5b505afa158015610b00573d6000803e3d6000fd5b505050506040513d601f19601f82011682018060405250810190610b249190612f12565b9050919050565b73ad10d4f9937d743cbeb1383b1d3a3ad15ace75d681565b6000806009549150600a5490509091565b6000600d60009054906101000a900460ff16610ba5576040517f08c379a0000000000000000000000000000000000000000000000000000000008152600401610b9c906139ce565b60405180910390fd5b610cd4600260049054906101000a900473ffffffffffffffffffffffffffffffffffffffff16610c2d620f424063ffffffff16610c1f6001601c9054906101000a900463ffffffff1663ffffffff166005540a600160189054906101000a900463ffffffff1663ffffffff16612a1790919063ffffffff16565b612a8790919063ffffffff16565b600360009054906101000a900473ffffffffffffffffffffffffffffffffffffffff1673ffffffffffffffffffffffffffffffffffffffff1663313ce5676040518163ffffffff1660e01b815260040160206040518083038186803b158015610c9557600080fd5b505afa158015610ca9573d6000803e3d6000fd5b505050506040513d601f19601f82011682018060405250810190610ccd9190612fa0565b6000612ae3565b905090565b600a81565b60008054906101000a900473ffffffffffffffffffffffffffffffffffffffff1681565b600260049054906101000a900473ffffffffffffffffffffffffffffffffffffffff1681565b6000806001600e5414610d70576040517f08c379a0000000000000000000000000000000000000000000000000000000008152600401610d6790613c2e565b60405180910390fd5b6000600e81905550600d60009054906101000a900460ff16610dc7576040517f08c379a0000000000000000000000000000000000000000000000000000000008152600401610dbe906139ee565b60405180910390fd5b600b549150600c549050610e12600260049054906101000a900473ffffffffffffffffffffffffffffffffffffffff1673ad10d4f9937d743cbeb1383b1d3a3ad15ace75d68461288c565b610e53600360009054906101000a900473ffffffffffffffffffffffffffffffffffffffff1673ad10d4f9937d743cbeb1383b1d3a3ad15ace75d68361288c565b6000600b819055506000600c8190555073ad10d4f9937d743cbeb1383b1d3a3ad15ace75d673ffffffffffffffffffffffffffffffffffffffff163373ffffffffffffffffffffffffffffffffffffffff167ffefe98d2f91f55619f0b737e514b21b1425ad73d0ed4684bf1b51547575fe8848484604051610ed6929190613c69565b60405180910390a36001600e819055509091565b6001600e5414610f2f576040517f08c379a0000000000000000000000000000000000000000000000000000000008152600401610f2690613c2e565b60405180910390fd5b6000600e81905550600660009054906101000a900473ffffffffffffffffffffffffffffffffffffffff1673ffffffffffffffffffffffffffffffffffffffff163373ffffffffffffffffffffffffffffffffffffffff1614610fc7576040517f08c379a0000000000000000000000000000000000000000000000000000000008152600401610fbe9061390e565b60405180910390fd5b600d60009054906101000a900460ff16611016576040517f08c379a000000000000000000000000000000000000000000000000000000000815260040161100d90613b4e565b60405180910390fd5b600260049054906101000a900473ffffffffffffffffffffffffffffffffffffffff1673ffffffffffffffffffffffffffffffffffffffff168573ffffffffffffffffffffffffffffffffffffffff161480156110c05750600360009054906101000a900473ffffffffffffffffffffffffffffffffffffffff1673ffffffffffffffffffffffffffffffffffffffff168473ffffffffffffffffffffffffffffffffffffffff16145b806111715750600260049054906101000a900473ffffffffffffffffffffffffffffffffffffffff1673ffffffffffffffffffffffffffffffffffffffff168473ffffffffffffffffffffffffffffffffffffffff161480156111705750600360009054906101000a900473ffffffffffffffffffffffffffffffffffffffff1673ffffffffffffffffffffffffffffffffffffffff168573ffffffffffffffffffffffffffffffffffffffff16145b5b6111b0576040517f08c379a00000000000000000000000000000000000000000000000000000000081526004016111a790613b0e565b60405180910390fd5b600260049054906101000a900473ffffffffffffffffffffffffffffffffffffffff1673ffffffffffffffffffffffffffffffffffffffff168173ffffffffffffffffffffffffffffffffffffffff161415801561125c5750600360009054906101000a900473ffffffffffffffffffffffffffffffffffffffff1673ffffffffffffffffffffffffffffffffffffffff168173ffffffffffffffffffffffffffffffffffffffff1614155b61129b576040517f08c379a000000000000000000000000000000000000000000000000000000000815260040161129290613a0e565b60405180910390fd5b6000821180156112ab5750600083115b6112ea576040517f08c379a00000000000000000000000000000000000000000000000000000000081526004016112e190613bee565b60405180910390fd5b6112f584828461288c565b600080600260049054906101000a900473ffffffffffffffffffffffffffffffffffffffff1673ffffffffffffffffffffffffffffffffffffffff168773ffffffffffffffffffffffffffffffffffffffff16141561142d576007549050611426600b54611418600954600260049054906101000a900473ffffffffffffffffffffffffffffffffffffffff1673ffffffffffffffffffffffffffffffffffffffff166370a08231306040518263ffffffff1660e01b81526004016113ba9190613825565b60206040518083038186803b1580156113d257600080fd5b505afa1580156113e6573d6000803e3d6000fd5b505050506040513d601f19601f8201168201806040525081019061140a9190612f12565b61283c90919063ffffffff16565b61283c90919063ffffffff16565b915061155f565b600360009054906101000a900473ffffffffffffffffffffffffffffffffffffffff1673ffffffffffffffffffffffffffffffffffffffff168773ffffffffffffffffffffffffffffffffffffffff16141561155e57600854905061155b600c5461154d600a54600360009054906101000a900473ffffffffffffffffffffffffffffffffffffffff1673ffffffffffffffffffffffffffffffffffffffff166370a08231306040518263ffffffff1660e01b81526004016114ef9190613825565b60206040518083038186803b15801561150757600080fd5b505afa15801561151b573d6000803e3d6000fd5b505050506040513d601f19601f8201168201806040525081019061153f9190612f12565b61283c90919063ffffffff16565b61283c90919063ffffffff16565b91505b5b600081831161156f576000611573565b8183035b9050808611156115b8576040517f08c379a00000000000000000000000000000000000000000000000000000000081526004016115af90613ace565b60405180910390fd5b60006103e86115ec600260009054906101000a900463ffffffff166103e80363ffffffff1689612a1790919063ffffffff16565b816115f357fe5b04905060006103e861161a600160ff166103e80361ffff168a612a1790919063ffffffff16565b8161162157fe5b04905060006103e861165e600160ff16600260009054906101000a900463ffffffff16016103e80363ffffffff168b612a1790919063ffffffff16565b8161166557fe5b049050600260049054906101000a900473ffffffffffffffffffffffffffffffffffffffff1673ffffffffffffffffffffffffffffffffffffffff168a73ffffffffffffffffffffffffffffffffffffffff1614156117fe57876116c882611a3e565b1015611709576040517f08c379a000000000000000000000000000000000000000000000000000000000815260040161170090613b6e565b60405180910390fd5b60075488111561174e576040517f08c379a00000000000000000000000000000000000000000000000000000000081526004016117459061392e565b60405180910390fd5b61176388600554612c8690919063ffffffff16565b60058190555061177e81600854612c8690919063ffffffff16565b6008819055506117998860075461283c90919063ffffffff16565b6007819055506117c6836117b88b600a54612c8690919063ffffffff16565b61283c90919063ffffffff16565b600a819055506117f3826117e58b600c54612c8690919063ffffffff16565b61283c90919063ffffffff16565b600c81905550611991565b600360009054906101000a900473ffffffffffffffffffffffffffffffffffffffff1673ffffffffffffffffffffffffffffffffffffffff168a73ffffffffffffffffffffffffffffffffffffffff161415611990578761185e82610a0c565b101561189f576040517f08c379a00000000000000000000000000000000000000000000000000000000081526004016118969061398e565b60405180910390fd5b6008548811156118e4576040517f08c379a00000000000000000000000000000000000000000000000000000000081526004016118db906139ae565b60405180910390fd5b6118f98160055461283c90919063ffffffff16565b6005819055506119148860085461283c90919063ffffffff16565b60088190555061192f81600754612c8690919063ffffffff16565b60078190555061195c8361194e8b600954612c8690919063ffffffff16565b61283c90919063ffffffff16565b6009819055506119898261197b8b600b54612c8690919063ffffffff16565b61283c90919063ffffffff16565b600b819055505b5b8673ffffffffffffffffffffffffffffffffffffffff163373ffffffffffffffffffffffffffffffffffffffff163073ffffffffffffffffffffffffffffffffffffffff167faed33853adff9bbae920f24cf42e39d86728a74691e17fea513aa1cbc109c17a8e8e8e8e604051611a0b9493929190613840565b60405180910390a45050505050506001600e819055505050505050565b600260009054906101000a900463ffffffff1681565b6000600d60009054906101000a900460ff16611a8f576040517f08c379a0000000000000000000000000000000000000000000000000000000008152600401611a8690613bae565b60405180910390fd5b60006005541415611f3a576000821115611f35576000611bcc611aeb600160149054906101000a900463ffffffff1663ffffffff16600160189054906101000a900463ffffffff1663ffffffff16612a1790919063ffffffff16565b611bbe600160009054906101000a900473ffffffffffffffffffffffffffffffffffffffff1673ffffffffffffffffffffffffffffffffffffffff1663e4a28a526040518163ffffffff1660e01b815260040160206040518083038186803b158015611b5657600080fd5b505afa158015611b6a573d6000803e3d6000fd5b505050506040513d601f19601f82011682018060405250810190611b8e9190612f77565b63ffffffff16611bb0620f424063ffffffff1688612a1790919063ffffffff16565b612a1790919063ffffffff16565b612a8790919063ffffffff16565b90506000811115611f3357600080600160009054906101000a900473ffffffffffffffffffffffffffffffffffffffff1673ffffffffffffffffffffffffffffffffffffffff166332833d51611ceb600160009054906101000a900473ffffffffffffffffffffffffffffffffffffffff1673ffffffffffffffffffffffffffffffffffffffff1663e4a28a526040518163ffffffff1660e01b815260040160206040518083038186803b158015611c8357600080fd5b505afa158015611c97573d6000803e3d6000fd5b505050506040513d601f19601f82011682018060405250810190611cbb9190612f77565b63ffffffff16611cdd620f424063ffffffff168a612a1790919063ffffffff16565b612a1790919063ffffffff16565b611d2e600160149054906101000a900463ffffffff1663ffffffff16600160189054906101000a900463ffffffff1663ffffffff16612a1790919063ffffffff16565b600160149054906101000a900463ffffffff16600160009054906101000a900473ffffffffffffffffffffffffffffffffffffffff1673ffffffffffffffffffffffffffffffffffffffff1663e4a28a526040518163ffffffff1660e01b815260040160206040518083038186803b158015611da957600080fd5b505afa158015611dbd573d6000803e3d6000fd5b505050506040513d601f19601f82011682018060405250810190611de19190612f77565b6040518563ffffffff1660e01b8152600401611e009493929190613d0e565b604080518083038186803b158015611e1757600080fd5b505afa158015611e2b573d6000803e3d6000fd5b505050506040513d601f19601f82011682018060405250810190611e4f9190612f3b565b91509150611f2e600260049054906101000a900473ffffffffffffffffffffffffffffffffffffffff168260ff1684901c6001600360009054906101000a900473ffffffffffffffffffffffffffffffffffffffff1673ffffffffffffffffffffffffffffffffffffffff1663313ce5676040518163ffffffff1660e01b815260040160206040518083038186803b158015611eea57600080fd5b505afa158015611efe573d6000803e3d6000fd5b505050506040513d601f19601f82011682018060405250810190611f229190612fa0565b60ff16901c6000612ae3565b935050505b505b612004565b600160009054906101000a900473ffffffffffffffffffffffffffffffffffffffff1673ffffffffffffffffffffffffffffffffffffffff1663f3250fe2600554600854600160149054906101000a900463ffffffff16866040518563ffffffff1660e01b8152600401611fb19493929190613cc9565b60206040518083038186803b158015611fc957600080fd5b505afa158015611fdd573d6000803e3d6000fd5b505050506040513d601f19601f820116820180604052508101906120019190612f12565b90505b919050565b60006001600e5414612050576040517f08c379a000000000000000000000000000000000000000000000000000000000815260040161204790613c2e565b60405180910390fd5b6000600e81905550600660009054906101000a900473ffffffffffffffffffffffffffffffffffffffff1673ffffffffffffffffffffffffffffffffffffffff163373ffffffffffffffffffffffffffffffffffffffff16146120e8576040517f08c379a00000000000000000000000000000000000000000000000000000000081526004016120df90613a2e565b60405180910390fd5b60001515600d60009054906101000a900460ff1615151461213e576040517f08c379a000000000000000000000000000000000000000000000000000000000815260040161213590613aee565b60405180910390fd5b600260049054906101000a900473ffffffffffffffffffffffffffffffffffffffff1673ffffffffffffffffffffffffffffffffffffffff166370a08231306040518263ffffffff1660e01b81526004016121999190613825565b60206040518083038186803b1580156121b157600080fd5b505afa1580156121c5573d6000803e3d6000fd5b505050506040513d601f19601f820116820180604052508101906121e99190612f12565b600781905550600060075411612234576040517f08c379a000000000000000000000000000000000000000000000000000000000815260040161222b90613c0e565b60405180910390fd5b600360009054906101000a900473ffffffffffffffffffffffffffffffffffffffff1673ffffffffffffffffffffffffffffffffffffffff166370a08231306040518263ffffffff1660e01b815260040161228f9190613825565b60206040518083038186803b1580156122a757600080fd5b505afa1580156122bb573d6000803e3d6000fd5b505050506040513d601f19601f820116820180604052508101906122df9190612f12565b6008819055506001600d60006101000a81548160ff0219169083151502179055506000600854111561237257612316600854611a3e565b905080600581905550600081111561237157612355600260049054906101000a900473ffffffffffffffffffffffffffffffffffffffff16838361288c565b61236a8160075461283c90919063ffffffff16565b6007819055505b5b8173ffffffffffffffffffffffffffffffffffffffff163373ffffffffffffffffffffffffffffffffffffffff167fede963da60ce3b657af455d654d08ff95549f13a4acb219b68756f68755e28e3600754600854856040516123d793929190613c92565b60405180910390a36001600e81905550919050565b60008054906101000a900473ffffffffffffffffffffffffffffffffffffffff1673ffffffffffffffffffffffffffffffffffffffff163373ffffffffffffffffffffffffffffffffffffffff161461247a576040517f08c379a000000000000000000000000000000000000000000000000000000000815260040161247190613b2e565b60405180910390fd5b60008363ffffffff161180156124a257506064620f42400263ffffffff168363ffffffff1611155b6124e1576040517f08c379a00000000000000000000000000000000000000000000000000000000081526004016124d89061394e565b60405180910390fd5b60008263ffffffff161180156125045750600163ffffffff168263ffffffff1611155b612543576040517f08c379a000000000000000000000000000000000000000000000000000000000815260040161253a90613a6e565b60405180910390fd5b600a60ff168163ffffffff161115612590576040517f08c379a000000000000000000000000000000000000000000000000000000000815260040161258790613a4e565b60405180910390fd5b87600160006101000a81548173ffffffffffffffffffffffffffffffffffffffff021916908373ffffffffffffffffffffffffffffffffffffffff16021790555086600660006101000a81548173ffffffffffffffffffffffffffffffffffffffff021916908373ffffffffffffffffffffffffffffffffffffffff16021790555085600260046101000a81548173ffffffffffffffffffffffffffffffffffffffff021916908373ffffffffffffffffffffffffffffffffffffffff16021790555084600360006101000a81548173ffffffffffffffffffffffffffffffffffffffff021916908373ffffffffffffffffffffffffffffffffffffffff16021790555083600460006101000a81548173ffffffffffffffffffffffffffffffffffffffff021916908373ffffffffffffffffffffffffffffffffffffffff16021790555082600160186101000a81548163ffffffff021916908363ffffffff160217905550816001601c6101000a81548163ffffffff021916908363ffffffff16021790555080600260006101000a81548163ffffffff021916908363ffffffff1602179055506000600581905550612812600180601c9054906101000a900463ffffffff160163ffffffff16600160009054906101000a900473ffffffffffffffffffffffffffffffffffffffff1673ffffffffffffffffffffffffffffffffffffffff1663e4a28a526040518163ffffffff1660e01b815260040160206040518083038186803b1580156127c657600080fd5b505afa1580156127da573d6000803e3d6000fd5b505050506040513d601f19601f820116820180604052508101906127fe9190612f77565b63ffffffff16612a8790919063ffffffff16565b600160146101000a81548163ffffffff021916908363ffffffff1602179055505050505050505050565b600081831015612881576040517f08c379a000000000000000000000000000000000000000000000000000000000815260040161287890613bce565b60405180910390fd5b818303905092915050565b600060608473ffffffffffffffffffffffffffffffffffffffff166040518060400160405280601981526020017f7472616e7366657228616464726573732c75696e7432353629000000000000008152508051906020012085856040516024016128f7929190613885565b604051602081830303815290604052907bffffffffffffffffffffffffffffffffffffffffffffffffffffffff19166020820180517bffffffffffffffffffffffffffffffffffffffffffffffffffffffff8381831617835250505050604051612961919061380e565b6000604051808303816000865af19150503d806000811461299e576040519150601f19603f3d011682016040523d82523d6000602084013e6129a3565b606091505b50915091508180156129d157506000815114806129d05750808060200190518101906129cf9190612ec0565b5b5b612a10576040517f08c379a0000000000000000000000000000000000000000000000000000000008152600401612a07906138ae565b60405180910390fd5b5050505050565b600080831415612a2a5760009050612a81565b6000828402905082848281612a3b57fe5b0414612a7c576040517f08c379a0000000000000000000000000000000000000000000000000000000008152600401612a739061396e565b60405180910390fd5b809150505b92915050565b6000808211612acb576040517f08c379a0000000000000000000000000000000000000000000000000000000008152600401612ac290613aae565b60405180910390fd5b6000828481612ad657fe5b0490508091505092915050565b6000808573ffffffffffffffffffffffffffffffffffffffff1663313ce5676040518163ffffffff1660e01b815260040160206040518083038186803b158015612b2c57600080fd5b505afa158015612b40573d6000803e3d6000fd5b505050506040513d601f19601f82011682018060405250810190612b649190612fa0565b90506000808560ff168360ff161415612b7f57869350612c7b565b600093508560ff168360ff161115612bff57612baa8660ff168460ff1661283c90919063ffffffff16565b915081600a0a9050848015612bbf5750808710155b15612bde57612bd78188612a8790919063ffffffff16565b9350612bfa565b84612bf957612bf68188612a1790919063ffffffff16565b93505b5b612c7a565b8560ff168360ff161015612c7957612c268360ff168760ff1661283c90919063ffffffff16565b915081600a0a90508415612c4e57612c478188612a1790919063ffffffff16565b9350612c78565b84158015612c5c5750808710155b15612c7757612c748188612a8790919063ffffffff16565b93505b5b5b5b5b505050949350505050565b600080828401905083811015612cd1576040517f08c379a0000000000000000000000000000000000000000000000000000000008152600401612cc89061396e565b60405180910390fd5b8091505092915050565b600081359050612cea81613e48565b92915050565b600081519050612cff81613e5f565b92915050565b600081359050612d1481613e76565b92915050565b600081519050612d2981613e76565b92915050565b600081359050612d3e81613e8d565b92915050565b600081519050612d5381613e8d565b92915050565b600081519050612d6881613ea4565b92915050565b600060208284031215612d8057600080fd5b6000612d8e84828501612cdb565b91505092915050565b600080600080600080600080610100898b031215612db457600080fd5b6000612dc28b828c01612cdb565b9850506020612dd38b828c01612cdb565b9750506040612de48b828c01612cdb565b9650506060612df58b828c01612cdb565b9550506080612e068b828c01612cdb565b94505060a0612e178b828c01612d2f565b93505060c0612e288b828c01612d2f565b92505060e0612e398b828c01612d2f565b9150509295985092959890939650565b600080600080600060a08688031215612e6157600080fd5b6000612e6f88828901612cdb565b9550506020612e8088828901612cdb565b9450506040612e9188828901612d05565b9350506060612ea288828901612d05565b9250506080612eb388828901612cdb565b9150509295509295909350565b600060208284031215612ed257600080fd5b6000612ee084828501612cf0565b91505092915050565b600060208284031215612efb57600080fd5b6000612f0984828501612d05565b91505092915050565b600060208284031215612f2457600080fd5b6000612f3284828501612d1a565b91505092915050565b60008060408385031215612f4e57600080fd5b6000612f5c85828601612d1a565b9250506020612f6d85828601612d59565b9150509250929050565b600060208284031215612f8957600080fd5b6000612f9784828501612d44565b91505092915050565b600060208284031215612fb257600080fd5b6000612fc084828501612d59565b91505092915050565b612fd281613db0565b82525050565b6000612fe382613d89565b612fed8185613d94565b9350612ffd818560208601613e15565b80840191505092915050565b6000613016601883613d9f565b91507f44414f666956313a205452414e534645525f4641494c454400000000000000006000830152602082019050919050565b6000613056601683613d9f565b91507f44414f666956313a20494e56414c49445f4f574e4552000000000000000000006000830152602082019050919050565b6000613096602083613d9f565b91507f44414f666956313a20554e494e495449414c495a45445f51554f54455f4f55546000830152602082019050919050565b60006130d6601783613d9f565b91507f44414f666956313a20464f5242494444454e5f535741500000000000000000006000830152602082019050919050565b6000613116602283613d9f565b91507f44414f666956313a20494e53554646494349454e545f424153455f524553455260008301527f56450000000000000000000000000000000000000000000000000000000000006020830152604082019050919050565b600061317c602083613d9f565b91507f44414f666956313a20494e56414c49445f534c4f50455f4e554d455241544f526000830152602082019050919050565b60006131bc600c83613d9f565b91507f4552525f4f564552464c4f5700000000000000000000000000000000000000006000830152602082019050919050565b60006131fc601d83613d9f565b91507f44414f666956313a20494e56414c49445f51554f54455f4f55545055540000006000830152602082019050919050565b600061323c602383613d9f565b91507f44414f666956313a20494e53554646494349454e545f51554f54455f5245534560008301527f52564500000000000000000000000000000000000000000000000000000000006020830152604082019050919050565b60006132a2602183613d9f565b91507f44414f666956313a20554e494e495449414c495a45445f424153455f5052494360008301527f45000000000000000000000000000000000000000000000000000000000000006020830152604082019050919050565b6000613308601683613d9f565b91507f44414f666956313a20554e494e495449414c495a4544000000000000000000006000830152602082019050919050565b6000613348601383613d9f565b91507f44414f666956313a20494e56414c49445f544f000000000000000000000000006000830152602082019050919050565b6000613388601a83613d9f565b91507f44414f666956313a20464f5242494444454e5f4445504f5349540000000000006000830152602082019050919050565b60006133c8601483613d9f565b91507f44414f666956313a20494e56414c49445f4645450000000000000000000000006000830152602082019050919050565b6000613408601283613d9f565b91507f44414f666956313a20494e56414c49445f4e00000000000000000000000000006000830152602082019050919050565b6000613448601b83613d9f565b91507f44414f666956313a20464f5242494444454e5f574954484452415700000000006000830152602082019050919050565b6000613488601283613d9f565b91507f4552525f4449564944455f42595f5a45524f00000000000000000000000000006000830152602082019050919050565b60006134c8601f83613d9f565b91507f44414f666956313a20494e434f52524543545f494e5055545f414d4f554e54006000830152602082019050919050565b6000613508601783613d9f565b91507f44414f666956313a20444f55424c455f4445504f5349540000000000000000006000830152602082019050919050565b6000613548601983613d9f565b91507f44414f666956313a20494e434f52524543545f544f4b454e53000000000000006000830152602082019050919050565b6000613588601283613d9f565b91507f44414f666956313a20464f5242494444454e00000000000000000000000000006000830152602082019050919050565b60006135c8601b83613d9f565b91507f44414f666956313a20554e494e495449414c495a45445f5357415000000000006000830152602082019050919050565b6000613608601c83613d9f565b91507f44414f666956313a20494e56414c49445f424153455f4f5554505554000000006000830152602082019050919050565b6000613648601d83613d9f565b91507f44414f666956313a20464f5242494444454e5f504149525f4f574e45520000006000830152602082019050919050565b6000613688601f83613d9f565b91507f44414f666956313a20554e494e495449414c495a45445f424153455f4f5554006000830152602082019050919050565b60006136c8600d83613d9f565b91507f4552525f554e444552464c4f57000000000000000000000000000000000000006000830152602082019050919050565b6000613708601f83613d9f565b91507f44414f666956313a20494e53554646494349454e545f494f5f414d4f554e54006000830152602082019050919050565b6000613748602283613d9f565b91507f44414f666956313a20494e53554649434349454e545f424153455f524553455260008301527f56450000000000000000000000000000000000000000000000000000000000006020830152604082019050919050565b60006137ae600f83613d9f565b91507f44414f666956313a204c4f434b454400000000000000000000000000000000006000830152602082019050919050565b6137ea81613dee565b82525050565b6137f981613df8565b82525050565b61380881613e08565b82525050565b600061381a8284612fd8565b915081905092915050565b600060208201905061383a6000830184612fc9565b92915050565b60006080820190506138556000830187612fc9565b6138626020830186612fc9565b61386f60408301856137e1565b61387c60608301846137e1565b95945050505050565b600060408201905061389a6000830185612fc9565b6138a760208301846137e1565b9392505050565b600060208201905081810360008301526138c781613009565b9050919050565b600060208201905081810360008301526138e781613049565b9050919050565b6000602082019050818103600083015261390781613089565b9050919050565b60006020820190508181036000830152613927816130c9565b9050919050565b6000602082019050818103600083015261394781613109565b9050919050565b600060208201905081810360008301526139678161316f565b9050919050565b60006020820190508181036000830152613987816131af565b9050919050565b600060208201905081810360008301526139a7816131ef565b9050919050565b600060208201905081810360008301526139c78161322f565b9050919050565b600060208201905081810360008301526139e781613295565b9050919050565b60006020820190508181036000830152613a07816132fb565b9050919050565b60006020820190508181036000830152613a278161333b565b9050919050565b60006020820190508181036000830152613a478161337b565b9050919050565b60006020820190508181036000830152613a67816133bb565b9050919050565b60006020820190508181036000830152613a87816133fb565b9050919050565b60006020820190508181036000830152613aa78161343b565b9050919050565b60006020820190508181036000830152613ac78161347b565b9050919050565b60006020820190508181036000830152613ae7816134bb565b9050919050565b60006020820190508181036000830152613b07816134fb565b9050919050565b60006020820190508181036000830152613b278161353b565b9050919050565b60006020820190508181036000830152613b478161357b565b9050919050565b60006020820190508181036000830152613b67816135bb565b9050919050565b60006020820190508181036000830152613b87816135fb565b9050919050565b60006020820190508181036000830152613ba78161363b565b9050919050565b60006020820190508181036000830152613bc78161367b565b9050919050565b60006020820190508181036000830152613be7816136bb565b9050919050565b60006020820190508181036000830152613c07816136fb565b9050919050565b60006020820190508181036000830152613c278161373b565b9050919050565b60006020820190508181036000830152613c47816137a1565b9050919050565b6000602082019050613c6360008301846137e1565b92915050565b6000604082019050613c7e60008301856137e1565b613c8b60208301846137e1565b9392505050565b6000606082019050613ca760008301866137e1565b613cb460208301856137e1565b613cc160408301846137e1565b949350505050565b6000608082019050613cde60008301876137e1565b613ceb60208301866137e1565b613cf860408301856137f0565b613d0560608301846137e1565b95945050505050565b6000608082019050613d2360008301876137e1565b613d3060208301866137e1565b613d3d60408301856137f0565b613d4a60608301846137f0565b95945050505050565b6000602082019050613d6860008301846137f0565b92915050565b6000602082019050613d8360008301846137ff565b92915050565b600081519050919050565b600081905092915050565b600082825260208201905092915050565b6000613dbb82613dce565b9050919050565b60008115159050919050565b600073ffffffffffffffffffffffffffffffffffffffff82169050919050565b6000819050919050565b600063ffffffff82169050919050565b600060ff82169050919050565b60005b83811015613e33578082015181840152602081019050613e18565b83811115613e42576000848401525b50505050565b613e5181613db0565b8114613e5c57600080fd5b50565b613e6881613dc2565b8114613e7357600080fd5b50565b613e7f81613dee565b8114613e8a57600080fd5b50565b613e9681613df8565b8114613ea157600080fd5b50565b613ead81613e08565b8114613eb857600080fd5b5056fea26469706673582212202ec1050c77216063eb16de594ce61daeeeed034821370d0f5dd2c894f258cbea64736f6c63430007040033a264697066735822122090200a531c208e483731a6cfd1cc011f07bbca8c32f5a137a86e8b6d1356f54164736f6c63430007040033",
  "linkReferences": {},
  "deployedLinkReferences": {}
}