{
  "_format": "hh-sol-artifact-1",
  "contractName": "SampleContest",
  "sourceName": "contracts/lib/platform/SampleContest.sol",
  "abi": [
    {
      "constant": false,
      "inputs": [
        {
          "name": "endpoint",
          "type": "bytes32"
        },
        {
          "name": "symbol",
          "type": "bytes32"
        },
        {
          "name": "curve",
          "type": "int256[]"
        }
      ],
      "name": "initializeCurve",
      "outputs": [
        {
          "name": "",
          "type": "address"
        }
      ],
      "payable": false,
      "stateMutability": "nonpayable",
      "type": "function"
    },
    {
      "constant": false,
      "inputs": [],
      "name": "settle",
      "outputs": [],
      "payable": false,
      "stateMutability": "nonpayable",
      "type": "function"
    },
    {
      "constant": true,
      "inputs": [],
      "name": "status",
      "outputs": [
        {
          "name": "",
          "type": "uint8"
        }
      ],
      "payable": false,
      "stateMutability": "view",
      "type": "function"
    },
    {
      "constant": false,
      "inputs": [
        {
          "name": "endpoint",
          "type": "bytes32"
        },
        {
          "name": "numDots",
          "type": "uint256"
        }
      ],
      "name": "unbond",
      "outputs": [
        {
          "name": "",
          "type": "uint256"
        }
      ],
      "payable": false,
      "stateMutability": "nonpayable",
      "type": "function"
    },
    {
      "constant": true,
      "inputs": [],
      "name": "getStatus",
      "outputs": [
        {
          "name": "",
          "type": "uint256"
        }
      ],
      "payable": false,
      "stateMutability": "view",
      "type": "function"
    },
    {
      "constant": true,
      "inputs": [],
      "name": "ttl",
      "outputs": [
        {
          "name": "",
          "type": "uint256"
        }
      ],
      "payable": false,
      "stateMutability": "view",
      "type": "function"
    },
    {
      "constant": false,
      "inputs": [
        {
          "name": "endpoint",
          "type": "bytes32"
        },
        {
          "name": "numDots",
          "type": "uint256"
        }
      ],
      "name": "bond",
      "outputs": [],
      "payable": false,
      "stateMutability": "nonpayable",
      "type": "function"
    },
    {
      "constant": true,
      "inputs": [
        {
          "name": "x",
          "type": "address"
        }
      ],
      "name": "toBytes",
      "outputs": [
        {
          "name": "b",
          "type": "bytes"
        }
      ],
      "payable": false,
      "stateMutability": "pure",
      "type": "function"
    },
    {
      "constant": true,
      "inputs": [],
      "name": "getEndpoints",
      "outputs": [
        {
          "name": "",
          "type": "bytes32[]"
        }
      ],
      "payable": false,
      "stateMutability": "view",
      "type": "function"
    },
    {
      "constant": true,
      "inputs": [
        {
          "name": "b",
          "type": "bytes"
        }
      ],
      "name": "bytesToAddr",
      "outputs": [
        {
          "name": "",
          "type": "address"
        }
      ],
      "payable": false,
      "stateMutability": "pure",
      "type": "function"
    },
    {
      "constant": true,
      "inputs": [
        {
          "name": "",
          "type": "bytes32"
        }
      ],
      "name": "curves",
      "outputs": [
        {
          "name": "",
          "type": "address"
        }
      ],
      "payable": false,
      "stateMutability": "view",
      "type": "function"
    },
    {
      "constant": true,
      "inputs": [],
      "name": "oracle",
      "outputs": [
        {
          "name": "",
          "type": "address"
        }
      ],
      "payable": false,
      "stateMutability": "view",
      "type": "function"
    },
    {
      "constant": true,
      "inputs": [
        {
          "name": "_endpoint",
          "type": "bytes32"
        }
      ],
      "name": "isEndpointValid",
      "outputs": [
        {
          "name": "",
          "type": "bool"
        }
      ],
      "payable": false,
      "stateMutability": "view",
      "type": "function"
    },
    {
      "constant": true,
      "inputs": [],
      "name": "owner",
      "outputs": [
        {
          "name": "",
          "type": "address"
        }
      ],
      "payable": false,
      "stateMutability": "view",
      "type": "function"
    },
    {
      "constant": true,
      "inputs": [
        {
          "name": "x",
          "type": "bytes32"
        }
      ],
      "name": "bytes32ToString",
      "outputs": [
        {
          "name": "",
          "type": "string"
        }
      ],
      "payable": false,
      "stateMutability": "pure",
      "type": "function"
    },
    {
      "constant": true,
      "inputs": [],
      "name": "coord",
      "outputs": [
        {
          "name": "",
          "type": "address"
        }
      ],
      "payable": false,
      "stateMutability": "view",
      "type": "function"
    },
    {
      "constant": true,
      "inputs": [
        {
          "name": "",
          "type": "address"
        }
      ],
      "name": "redeemed",
      "outputs": [
        {
          "name": "",
          "type": "uint8"
        }
      ],
      "payable": false,
      "stateMutability": "view",
      "type": "function"
    },
    {
      "constant": true,
      "inputs": [
        {
          "name": "endpoint",
          "type": "bytes32"
        }
      ],
      "name": "getTokenAddress",
      "outputs": [
        {
          "name": "",
          "type": "address"
        }
      ],
      "payable": false,
      "stateMutability": "view",
      "type": "function"
    },
    {
      "constant": true,
      "inputs": [],
      "name": "winValue",
      "outputs": [
        {
          "name": "",
          "type": "uint256"
        }
      ],
      "payable": false,
      "stateMutability": "view",
      "type": "function"
    },
    {
      "constant": false,
      "inputs": [
        {
          "name": "oracleAddress",
          "type": "address"
        },
        {
          "name": "_ttl",
          "type": "uint256"
        }
      ],
      "name": "initializeContest",
      "outputs": [],
      "payable": false,
      "stateMutability": "nonpayable",
      "type": "function"
    },
    {
      "constant": false,
      "inputs": [],
      "name": "reset",
      "outputs": [],
      "payable": false,
      "stateMutability": "nonpayable",
      "type": "function"
    },
    {
      "constant": true,
      "inputs": [],
      "name": "winner",
      "outputs": [
        {
          "name": "",
          "type": "bytes32"
        }
      ],
      "payable": false,
      "stateMutability": "view",
      "type": "function"
    },
    {
      "constant": false,
      "inputs": [
        {
          "name": "endpoint",
          "type": "bytes32"
        }
      ],
      "name": "judge",
      "outputs": [],
      "payable": false,
      "stateMutability": "nonpayable",
      "type": "function"
    },
    {
      "constant": true,
      "inputs": [],
      "name": "tokenFactory",
      "outputs": [
        {
          "name": "",
          "type": "address"
        }
      ],
      "payable": false,
      "stateMutability": "view",
      "type": "function"
    },
    {
      "constant": false,
      "inputs": [
        {
          "name": "newOwner",
          "type": "address"
        }
      ],
      "name": "transferOwnership",
      "outputs": [],
      "payable": false,
      "stateMutability": "nonpayable",
      "type": "function"
    },
    {
      "constant": true,
      "inputs": [
        {
          "name": "",
          "type": "uint256"
        }
      ],
      "name": "curves_list",
      "outputs": [
        {
          "name": "",
          "type": "bytes32"
        }
      ],
      "payable": false,
      "stateMutability": "view",
      "type": "function"
    },
    {
      "constant": true,
      "inputs": [],
      "name": "reserveToken",
      "outputs": [
        {
          "name": "",
          "type": "address"
        }
      ],
      "payable": false,
      "stateMutability": "view",
      "type": "function"
    },
    {
      "constant": true,
      "inputs": [
        {
          "name": "",
          "type": "uint256"
        }
      ],
      "name": "redeemed_list",
      "outputs": [
        {
          "name": "",
          "type": "address"
        }
      ],
      "payable": false,
      "stateMutability": "view",
      "type": "function"
    },
    {
      "inputs": [
        {
          "name": "coordinator",
          "type": "address"
        },
        {
          "name": "factory",
          "type": "address"
        },
        {
          "name": "providerPubKey",
          "type": "uint256"
        },
        {
          "name": "providerTitle",
          "type": "bytes32"
        }
      ],
      "payable": false,
      "stateMutability": "nonpayable",
      "type": "constructor"
    },
    {
      "anonymous": false,
      "inputs": [
        {
          "indexed": false,
          "name": "tokenAddress",
          "type": "address"
        }
      ],
      "name": "DotTokenCreated",
      "type": "event"
    },
    {
      "anonymous": false,
      "inputs": [
        {
          "indexed": true,
          "name": "endpoint",
          "type": "bytes32"
        },
        {
          "indexed": true,
          "name": "numDots",
          "type": "uint256"
        },
        {
          "indexed": true,
          "name": "sender",
          "type": "address"
        }
      ],
      "name": "Bonded",
      "type": "event"
    },
    {
      "anonymous": false,
      "inputs": [
        {
          "indexed": true,
          "name": "endpoint",
          "type": "bytes32"
        },
        {
          "indexed": true,
          "name": "amount",
          "type": "uint256"
        },
        {
          "indexed": true,
          "name": "sender",
          "type": "address"
        }
      ],
      "name": "Unbonded",
      "type": "event"
    },
    {
      "anonymous": false,
      "inputs": [
        {
          "indexed": true,
          "name": "oracle",
          "type": "address"
        }
      ],
      "name": "Initialized",
      "type": "event"
    },
    {
      "anonymous": false,
      "inputs": [],
      "name": "Closed",
      "type": "event"
    },
    {
      "anonymous": false,
      "inputs": [
        {
          "indexed": false,
          "name": "winner",
          "type": "bytes32"
        }
      ],
      "name": "Judged",
      "type": "event"
    },
    {
      "anonymous": false,
      "inputs": [
        {
          "indexed": false,
          "name": "winValue",
          "type": "uint256"
        },
        {
          "indexed": false,
          "name": "winTokens",
          "type": "uint256"
        }
      ],
      "name": "Settled",
      "type": "event"
    },
    {
      "anonymous": false,
      "inputs": [],
      "name": "Reset",
      "type": "event"
    },
    {
      "anonymous": false,
      "inputs": [
        {
          "indexed": true,
          "name": "previousOwner",
          "type": "address"
        },
        {
          "indexed": true,
          "name": "newOwner",
          "type": "address"
        }
      ],
      "name": "OwnershipTransferred",
      "type": "event"
    }
  ],
  "bytecode": "0x60806040523480156200001157600080fd5b506040516080806200495f833981018060405281019080805190602001909291908051906020019092919080519060200190929190805190602001909291905050506000336000806101000a81548173ffffffffffffffffffffffffffffffffffffffff021916908373ffffffffffffffffffffffffffffffffffffffff16021790555084600360006101000a81548173ffffffffffffffffffffffffffffffffffffffff021916908373ffffffffffffffffffffffffffffffffffffffff160217905550600360009054906101000a900473ffffffffffffffffffffffffffffffffffffffff1673ffffffffffffffffffffffffffffffffffffffff1663358177736040518163ffffffff167c01000000000000000000000000000000000000000000000000000000000281526004018080602001828103825260098152602001807f5a41505f544f4b454e0000000000000000000000000000000000000000000000815250602001915050602060405180830381600087803b1580156200019957600080fd5b505af1158015620001ae573d6000803e3d6000fd5b505050506040513d6020811015620001c557600080fd5b8101908080519060200190929190505050600260006101000a81548173ffffffffffffffffffffffffffffffffffffffff021916908373ffffffffffffffffffffffffffffffffffffffff160217905550600260009054906101000a900473ffffffffffffffffffffffffffffffffffffffff1673ffffffffffffffffffffffffffffffffffffffff1663095ea7b3600360009054906101000a900473ffffffffffffffffffffffffffffffffffffffff1673ffffffffffffffffffffffffffffffffffffffff1663358177736040518163ffffffff167c01000000000000000000000000000000000000000000000000000000000281526004018080602001828103825260078152602001807f424f4e4441474500000000000000000000000000000000000000000000000000815250602001915050602060405180830381600087803b1580156200031757600080fd5b505af11580156200032c573d6000803e3d6000fd5b505050506040513d60208110156200034357600080fd5b81019080805190602001909291905050506000196040518363ffffffff167c0100000000000000000000000000000000000000000000000000000000028152600401808373ffffffffffffffffffffffffffffffffffffffff1673ffffffffffffffffffffffffffffffffffffffff16815260200182815260200192505050602060405180830381600087803b158015620003dd57600080fd5b505af1158015620003f2573d6000803e3d6000fd5b505050506040513d60208110156200040957600080fd5b81019080805190602001909291905050505083600460006101000a81548173ffffffffffffffffffffffffffffffffffffffff021916908373ffffffffffffffffffffffffffffffffffffffff160217905550600360009054906101000a900473ffffffffffffffffffffffffffffffffffffffff1673ffffffffffffffffffffffffffffffffffffffff1663358177736040518163ffffffff167c01000000000000000000000000000000000000000000000000000000000281526004018080602001828103825260088152602001807f5245474953545259000000000000000000000000000000000000000000000000815250602001915050602060405180830381600087803b1580156200051f57600080fd5b505af115801562000534573d6000803e3d6000fd5b505050506040513d60208110156200054b57600080fd5b810190808051906020019092919050505090508073ffffffffffffffffffffffffffffffffffffffff1663af87c83384846040518363ffffffff167c010000000000000000000000000000000000000000000000000000000002815260040180838152602001826000191660001916815260200192505050602060405180830381600087803b158015620005de57600080fd5b505af1158015620005f3573d6000803e3d6000fd5b505050506040513d60208110156200060a57600080fd5b8101908080519060200190929190505050506000600a60006101000a81548160ff021916908360048111156200063c57fe5b0217905550505050505061430980620006566000396000f30060806040526004361061016a576000357c0100000000000000000000000000000000000000000000000000000000900463ffffffff16806306af06501461016f57806311da60b414610231578063200d2ed2146102485780634d8de4fc146102815780634e69d560146102d05780634e8b1dd5146102fb57806351f9321514610326578063593b79fe146103615780635d7c83f11461041d5780635ef6228c1461048957806366903e80146105325780637dc0d1d0146105a35780638ba3dbee146105fa5780638da5cb5b146106435780639201de551461069a5780639495c25a146107445780639f4568ef1461079b578063b12e4410146107f8578063b632313814610869578063bdb60f4514610894578063d826f88f146108e1578063dfbf53ae146108f8578063e41031431461092b578063e77772fe1461095c578063f2fde38b146109b3578063f3457c01146109f6578063f4325d6714610a3f578063fe97d6b314610a96575b600080fd5b34801561017b57600080fd5b506101ef6004803603810190808035600019169060200190929190803560001916906020019092919080359060200190820180359060200190808060200260200160405190810160405280939291908181526020018383602002808284378201915050505050509192919290505050610b03565b604051808273ffffffffffffffffffffffffffffffffffffffff1673ffffffffffffffffffffffffffffffffffffffff16815260200191505060405180910390f35b34801561023d57600080fd5b50610246611112565b005b34801561025457600080fd5b5061025d611813565b6040518082600481111561026d57fe5b60ff16815260200191505060405180910390f35b34801561028d57600080fd5b506102ba600480360381019080803560001916906020019092919080359060200190929190505050611826565b6040518082815260200191505060405180910390f35b3480156102dc57600080fd5b506102e56126b5565b6040518082815260200191505060405180910390f35b34801561030757600080fd5b506103106126d7565b6040518082815260200191505060405180910390f35b34801561033257600080fd5b5061035f6004803603810190808035600019169060200190929190803590602001909291905050506126dd565b005b34801561036d57600080fd5b506103a2600480360381019080803573ffffffffffffffffffffffffffffffffffffffff16906020019092919050505061312f565b6040518080602001828103825283818151815260200191508051906020019080838360005b838110156103e25780820151818401526020810190506103c7565b50505050905090810190601f16801561040f5780820380516001836020036101000a031916815260200191505b509250505060405180910390f35b34801561042957600080fd5b50610432613216565b6040518080602001828103825283818151815260200191508051906020019060200280838360005b8381101561047557808201518184015260208101905061045a565b505050509050019250505060405180910390f35b34801561049557600080fd5b506104f0600480360381019080803590602001908201803590602001908080601f0160208091040260200160405190810160405280939291908181526020018383808284378201915050505050509192919290505050613272565b604051808273ffffffffffffffffffffffffffffffffffffffff1673ffffffffffffffffffffffffffffffffffffffff16815260200191505060405180910390f35b34801561053e57600080fd5b50610561600480360381019080803560001916906020019092919050505061333f565b604051808273ffffffffffffffffffffffffffffffffffffffff1673ffffffffffffffffffffffffffffffffffffffff16815260200191505060405180910390f35b3480156105af57600080fd5b506105b8613372565b604051808273ffffffffffffffffffffffffffffffffffffffff1673ffffffffffffffffffffffffffffffffffffffff16815260200191505060405180910390f35b34801561060657600080fd5b506106296004803603810190808035600019169060200190929190505050613398565b604051808215151515815260200191505060405180910390f35b34801561064f57600080fd5b506106586133f7565b604051808273ffffffffffffffffffffffffffffffffffffffff1673ffffffffffffffffffffffffffffffffffffffff16815260200191505060405180910390f35b3480156106a657600080fd5b506106c9600480360381019080803560001916906020019092919050505061341c565b6040518080602001828103825283818151815260200191508051906020019080838360005b838110156107095780820151818401526020810190506106ee565b50505050905090810190601f1680156107365780820380516001836020036101000a031916815260200191505b509250505060405180910390f35b34801561075057600080fd5b50610759613489565b604051808273ffffffffffffffffffffffffffffffffffffffff1673ffffffffffffffffffffffffffffffffffffffff16815260200191505060405180910390f35b3480156107a757600080fd5b506107dc600480360381019080803573ffffffffffffffffffffffffffffffffffffffff1690602001909291905050506134af565b604051808260ff1660ff16815260200191505060405180910390f35b34801561080457600080fd5b5061082760048036038101908080356000191690602001909291905050506134cf565b604051808273ffffffffffffffffffffffffffffffffffffffff1673ffffffffffffffffffffffffffffffffffffffff16815260200191505060405180910390f35b34801561087557600080fd5b5061087e61371d565b6040518082815260200191505060405180910390f35b3480156108a057600080fd5b506108df600480360381019080803573ffffffffffffffffffffffffffffffffffffffff16906020019092919080359060200190929190505050613723565b005b3480156108ed57600080fd5b506108f66138f2565b005b34801561090457600080fd5b5061090d613c25565b60405180826000191660001916815260200191505060405180910390f35b34801561093757600080fd5b5061095a6004803603810190808035600019169060200190929190505050613c2b565b005b34801561096857600080fd5b50610971613e9f565b604051808273ffffffffffffffffffffffffffffffffffffffff1673ffffffffffffffffffffffffffffffffffffffff16815260200191505060405180910390f35b3480156109bf57600080fd5b506109f4600480360381019080803573ffffffffffffffffffffffffffffffffffffffff169060200190929190505050613ec5565b005b348015610a0257600080fd5b50610a216004803603810190808035906020019092919050505061401a565b60405180826000191660001916815260200191505060405180910390f35b348015610a4b57600080fd5b50610a5461403d565b604051808273ffffffffffffffffffffffffffffffffffffffff1673ffffffffffffffffffffffffffffffffffffffff16815260200191505060405180910390f35b348015610aa257600080fd5b50610ac160048036038101908080359060200190929190505050614063565b604051808273ffffffffffffffffffffffffffffffffffffffff1673ffffffffffffffffffffffffffffffffffffffff16815260200191505060405180910390f35b6000806000600b6000876000191660001916815260200190815260200160002060009054906101000a900473ffffffffffffffffffffffffffffffffffffffff1673ffffffffffffffffffffffffffffffffffffffff16141515610c1b576040517f08c379a000000000000000000000000000000000000000000000000000000000815260040180806020018281038252604f8152602001807f437572766520656e64706f696e7420616c726561647920657869737473206f7281526020017f207573656420696e2074686520706173742e20506c656173652063686f6f736581526020017f2061206e657720656e64706f696e74000000000000000000000000000000000081525060600191505060405180910390fd5b600360009054906101000a900473ffffffffffffffffffffffffffffffffffffffff1673ffffffffffffffffffffffffffffffffffffffff1663358177736040518163ffffffff167c01000000000000000000000000000000000000000000000000000000000281526004018080602001828103825260088152602001807f5245474953545259000000000000000000000000000000000000000000000000815250602001915050602060405180830381600087803b158015610cdd57600080fd5b505af1158015610cf1573d6000803e3d6000fd5b505050506040513d6020811015610d0757600080fd5b810190808051906020019092919050505090508073ffffffffffffffffffffffffffffffffffffffff1663238b3aed8685306040518463ffffffff167c0100000000000000000000000000000000000000000000000000000000028152600401808460001916600019168152602001806020018373ffffffffffffffffffffffffffffffffffffffff1673ffffffffffffffffffffffffffffffffffffffff168152602001828103825284818151815260200191508051906020019060200280838360005b83811015610de7578082015181840152602081019050610dcc565b50505050905001945050505050602060405180830381600087803b158015610e0e57600080fd5b505af1158015610e22573d6000803e3d6000fd5b505050506040513d6020811015610e3857600080fd5b810190808051906020019092919050505050610e64610e568661341c565b610e5f8661341c565b6140a1565b600b6000876000191660001916815260200190815260200160002060006101000a81548173ffffffffffffffffffffffffffffffffffffffff021916908373ffffffffffffffffffffffffffffffffffffffff160217905550600c8590806001815401808255809150509060018203906000526020600020016000909192909190915090600019169055508073ffffffffffffffffffffffffffffffffffffffff16635750644a86610f50600b60008a6000191660001916815260200190815260200160002060009054906101000a900473ffffffffffffffffffffffffffffffffffffffff1661312f565b6040518363ffffffff167c010000000000000000000000000000000000000000000000000000000002815260040180836000191660001916815260200180602001828103825283818151815260200191508051906020019080838360005b83811015610fc9578082015181840152602081019050610fae565b50505050905090810190601f168015610ff65780820380516001836020036101000a031916815260200191505b509350505050600060405180830381600087803b15801561101657600080fd5b505af115801561102a573d6000803e3d6000fd5b505050507f6c98c7e1fb155d4c2c1f008682fd94fb74d1c9667207aaaa9ab65cee2b38ea7a600b6000876000191660001916815260200190815260200160002060009054906101000a900473ffffffffffffffffffffffffffffffffffffffff16604051808273ffffffffffffffffffffffffffffffffffffffff1673ffffffffffffffffffffffffffffffffffffffff16815260200191505060405180910390a1600b6000866000191660001916815260200190815260200160002060009054906101000a900473ffffffffffffffffffffffffffffffffffffffff169150509392505050565b60008060006002600481111561112457fe5b600a60009054906101000a900460ff16600481111561113f57fe5b1415156111b4576040517f08c379a00000000000000000000000000000000000000000000000000000000081526004018080602001828103825260158152602001807f77696e6e6572206e6f742064657465726d696e6564000000000000000000000081525060200191505060405180910390fd5b600360009054906101000a900473ffffffffffffffffffffffffffffffffffffffff1673ffffffffffffffffffffffffffffffffffffffff1663358177736040518163ffffffff167c01000000000000000000000000000000000000000000000000000000000281526004018080602001828103825260078152602001807f424f4e4441474500000000000000000000000000000000000000000000000000815250602001915050602060405180830381600087803b15801561127657600080fd5b505af115801561128a573d6000803e3d6000fd5b505050506040513d60208110156112a057600080fd5b8101908080519060200190929190505050600560006101000a81548173ffffffffffffffffffffffffffffffffffffffff021916908373ffffffffffffffffffffffffffffffffffffffff160217905550600560009054906101000a900473ffffffffffffffffffffffffffffffffffffffff1673ffffffffffffffffffffffffffffffffffffffff16631d7b5e22306008546040518363ffffffff167c0100000000000000000000000000000000000000000000000000000000028152600401808373ffffffffffffffffffffffffffffffffffffffff1673ffffffffffffffffffffffffffffffffffffffff168152602001826000191660001916815260200192505050602060405180830381600087803b1580156113c057600080fd5b505af11580156113d4573d6000803e3d6000fd5b505050506040513d60208110156113ea57600080fd5b81019080805190602001909291905050509250600090505b600c805490508110156116a05760085460001916600c8281548110151561142557fe5b90600052602060002001546000191614151561169357600560009054906101000a900473ffffffffffffffffffffffffffffffffffffffff1673ffffffffffffffffffffffffffffffffffffffff16631d7b5e2230600c8481548110151561148957fe5b90600052602060002001546040518363ffffffff167c0100000000000000000000000000000000000000000000000000000000028152600401808373ffffffffffffffffffffffffffffffffffffffff1673ffffffffffffffffffffffffffffffffffffffff168152602001826000191660001916815260200192505050602060405180830381600087803b15801561152157600080fd5b505af1158015611535573d6000803e3d6000fd5b505050506040513d602081101561154b57600080fd5b81019080805190602001909291905050509150600082111561169257600560009054906101000a900473ffffffffffffffffffffffffffffffffffffffff1673ffffffffffffffffffffffffffffffffffffffff1663a06fe77530600c848154811015156115b557fe5b9060005260206000200154856040518463ffffffff167c0100000000000000000000000000000000000000000000000000000000028152600401808473ffffffffffffffffffffffffffffffffffffffff1673ffffffffffffffffffffffffffffffffffffffff16815260200183600019166000191681526020018281526020019350505050602060405180830381600087803b15801561165557600080fd5b505af1158015611669573d6000803e3d6000fd5b505050506040513d602081101561167f57600080fd5b8101908080519060200190929190505050505b5b8080600101915050611402565b82600260009054906101000a900473ffffffffffffffffffffffffffffffffffffffff1673ffffffffffffffffffffffffffffffffffffffff166370a08231306040518263ffffffff167c0100000000000000000000000000000000000000000000000000000000028152600401808273ffffffffffffffffffffffffffffffffffffffff1673ffffffffffffffffffffffffffffffffffffffff168152602001915050602060405180830381600087803b15801561175e57600080fd5b505af1158015611772573d6000803e3d6000fd5b505050506040513d602081101561178857600080fd5b81019080805190602001909291905050508115156117a257fe5b046009819055506003600a60006101000a81548160ff021916908360048111156117c857fe5b02179055507ff5b268a3ff315cc44ccceeef86259c9e8eef81ceecb14001543809115380dd6260095484604051808381526020018281526020019250505060405180910390a1505050565b600a60009054906101000a900460ff1681565b6000806000806000600360009054906101000a900473ffffffffffffffffffffffffffffffffffffffff1673ffffffffffffffffffffffffffffffffffffffff1663358177736040518163ffffffff167c01000000000000000000000000000000000000000000000000000000000281526004018080602001828103825260078152602001807f424f4e4441474500000000000000000000000000000000000000000000000000815250602001915050602060405180830381600087803b1580156118f057600080fd5b505af1158015611904573d6000803e3d6000fd5b505050506040513d602081101561191a57600080fd5b8101908080519060200190929190505050600560006101000a81548173ffffffffffffffffffffffffffffffffffffffff021916908373ffffffffffffffffffffffffffffffffffffffff160217905550600560009054906101000a900473ffffffffffffffffffffffffffffffffffffffff1673ffffffffffffffffffffffffffffffffffffffff16631d7b5e2230896040518363ffffffff167c0100000000000000000000000000000000000000000000000000000000028152600401808373ffffffffffffffffffffffffffffffffffffffff1673ffffffffffffffffffffffffffffffffffffffff168152602001826000191660001916815260200192505050602060405180830381600087803b158015611a3857600080fd5b505af1158015611a4c573d6000803e3d6000fd5b505050506040513d6020811015611a6257600080fd5b81019080805190602001909291905050509350600560009054906101000a900473ffffffffffffffffffffffffffffffffffffffff1673ffffffffffffffffffffffffffffffffffffffff1663a06fe77530600854896040518463ffffffff167c0100000000000000000000000000000000000000000000000000000000028152600401808473ffffffffffffffffffffffffffffffffffffffff1673ffffffffffffffffffffffffffffffffffffffff16815260200183600019166000191681526020018281526020019350505050602060405180830381600087803b158015611b4c57600080fd5b505af1158015611b60573d6000803e3d6000fd5b505050506040513d6020811015611b7657600080fd5b810190808051906020019092919050505050600360009054906101000a900473ffffffffffffffffffffffffffffffffffffffff1673ffffffffffffffffffffffffffffffffffffffff1663358177736040518163ffffffff167c010000000000000000000000000000000000000000000000000000000002815260040180806020018281038252600c8152602001807f43555252454e545f434f53540000000000000000000000000000000000000000815250602001915050602060405180830381600087803b158015611c4a57600080fd5b505af1158015611c5e573d6000803e3d6000fd5b505050506040513d6020811015611c7457600080fd5b8101908080519060200190929190505050600160006101000a81548173ffffffffffffffffffffffffffffffffffffffff021916908373ffffffffffffffffffffffffffffffffffffffff160217905550600160009054906101000a900473ffffffffffffffffffffffffffffffffffffffff1673ffffffffffffffffffffffffffffffffffffffff1663197d66d5308989600189010360018b036040518563ffffffff167c0100000000000000000000000000000000000000000000000000000000028152600401808573ffffffffffffffffffffffffffffffffffffffff1673ffffffffffffffffffffffffffffffffffffffff1681526020018460001916600019168152602001838152602001828152602001945050505050602060405180830381600087803b158015611daa57600080fd5b505af1158015611dbe573d6000803e3d6000fd5b505050506040513d6020811015611dd457600080fd5b81019080805190602001909291905050509250600b6000886000191660001916815260200190815260200160002060009054906101000a900473ffffffffffffffffffffffffffffffffffffffff16915060016004811115611e3257fe5b600a60009054906101000a900460ff166004811115611e4d57fe5b1480611e7d5750600480811115611e6057fe5b600a60009054906101000a900460ff166004811115611e7b57fe5b145b1561219f5760075443111515611efb576040517f08c379a00000000000000000000000000000000000000000000000000000000081526004018080602001828103825260198152602001807f6f7261636c65207175657279206e6f7420657870697265642e0000000000000081525060200191505060405180910390fd5b6004600a60006101000a81548160ff02191690836004811115611f1a57fe5b02179055508173ffffffffffffffffffffffffffffffffffffffff166379cc679033886040518363ffffffff167c0100000000000000000000000000000000000000000000000000000000028152600401808373ffffffffffffffffffffffffffffffffffffffff1673ffffffffffffffffffffffffffffffffffffffff16815260200182815260200192505050600060405180830381600087803b158015611fc257600080fd5b505af1158015611fd6573d6000803e3d6000fd5b50505050600260009054906101000a900473ffffffffffffffffffffffffffffffffffffffff1673ffffffffffffffffffffffffffffffffffffffff1663a9059cbb33856040518363ffffffff167c0100000000000000000000000000000000000000000000000000000000028152600401808373ffffffffffffffffffffffffffffffffffffffff1673ffffffffffffffffffffffffffffffffffffffff16815260200182815260200192505050602060405180830381600087803b15801561209f57600080fd5b505af11580156120b3573d6000803e3d6000fd5b505050506040513d60208110156120c957600080fd5b8101908080519060200190929190505050151561214e576040517f08c379a000000000000000000000000000000000000000000000000000000000815260040180806020018281038252600f8152602001807f7472616e73666572206661696c6564000000000000000000000000000000000081525060200191505060405180910390fd5b3373ffffffffffffffffffffffffffffffffffffffff168388600019167f11a44cb23d594705c95aa35553bec5a6572ef7d08fbd468f29c5392ee1d214e360405160405180910390a48294506126ab565b600360048111156121ac57fe5b600a60009054906101000a900460ff1660048111156121c757fe5b14151561223c576040517f08c379a00000000000000000000000000000000000000000000000000000000081526004018080602001828103825260148152602001807f20636f6e74657374206e6f7420736574746c656400000000000000000000000081525060200191505060405180910390fd5b6000600d60003373ffffffffffffffffffffffffffffffffffffffff1673ffffffffffffffffffffffffffffffffffffffff16815260200190815260200160002060009054906101000a900460ff1660ff16141515612303576040517f08c379a00000000000000000000000000000000000000000000000000000000081526004018080602001828103825260118152602001807f616c7265616479207265646565656d656400000000000000000000000000000081525060200191505060405180910390fd5b8660001916600854600019161415156123aa576040517f08c379a00000000000000000000000000000000000000000000000000000000081526004018080602001828103825260238152602001807f6f6e6c792077696e6e6572732063616e20756e626f6e6420666f72207265776181526020017f726473000000000000000000000000000000000000000000000000000000000081525060400191505060405180910390fd5b826123b66008546134cf565b73ffffffffffffffffffffffffffffffffffffffff166370a08231336040518263ffffffff167c0100000000000000000000000000000000000000000000000000000000028152600401808273ffffffffffffffffffffffffffffffffffffffff1673ffffffffffffffffffffffffffffffffffffffff168152602001915050602060405180830381600087803b15801561245057600080fd5b505af1158015612464573d6000803e3d6000fd5b505050506040513d602081101561247a57600080fd5b8101908080519060200190929190505050600954020190508173ffffffffffffffffffffffffffffffffffffffff166379cc679033886040518363ffffffff167c0100000000000000000000000000000000000000000000000000000000028152600401808373ffffffffffffffffffffffffffffffffffffffff1673ffffffffffffffffffffffffffffffffffffffff16815260200182815260200192505050600060405180830381600087803b15801561253557600080fd5b505af1158015612549573d6000803e3d6000fd5b50505050600260009054906101000a900473ffffffffffffffffffffffffffffffffffffffff1673ffffffffffffffffffffffffffffffffffffffff1663a9059cbb33836040518363ffffffff167c0100000000000000000000000000000000000000000000000000000000028152600401808373ffffffffffffffffffffffffffffffffffffffff1673ffffffffffffffffffffffffffffffffffffffff16815260200182815260200192505050602060405180830381600087803b15801561261257600080fd5b505af1158015612626573d6000803e3d6000fd5b505050506040513d602081101561263c57600080fd5b8101908080519060200190929190505050506001600d60003373ffffffffffffffffffffffffffffffffffffffff1673ffffffffffffffffffffffffffffffffffffffff16815260200190815260200160002060006101000a81548160ff021916908360ff1602179055508094505b5050505092915050565b6000600a60009054906101000a900460ff1660048111156126d257fe5b905090565b60075481565b6000806000600160048111156126ef57fe5b600a60009054906101000a900460ff16600481111561270a57fe5b14151561277f576040517f08c379a00000000000000000000000000000000000000000000000000000000081526004018080602001828103825260198152602001807f20636f6e74657374206973206e6f7420696e697469617465640000000000000081525060200191505060405180910390fd5b600360009054906101000a900473ffffffffffffffffffffffffffffffffffffffff1673ffffffffffffffffffffffffffffffffffffffff1663358177736040518163ffffffff167c01000000000000000000000000000000000000000000000000000000000281526004018080602001828103825260078152602001807f424f4e4441474500000000000000000000000000000000000000000000000000815250602001915050602060405180830381600087803b15801561284157600080fd5b505af1158015612855573d6000803e3d6000fd5b505050506040513d602081101561286b57600080fd5b8101908080519060200190929190505050600560006101000a81548173ffffffffffffffffffffffffffffffffffffffff021916908373ffffffffffffffffffffffffffffffffffffffff160217905550600560009054906101000a900473ffffffffffffffffffffffffffffffffffffffff1673ffffffffffffffffffffffffffffffffffffffff16631d7b5e2230876040518363ffffffff167c0100000000000000000000000000000000000000000000000000000000028152600401808373ffffffffffffffffffffffffffffffffffffffff1673ffffffffffffffffffffffffffffffffffffffff168152602001826000191660001916815260200192505050602060405180830381600087803b15801561298957600080fd5b505af115801561299d573d6000803e3d6000fd5b505050506040513d60208110156129b357600080fd5b81019080805190602001909291905050509250600360009054906101000a900473ffffffffffffffffffffffffffffffffffffffff1673ffffffffffffffffffffffffffffffffffffffff1663358177736040518163ffffffff167c010000000000000000000000000000000000000000000000000000000002815260040180806020018281038252600c8152602001807f43555252454e545f434f53540000000000000000000000000000000000000000815250602001915050602060405180830381600087803b158015612a8857600080fd5b505af1158015612a9c573d6000803e3d6000fd5b505050506040513d6020811015612ab257600080fd5b810190808051906020019092919050505091508173ffffffffffffffffffffffffffffffffffffffff1663197d66d5308760018701600189036040518563ffffffff167c0100000000000000000000000000000000000000000000000000000000028152600401808573ffffffffffffffffffffffffffffffffffffffff1673ffffffffffffffffffffffffffffffffffffffff1681526020018460001916600019168152602001838152602001828152602001945050505050602060405180830381600087803b158015612b8657600080fd5b505af1158015612b9a573d6000803e3d6000fd5b505050506040513d6020811015612bb057600080fd5b81019080805190602001909291905050509050600260009054906101000a900473ffffffffffffffffffffffffffffffffffffffff1673ffffffffffffffffffffffffffffffffffffffff166323b872dd3330846040518463ffffffff167c0100000000000000000000000000000000000000000000000000000000028152600401808473ffffffffffffffffffffffffffffffffffffffff1673ffffffffffffffffffffffffffffffffffffffff1681526020018373ffffffffffffffffffffffffffffffffffffffff1673ffffffffffffffffffffffffffffffffffffffff1681526020018281526020019350505050602060405180830381600087803b158015612cbc57600080fd5b505af1158015612cd0573d6000803e3d6000fd5b505050506040513d6020811015612ce657600080fd5b81019080805190602001909291905050501515612d91576040517f08c379a00000000000000000000000000000000000000000000000000000000081526004018080602001828103825260398152602001807f696e73756666696369656e7420616363657074656420746f6b656e206e756d4481526020017f6f747320617070726f76656420666f72207472616e736665720000000000000081525060400191505060405180910390fd5b600260009054906101000a900473ffffffffffffffffffffffffffffffffffffffff1673ffffffffffffffffffffffffffffffffffffffff1663095ea7b3600560009054906101000a900473ffffffffffffffffffffffffffffffffffffffff16836040518363ffffffff167c0100000000000000000000000000000000000000000000000000000000028152600401808373ffffffffffffffffffffffffffffffffffffffff1673ffffffffffffffffffffffffffffffffffffffff16815260200182815260200192505050602060405180830381600087803b158015612e7857600080fd5b505af1158015612e8c573d6000803e3d6000fd5b505050506040513d6020811015612ea257600080fd5b810190808051906020019092919050505050600560009054906101000a900473ffffffffffffffffffffffffffffffffffffffff1673ffffffffffffffffffffffffffffffffffffffff166399275cc73087876040518463ffffffff167c0100000000000000000000000000000000000000000000000000000000028152600401808473ffffffffffffffffffffffffffffffffffffffff1673ffffffffffffffffffffffffffffffffffffffff16815260200183600019166000191681526020018281526020019350505050602060405180830381600087803b158015612f8957600080fd5b505af1158015612f9d573d6000803e3d6000fd5b505050506040513d6020811015612fb357600080fd5b810190808051906020019092919050505050600b6000866000191660001916815260200190815260200160002060009054906101000a900473ffffffffffffffffffffffffffffffffffffffff1673ffffffffffffffffffffffffffffffffffffffff166340c10f1933866040518363ffffffff167c0100000000000000000000000000000000000000000000000000000000028152600401808373ffffffffffffffffffffffffffffffffffffffff1673ffffffffffffffffffffffffffffffffffffffff16815260200182815260200192505050602060405180830381600087803b1580156130a357600080fd5b505af11580156130b7573d6000803e3d6000fd5b505050506040513d60208110156130cd57600080fd5b8101908080519060200190929190505050503373ffffffffffffffffffffffffffffffffffffffff168486600019167f9738427d867a8b08540015120042d5a5ab1244297c70f40cb29fa7ba3458715360405160405180910390a45050505050565b6060600060146040519080825280601f01601f1916602001820160405280156131675781602001602082028038833980820191505090505b509150600090505b6014811015613210578060130360080260020a8373ffffffffffffffffffffffffffffffffffffffff168115156131a257fe5b047f01000000000000000000000000000000000000000000000000000000000000000282828151811015156131d357fe5b9060200101907effffffffffffffffffffffffffffffffffffffffffffffffffffffffffffff1916908160001a905350808060010191505061316f565b50919050565b6060600c80548060200260200160405190810160405280929190818152602001828054801561326857602002820191906000526020600020905b81546000191681526020019060010190808311613250575b5050505050905090565b6000806000806000809350600186510392505b600060018401111561333357858381518110151561329f57fe5b9060200101517f010000000000000000000000000000000000000000000000000000000000000090047f0100000000000000000000000000000000000000000000000000000000000000027f0100000000000000000000000000000000000000000000000000000000000000900491506002600184885103030260100a820290508084019350828060019003935050613285565b83945050505050919050565b600b6020528060005260406000206000915054906101000a900473ffffffffffffffffffffffffffffffffffffffff1681565b600660009054906101000a900473ffffffffffffffffffffffffffffffffffffffff1681565b600080600090505b600c805490508110156133ec57600c818154811015156133bc57fe5b906000526020600020015460001916836000191614156133df57600191506133f1565b80806001019150506133a0565b600091505b50919050565b6000809054906101000a900473ffffffffffffffffffffffffffffffffffffffff1681565b60608060206040519080825280601f01601f1916602001820160405280156134535781602001602082028038833980820191505090505b50905082604051602001808260001916600019168152602001915050604051602081830303815290604052905080915050919050565b600360009054906101000a900473ffffffffffffffffffffffffffffffffffffffff1681565b600d6020528060005260406000206000915054906101000a900460ff1681565b600080600360009054906101000a900473ffffffffffffffffffffffffffffffffffffffff1673ffffffffffffffffffffffffffffffffffffffff1663358177736040518163ffffffff167c01000000000000000000000000000000000000000000000000000000000281526004018080602001828103825260088152602001807f5245474953545259000000000000000000000000000000000000000000000000815250602001915050602060405180830381600087803b15801561359457600080fd5b505af11580156135a8573d6000803e3d6000fd5b505050506040513d60208110156135be57600080fd5b810190808051906020019092919050505090506137158173ffffffffffffffffffffffffffffffffffffffff16634d9bcac430866040518363ffffffff167c0100000000000000000000000000000000000000000000000000000000028152600401808373ffffffffffffffffffffffffffffffffffffffff1673ffffffffffffffffffffffffffffffffffffffff168152602001826000191660001916815260200192505050600060405180830381600087803b15801561367f57600080fd5b505af1158015613693573d6000803e3d6000fd5b505050506040513d6000823e3d601f19601f8201168201806040525060208110156136bd57600080fd5b8101908080516401000000008111156136d557600080fd5b828101905060208101848111156136eb57600080fd5b815185600182028301116401000000008211171561370857600080fd5b5050929190505050613272565b915050919050565b60095481565b6000809054906101000a900473ffffffffffffffffffffffffffffffffffffffff1673ffffffffffffffffffffffffffffffffffffffff163373ffffffffffffffffffffffffffffffffffffffff1614151561377e57600080fd5b6000600481111561378b57fe5b600a60009054906101000a900460ff1660048111156137a657fe5b14151561381b576040517f08c379a000000000000000000000000000000000000000000000000000000000815260040180806020018281038252601b8152602001807f436f6e7465737420616c726561647920696e697469616c697a6564000000000081525060200191505060405180910390fd5b81600660006101000a81548173ffffffffffffffffffffffffffffffffffffffff021916908373ffffffffffffffffffffffffffffffffffffffff1602179055504381016007819055506001600a60006101000a81548160ff0219169083600481111561388457fe5b0217905550600660009054906101000a900473ffffffffffffffffffffffffffffffffffffffff1673ffffffffffffffffffffffffffffffffffffffff167f908408e307fc569b417f6cbec5d5a06f44a0a505ac0479b47d421a4b2fd6a1e660405160405180910390a25050565b600660009054906101000a900473ffffffffffffffffffffffffffffffffffffffff1673ffffffffffffffffffffffffffffffffffffffff163373ffffffffffffffffffffffffffffffffffffffff1614151561394e57600080fd5b6003600481111561395b57fe5b600a60009054906101000a900460ff16600481111561397657fe5b14806139a6575060048081111561398957fe5b600a60009054906101000a900460ff1660048111156139a457fe5b145b1515613a1a576040517f08c379a00000000000000000000000000000000000000000000000000000000081526004018080602001828103825260138152602001807f636f6e74657374206e6f7420736574746c65640000000000000000000000000081525060200191505060405180910390fd5b600480811115613a2657fe5b600a60009054906101000a900460ff166004811115613a4157fe5b1415613bb7576000600260009054906101000a900473ffffffffffffffffffffffffffffffffffffffff1673ffffffffffffffffffffffffffffffffffffffff166370a08231306040518263ffffffff167c0100000000000000000000000000000000000000000000000000000000028152600401808273ffffffffffffffffffffffffffffffffffffffff1673ffffffffffffffffffffffffffffffffffffffff168152602001915050602060405180830381600087803b158015613b0657600080fd5b505af1158015613b1a573d6000803e3d6000fd5b505050506040513d6020811015613b3057600080fd5b8101908080519060200190929190505050141515613bb6576040517f08c379a000000000000000000000000000000000000000000000000000000000815260040180806020018281038252600c8152602001807f66756e64732072656d61696e000000000000000000000000000000000000000081525060200191505060405180910390fd5b5b600e6000613bc59190614251565b600c6000613bd39190614272565b6001600a60006101000a81548160ff02191690836004811115613bf257fe5b02179055507f6423db340205c829eeb91151b1c5d1dc6d7a2b8708b1621494e89ba90c87081e60405160405180910390a1565b60085481565b60016004811115613c3857fe5b600a60009054906101000a900460ff166004811115613c5357fe5b141515613cc8576040517f08c379a00000000000000000000000000000000000000000000000000000000081526004018080602001828103825260178152602001807f436f6e74657374206e6f7420696e697469616c697a656400000000000000000081525060200191505060405180910390fd5b600660009054906101000a900473ffffffffffffffffffffffffffffffffffffffff1673ffffffffffffffffffffffffffffffffffffffff163373ffffffffffffffffffffffffffffffffffffffff16141515613d8d576040517f08c379a00000000000000000000000000000000000000000000000000000000081526004018080602001828103825260208152602001807f4f6e6c792064657369676e61746564204f7261636c652063616e206a7564676581525060200191505060405180910390fd5b60075443101515613e2c576040517f08c379a00000000000000000000000000000000000000000000000000000000081526004018080602001828103825260228152602001807f436f6e7465737420657870697265642c20726566756e6420696e2070726f636581526020017f737300000000000000000000000000000000000000000000000000000000000081525060400191505060405180910390fd5b80600881600019169055506002600a60006101000a81548160ff02191690836004811115613e5657fe5b02179055507f1dc269042eebc624dd61bda8673af110f6d520b8e508c5a05aff5b324ff80bc060085460405180826000191660001916815260200191505060405180910390a150565b600460009054906101000a900473ffffffffffffffffffffffffffffffffffffffff1681565b6000809054906101000a900473ffffffffffffffffffffffffffffffffffffffff1673ffffffffffffffffffffffffffffffffffffffff163373ffffffffffffffffffffffffffffffffffffffff16141515613f2057600080fd5b600073ffffffffffffffffffffffffffffffffffffffff168173ffffffffffffffffffffffffffffffffffffffff1614151515613f5c57600080fd5b8073ffffffffffffffffffffffffffffffffffffffff166000809054906101000a900473ffffffffffffffffffffffffffffffffffffffff1673ffffffffffffffffffffffffffffffffffffffff167f8be0079c531659141344cd1fd0a4f28419497f9722a3daafe3b4186f6b6457e060405160405180910390a3806000806101000a81548173ffffffffffffffffffffffffffffffffffffffff021916908373ffffffffffffffffffffffffffffffffffffffff16021790555050565b600c8181548110151561402957fe5b906000526020600020016000915090505481565b600260009054906101000a900473ffffffffffffffffffffffffffffffffffffffff1681565b600e8181548110151561407257fe5b906000526020600020016000915054906101000a900473ffffffffffffffffffffffffffffffffffffffff1681565b600080600460009054906101000a900473ffffffffffffffffffffffffffffffffffffffff1673ffffffffffffffffffffffffffffffffffffffff1663198e2b8a85856040518363ffffffff167c0100000000000000000000000000000000000000000000000000000000028152600401808060200180602001838103835285818151815260200191508051906020019080838360005b83811015614153578082015181840152602081019050614138565b50505050905090810190601f1680156141805780820380516001836020036101000a031916815260200191505b50838103825284818151815260200191508051906020019080838360005b838110156141b957808201518184015260208101905061419e565b50505050905090810190601f1680156141e65780820380516001836020036101000a031916815260200191505b50945050505050602060405180830381600087803b15801561420757600080fd5b505af115801561421b573d6000803e3d6000fd5b505050506040513d602081101561423157600080fd5b810190808051906020019092919050505090508091508191505092915050565b508054600082559060005260206000209081019061426f9190614293565b50565b508054600082559060005260206000209081019061429091906142b8565b50565b6142b591905b808211156142b1576000816000905550600101614299565b5090565b90565b6142da91905b808211156142d65760008160009055506001016142be565b5090565b905600a165627a7a723058203c2cba398c96801aeffa01610506311a718e76fdcf95df855409b38fe95a20bd0029",
  "linkReferences": {},
  "deployedLinkReferences": {}
}