{
  "_format": "hh-sol-artifact-1",
  "contractName": "BTCcontest",
  "sourceName": "contracts/lib/platform/BTCcontest.sol",
  "abi": [
    {
      "constant": true,
      "inputs": [],
      "name": "coordinator",
      "outputs": [
        {
          "name": "",
          "type": "address"
        }
      ],
      "payable": false,
      "stateMutability": "view",
      "type": "function"
    },
    {
      "constant": true,
      "inputs": [],
      "name": "downEndpoint",
      "outputs": [
        {
          "name": "",
          "type": "bytes32"
        }
      ],
      "payable": false,
      "stateMutability": "view",
      "type": "function"
    },
    {
      "constant": false,
      "inputs": [
        {
          "name": "_coincap",
          "type": "address"
        },
        {
          "name": "_endpoint",
          "type": "bytes32"
        },
        {
          "name": "_numDots",
          "type": "uint256"
        }
      ],
      "name": "bondToCoincap",
      "outputs": [
        {
          "name": "",
          "type": "bool"
        }
      ],
      "payable": false,
      "stateMutability": "nonpayable",
      "type": "function"
    },
    {
      "constant": true,
      "inputs": [],
      "name": "oracle",
      "outputs": [
        {
          "name": "",
          "type": "address"
        }
      ],
      "payable": false,
      "stateMutability": "view",
      "type": "function"
    },
    {
      "constant": true,
      "inputs": [],
      "name": "owner",
      "outputs": [
        {
          "name": "",
          "type": "address"
        }
      ],
      "payable": false,
      "stateMutability": "view",
      "type": "function"
    },
    {
      "constant": false,
      "inputs": [
        {
          "name": "_id",
          "type": "uint256"
        },
        {
          "name": "responses",
          "type": "int256[]"
        }
      ],
      "name": "callback",
      "outputs": [],
      "payable": false,
      "stateMutability": "nonpayable",
      "type": "function"
    },
    {
      "constant": true,
      "inputs": [],
      "name": "upEndpoint",
      "outputs": [
        {
          "name": "",
          "type": "bytes32"
        }
      ],
      "payable": false,
      "stateMutability": "view",
      "type": "function"
    },
    {
      "constant": false,
      "inputs": [
        {
          "name": "_coincap",
          "type": "address"
        },
        {
          "name": "_endpoint",
          "type": "bytes32"
        }
      ],
      "name": "queryToSettle",
      "outputs": [
        {
          "name": "",
          "type": "uint256"
        }
      ],
      "payable": false,
      "stateMutability": "nonpayable",
      "type": "function"
    },
    {
      "constant": true,
      "inputs": [],
      "name": "contest",
      "outputs": [
        {
          "name": "",
          "type": "address"
        }
      ],
      "payable": false,
      "stateMutability": "view",
      "type": "function"
    },
    {
      "constant": true,
      "inputs": [],
      "name": "query_id",
      "outputs": [
        {
          "name": "",
          "type": "uint256"
        }
      ],
      "payable": false,
      "stateMutability": "view",
      "type": "function"
    },
    {
      "constant": true,
      "inputs": [],
      "name": "startPrice",
      "outputs": [
        {
          "name": "",
          "type": "uint256"
        }
      ],
      "payable": false,
      "stateMutability": "view",
      "type": "function"
    },
    {
      "constant": false,
      "inputs": [
        {
          "name": "newOwner",
          "type": "address"
        }
      ],
      "name": "transferOwnership",
      "outputs": [],
      "payable": false,
      "stateMutability": "nonpayable",
      "type": "function"
    },
    {
      "inputs": [
        {
          "name": "_cord",
          "type": "address"
        },
        {
          "name": "_contest",
          "type": "address"
        },
        {
          "name": "_startPrice",
          "type": "uint256"
        },
        {
          "name": "_upEndpoint",
          "type": "bytes32"
        },
        {
          "name": "_downEndpoint",
          "type": "bytes32"
        }
      ],
      "payable": false,
      "stateMutability": "nonpayable",
      "type": "constructor"
    },
    {
      "anonymous": false,
      "inputs": [
        {
          "indexed": true,
          "name": "previousOwner",
          "type": "address"
        },
        {
          "indexed": true,
          "name": "newOwner",
          "type": "address"
        }
      ],
      "name": "OwnershipTransferred",
      "type": "event"
    }
  ],
  "bytecode": "0x60806040523480156200001157600080fd5b5060405160a08062001a3e83398101806040528101908080519060200190929190805190602001909291908051906020019092919080519060200190929190805190602001909291905050506000806000336000806101000a81548173ffffffffffffffffffffffffffffffffffffffff021916908373ffffffffffffffffffffffffffffffffffffffff16021790555033600360006101000a81548173ffffffffffffffffffffffffffffffffffffffff021916908373ffffffffffffffffffffffffffffffffffffffff16021790555086600160006101000a81548173ffffffffffffffffffffffffffffffffffffffff021916908373ffffffffffffffffffffffffffffffffffffffff1602179055508560058190555087600260006101000a81548173ffffffffffffffffffffffffffffffffffffffff021916908373ffffffffffffffffffffffffffffffffffffffff160217905550600160009054906101000a900473ffffffffffffffffffffffffffffffffffffffff1673ffffffffffffffffffffffffffffffffffffffff16638ba3dbee866040518263ffffffff167c0100000000000000000000000000000000000000000000000000000000028152600401808260001916600019168152602001915050602060405180830381600087803b1580156200020657600080fd5b505af11580156200021b573d6000803e3d6000fd5b505050506040513d60208110156200023257600080fd5b81019080805190602001909291905050508015620003235750600160009054906101000a900473ffffffffffffffffffffffffffffffffffffffff1673ffffffffffffffffffffffffffffffffffffffff16638ba3dbee856040518263ffffffff167c0100000000000000000000000000000000000000000000000000000000028152600401808260001916600019168152602001915050602060405180830381600087803b158015620002e557600080fd5b505af1158015620002fa573d6000803e3d6000fd5b505050506040513d60208110156200031157600080fd5b81019080805190602001909291905050505b151562000398576040517f08c379a00000000000000000000000000000000000000000000000000000000081526004018080602001828103825260178152602001807f456e64706f696e747320617265206e6f742076616c696400000000000000000081525060200191505060405180910390fd5b84600681600019169055508360078160001916905550600260009054906101000a900473ffffffffffffffffffffffffffffffffffffffff1673ffffffffffffffffffffffffffffffffffffffff1663358177736040518163ffffffff167c01000000000000000000000000000000000000000000000000000000000281526004018080602001828103825260078152602001807f424f4e4441474500000000000000000000000000000000000000000000000000815250602001915050602060405180830381600087803b1580156200047157600080fd5b505af115801562000486573d6000803e3d6000fd5b505050506040513d60208110156200049d57600080fd5b81019080805190602001909291905050509250829150600260009054906101000a900473ffffffffffffffffffffffffffffffffffffffff1673ffffffffffffffffffffffffffffffffffffffff1663358177736040518163ffffffff167c01000000000000000000000000000000000000000000000000000000000281526004018080602001828103825260098152602001807f5a41505f544f4b454e0000000000000000000000000000000000000000000000815250602001915050602060405180830381600087803b1580156200057657600080fd5b505af11580156200058b573d6000803e3d6000fd5b505050506040513d6020811015620005a257600080fd5b810190808051906020019092919050505090508073ffffffffffffffffffffffffffffffffffffffff1663095ea7b3846000196040518363ffffffff167c0100000000000000000000000000000000000000000000000000000000028152600401808373ffffffffffffffffffffffffffffffffffffffff1673ffffffffffffffffffffffffffffffffffffffff16815260200182815260200192505050602060405180830381600087803b1580156200065b57600080fd5b505af115801562000670573d6000803e3d6000fd5b505050506040513d60208110156200068757600080fd5b810190808051906020019092919050505050505050505050505061138d80620006b16000396000f3006080604052600436106100ba576000357c0100000000000000000000000000000000000000000000000000000000900463ffffffff1680630a009097146100bf5780632a0962ba1461011657806374402df7146101495780637dc0d1d0146101bc5780638da5cb5b1461021357806399ff48af1461026a578063d29cb5c5146102af578063db3ddc34146102e2578063e3ac83da14610347578063e7cd81461461039e578063f1a9af89146103c9578063f2fde38b146103f4575b600080fd5b3480156100cb57600080fd5b506100d4610437565b604051808273ffffffffffffffffffffffffffffffffffffffff1673ffffffffffffffffffffffffffffffffffffffff16815260200191505060405180910390f35b34801561012257600080fd5b5061012b61045d565b60405180826000191660001916815260200191505060405180910390f35b34801561015557600080fd5b506101a2600480360381019080803573ffffffffffffffffffffffffffffffffffffffff169060200190929190803560001916906020019092919080359060200190929190505050610463565b604051808215151515815260200191505060405180910390f35b3480156101c857600080fd5b506101d1610767565b604051808273ffffffffffffffffffffffffffffffffffffffff1673ffffffffffffffffffffffffffffffffffffffff16815260200191505060405180910390f35b34801561021f57600080fd5b5061022861078d565b604051808273ffffffffffffffffffffffffffffffffffffffff1673ffffffffffffffffffffffffffffffffffffffff16815260200191505060405180910390f35b34801561027657600080fd5b506102ad600480360381019080803590602001909291908035906020019082018035906020019190919293919293905050506107b2565b005b3480156102bb57600080fd5b506102c4610e3a565b60405180826000191660001916815260200191505060405180910390f35b3480156102ee57600080fd5b50610331600480360381019080803573ffffffffffffffffffffffffffffffffffffffff1690602001909291908035600019169060200190929190505050610e40565b6040518082815260200191505060405180910390f35b34801561035357600080fd5b5061035c6111da565b604051808273ffffffffffffffffffffffffffffffffffffffff1673ffffffffffffffffffffffffffffffffffffffff16815260200191505060405180910390f35b3480156103aa57600080fd5b506103b3611200565b6040518082815260200191505060405180910390f35b3480156103d557600080fd5b506103de611206565b6040518082815260200191505060405180910390f35b34801561040057600080fd5b50610435600480360381019080803573ffffffffffffffffffffffffffffffffffffffff16906020019092919050505061120c565b005b600260009054906101000a900473ffffffffffffffffffffffffffffffffffffffff1681565b60075481565b600080600080600260009054906101000a900473ffffffffffffffffffffffffffffffffffffffff1673ffffffffffffffffffffffffffffffffffffffff1663358177736040518163ffffffff167c01000000000000000000000000000000000000000000000000000000000281526004018080602001828103825260078152602001807f424f4e4441474500000000000000000000000000000000000000000000000000815250602001915050602060405180830381600087803b15801561052b57600080fd5b505af115801561053f573d6000803e3d6000fd5b505050506040513d602081101561055557600080fd5b81019080805190602001909291905050509250829150600260009054906101000a900473ffffffffffffffffffffffffffffffffffffffff1673ffffffffffffffffffffffffffffffffffffffff1663358177736040518163ffffffff167c01000000000000000000000000000000000000000000000000000000000281526004018080602001828103825260098152602001807f5a41505f544f4b454e0000000000000000000000000000000000000000000000815250602001915050602060405180830381600087803b15801561062d57600080fd5b505af1158015610641573d6000803e3d6000fd5b505050506040513d602081101561065757600080fd5b810190808051906020019092919050505090508173ffffffffffffffffffffffffffffffffffffffff166399275cc78888886040518463ffffffff167c0100000000000000000000000000000000000000000000000000000000028152600401808473ffffffffffffffffffffffffffffffffffffffff1673ffffffffffffffffffffffffffffffffffffffff16815260200183600019166000191681526020018281526020019350505050602060405180830381600087803b15801561071d57600080fd5b505af1158015610731573d6000803e3d6000fd5b505050506040513d602081101561074757600080fd5b810190808051906020019092919050505050600193505050509392505050565b600360009054906101000a900473ffffffffffffffffffffffffffffffffffffffff1681565b6000809054906101000a900473ffffffffffffffffffffffffffffffffffffffff1681565b60008060606000600260009054906101000a900473ffffffffffffffffffffffffffffffffffffffff1673ffffffffffffffffffffffffffffffffffffffff1663358177736040518163ffffffff167c01000000000000000000000000000000000000000000000000000000000281526004018080602001828103825260088152602001807f4449535041544348000000000000000000000000000000000000000000000000815250602001915050602060405180830381600087803b15801561087b57600080fd5b505af115801561088f573d6000803e3d6000fd5b505050506040513d60208110156108a557600080fd5b810190808051906020019092919050505093508373ffffffffffffffffffffffffffffffffffffffff163373ffffffffffffffffffffffffffffffffffffffff16141515610981576040517f08c379a00000000000000000000000000000000000000000000000000000000081526004018080602001828103825260228152602001807f4f6e6c792061636365707420726573706f6e73652066726f6d2064697370617481526020017f636800000000000000000000000000000000000000000000000000000000000081525060400191505060405180910390fd5b60018060009054906101000a900473ffffffffffffffffffffffffffffffffffffffff1673ffffffffffffffffffffffffffffffffffffffff16634e69d5606040518163ffffffff167c0100000000000000000000000000000000000000000000000000000000028152600401602060405180830381600087803b158015610a0857600080fd5b505af1158015610a1c573d6000803e3d6000fd5b505050506040513d6020811015610a3257600080fd5b8101908080519060200190929190505050141515610ade576040517f08c379a00000000000000000000000000000000000000000000000000000000081526004018080602001828103825260238152602001807f436f6e74657374206973206e6f7420696e20696e697469616c697a656420737481526020017f617465000000000000000000000000000000000000000000000000000000000081525060400191505060405180910390fd5b858560008181101515610aed57fe5b905060200201359250600160009054906101000a900473ffffffffffffffffffffffffffffffffffffffff1673ffffffffffffffffffffffffffffffffffffffff16635d7c83f16040518163ffffffff167c0100000000000000000000000000000000000000000000000000000000028152600401600060405180830381600087803b158015610b7c57600080fd5b505af1158015610b90573d6000803e3d6000fd5b505050506040513d6000823e3d601f19601f820116820180604052506020811015610bba57600080fd5b810190808051640100000000811115610bd257600080fd5b82810190506020810184811115610be857600080fd5b8151856020820283011164010000000082111715610c0557600080fd5b50509291905050509150600090505b8151811015610e3057600654600019168282815181101515610c3257fe5b9060200190602002015160001916148015610c4e575060055483115b15610d2057600160009054906101000a900473ffffffffffffffffffffffffffffffffffffffff1673ffffffffffffffffffffffffffffffffffffffff1663e41031438383815181101515610c9f57fe5b906020019060200201516040518263ffffffff167c0100000000000000000000000000000000000000000000000000000000028152600401808260001916600019168152602001915050600060405180830381600087803b158015610d0357600080fd5b505af1158015610d17573d6000803e3d6000fd5b50505050610e31565b600754600019168282815181101515610d3557fe5b9060200190602002015160001916148015610d51575060055483105b15610e2357600160009054906101000a900473ffffffffffffffffffffffffffffffffffffffff1673ffffffffffffffffffffffffffffffffffffffff1663e41031438383815181101515610da257fe5b906020019060200201516040518263ffffffff167c0100000000000000000000000000000000000000000000000000000000028152600401808260001916600019168152602001915050600060405180830381600087803b158015610e0657600080fd5b505af1158015610e1a573d6000803e3d6000fd5b50505050610e31565b8080600101915050610c14565b5b50505050505050565b60065481565b60008060006060600360009054906101000a900473ffffffffffffffffffffffffffffffffffffffff1673ffffffffffffffffffffffffffffffffffffffff163373ffffffffffffffffffffffffffffffffffffffff16141515610f32576040517f08c379a000000000000000000000000000000000000000000000000000000000815260040180806020018281038252602a8152602001807f4f6e6c79204f7261636c65206f776e65722063616e2063616c6c20717565727981526020017f20746f20736574746c650000000000000000000000000000000000000000000081525060400191505060405180910390fd5b600260009054906101000a900473ffffffffffffffffffffffffffffffffffffffff1673ffffffffffffffffffffffffffffffffffffffff1663358177736040518163ffffffff167c01000000000000000000000000000000000000000000000000000000000281526004018080602001828103825260088152602001807f4449535041544348000000000000000000000000000000000000000000000000815250602001915050602060405180830381600087803b158015610ff457600080fd5b505af1158015611008573d6000803e3d6000fd5b505050506040513d602081101561101e57600080fd5b8101908080519060200190929190505050925082915060006040519080825280602002602001820160405280156110645781602001602082028038833980820191505090505b5090508173ffffffffffffffffffffffffffffffffffffffff16637de7cc668787846040518463ffffffff167c0100000000000000000000000000000000000000000000000000000000028152600401808473ffffffffffffffffffffffffffffffffffffffff1673ffffffffffffffffffffffffffffffffffffffff16815260200180602001846000191660001916815260200180602001838103835260038152602001807f4254430000000000000000000000000000000000000000000000000000000000815250602001838103825284818151815260200191508051906020019060200280838360005b8381101561116c578082015181840152602081019050611151565b5050505090500195505050505050602060405180830381600087803b15801561119457600080fd5b505af11580156111a8573d6000803e3d6000fd5b505050506040513d60208110156111be57600080fd5b8101908080519060200190929190505050935050505092915050565b600160009054906101000a900473ffffffffffffffffffffffffffffffffffffffff1681565b60045481565b60055481565b6000809054906101000a900473ffffffffffffffffffffffffffffffffffffffff1673ffffffffffffffffffffffffffffffffffffffff163373ffffffffffffffffffffffffffffffffffffffff1614151561126757600080fd5b600073ffffffffffffffffffffffffffffffffffffffff168173ffffffffffffffffffffffffffffffffffffffff16141515156112a357600080fd5b8073ffffffffffffffffffffffffffffffffffffffff166000809054906101000a900473ffffffffffffffffffffffffffffffffffffffff1673ffffffffffffffffffffffffffffffffffffffff167f8be0079c531659141344cd1fd0a4f28419497f9722a3daafe3b4186f6b6457e060405160405180910390a3806000806101000a81548173ffffffffffffffffffffffffffffffffffffffff021916908373ffffffffffffffffffffffffffffffffffffffff160217905550505600a165627a7a72305820e8d38fbc5e16117cb3bab320db37b4e07416567e7a322e7ef29fa72775111dde0029",
  "linkReferences": {},
  "deployedLinkReferences": {}
}