{
  "_format": "hh-sol-artifact-1",
  "contractName": "DAOfiV1Router01",
  "sourceName": "contracts/DAOfiV1Router01.sol",
  "abi": [
    {
      "inputs": [
        {
          "internalType": "address",
          "name": "_factory",
          "type": "address"
        },
        {
          "internalType": "address",
          "name": "_WETH",
          "type": "address"
        }
      ],
      "stateMutability": "nonpayable",
      "type": "constructor"
    },
    {
      "inputs": [],
      "name": "WETH",
      "outputs": [
        {
          "internalType": "address",
          "name": "",
          "type": "address"
        }
      ],
      "stateMutability": "view",
      "type": "function"
    },
    {
      "inputs": [
        {
          "components": [
            {
              "internalType": "address",
              "name": "sender",
              "type": "address"
            },
            {
              "internalType": "address",
              "name": "to",
              "type": "address"
            },
            {
              "internalType": "address",
              "name": "tokenBase",
              "type": "address"
            },
            {
              "internalType": "address",
              "name": "tokenQuote",
              "type": "address"
            },
            {
              "internalType": "uint256",
              "name": "amountBase",
              "type": "uint256"
            },
            {
              "internalType": "uint256",
              "name": "amountQuote",
              "type": "uint256"
            },
            {
              "internalType": "uint32",
              "name": "slopeNumerator",
              "type": "uint32"
            },
            {
              "internalType": "uint32",
              "name": "n",
              "type": "uint32"
            },
            {
              "internalType": "uint32",
              "name": "fee",
              "type": "uint32"
            }
          ],
          "internalType": "struct IDAOfiV1Router01.LiquidityParams",
          "name": "lp",
          "type": "tuple"
        },
        {
          "internalType": "uint256",
          "name": "deadline",
          "type": "uint256"
        }
      ],
      "name": "addLiquidity",
      "outputs": [
        {
          "internalType": "uint256",
          "name": "amountBase",
          "type": "uint256"
        }
      ],
      "stateMutability": "nonpayable",
      "type": "function"
    },
    {
      "inputs": [
        {
          "components": [
            {
              "internalType": "address",
              "name": "sender",
              "type": "address"
            },
            {
              "internalType": "address",
              "name": "to",
              "type": "address"
            },
            {
              "internalType": "address",
              "name": "tokenBase",
              "type": "address"
            },
            {
              "internalType": "address",
              "name": "tokenQuote",
              "type": "address"
            },
            {
              "internalType": "uint256",
              "name": "amountBase",
              "type": "uint256"
            },
            {
              "internalType": "uint256",
              "name": "amountQuote",
              "type": "uint256"
            },
            {
              "internalType": "uint32",
              "name": "slopeNumerator",
              "type": "uint32"
            },
            {
              "internalType": "uint32",
              "name": "n",
              "type": "uint32"
            },
            {
              "internalType": "uint32",
              "name": "fee",
              "type": "uint32"
            }
          ],
          "internalType": "struct IDAOfiV1Router01.LiquidityParams",
          "name": "lp",
          "type": "tuple"
        },
        {
          "internalType": "uint256",
          "name": "deadline",
          "type": "uint256"
        }
      ],
      "name": "addLiquidityETH",
      "outputs": [
        {
          "internalType": "uint256",
          "name": "amountBase",
          "type": "uint256"
        }
      ],
      "stateMutability": "payable",
      "type": "function"
    },
    {
      "inputs": [],
      "name": "factory",
      "outputs": [
        {
          "internalType": "address",
          "name": "",
          "type": "address"
        }
      ],
      "stateMutability": "view",
      "type": "function"
    },
    {
      "inputs": [
        {
          "internalType": "uint256",
          "name": "amountQuoteIn",
          "type": "uint256"
        },
        {
          "internalType": "address",
          "name": "tokenBase",
          "type": "address"
        },
        {
          "internalType": "address",
          "name": "tokenQuote",
          "type": "address"
        },
        {
          "internalType": "uint32",
          "name": "slopeNumerator",
          "type": "uint32"
        },
        {
          "internalType": "uint32",
          "name": "n",
          "type": "uint32"
        },
        {
          "internalType": "uint32",
          "name": "fee",
          "type": "uint32"
        }
      ],
      "name": "getBaseOut",
      "outputs": [
        {
          "internalType": "uint256",
          "name": "amountBaseOut",
          "type": "uint256"
        }
      ],
      "stateMutability": "view",
      "type": "function"
    },
    {
      "inputs": [
        {
          "internalType": "uint256",
          "name": "amountBaseIn",
          "type": "uint256"
        },
        {
          "internalType": "address",
          "name": "tokenBase",
          "type": "address"
        },
        {
          "internalType": "address",
          "name": "tokenQuote",
          "type": "address"
        },
        {
          "internalType": "uint32",
          "name": "slopeNumerator",
          "type": "uint32"
        },
        {
          "internalType": "uint32",
          "name": "n",
          "type": "uint32"
        },
        {
          "internalType": "uint32",
          "name": "fee",
          "type": "uint32"
        }
      ],
      "name": "getQuoteOut",
      "outputs": [
        {
          "internalType": "uint256",
          "name": "amountQuoteOut",
          "type": "uint256"
        }
      ],
      "stateMutability": "view",
      "type": "function"
    },
    {
      "inputs": [
        {
          "internalType": "address",
          "name": "tokenBase",
          "type": "address"
        },
        {
          "internalType": "address",
          "name": "tokenQuote",
          "type": "address"
        },
        {
          "internalType": "uint32",
          "name": "slopeNumerator",
          "type": "uint32"
        },
        {
          "internalType": "uint32",
          "name": "n",
          "type": "uint32"
        },
        {
          "internalType": "uint32",
          "name": "fee",
          "type": "uint32"
        }
      ],
      "name": "price",
      "outputs": [
        {
          "internalType": "uint256",
          "name": "quotePrice",
          "type": "uint256"
        }
      ],
      "stateMutability": "view",
      "type": "function"
    },
    {
      "inputs": [
        {
          "components": [
            {
              "internalType": "address",
              "name": "sender",
              "type": "address"
            },
            {
              "internalType": "address",
              "name": "to",
              "type": "address"
            },
            {
              "internalType": "address",
              "name": "tokenBase",
              "type": "address"
            },
            {
              "internalType": "address",
              "name": "tokenQuote",
              "type": "address"
            },
            {
              "internalType": "uint256",
              "name": "amountBase",
              "type": "uint256"
            },
            {
              "internalType": "uint256",
              "name": "amountQuote",
              "type": "uint256"
            },
            {
              "internalType": "uint32",
              "name": "slopeNumerator",
              "type": "uint32"
            },
            {
              "internalType": "uint32",
              "name": "n",
              "type": "uint32"
            },
            {
              "internalType": "uint32",
              "name": "fee",
              "type": "uint32"
            }
          ],
          "internalType": "struct IDAOfiV1Router01.LiquidityParams",
          "name": "lp",
          "type": "tuple"
        },
        {
          "internalType": "uint256",
          "name": "deadline",
          "type": "uint256"
        }
      ],
      "name": "removeLiquidity",
      "outputs": [
        {
          "internalType": "uint256",
          "name": "amountBase",
          "type": "uint256"
        },
        {
          "internalType": "uint256",
          "name": "amountQuote",
          "type": "uint256"
        }
      ],
      "stateMutability": "nonpayable",
      "type": "function"
    },
    {
      "inputs": [
        {
          "components": [
            {
              "internalType": "address",
              "name": "sender",
              "type": "address"
            },
            {
              "internalType": "address",
              "name": "to",
              "type": "address"
            },
            {
              "internalType": "address",
              "name": "tokenBase",
              "type": "address"
            },
            {
              "internalType": "address",
              "name": "tokenQuote",
              "type": "address"
            },
            {
              "internalType": "uint256",
              "name": "amountBase",
              "type": "uint256"
            },
            {
              "internalType": "uint256",
              "name": "amountQuote",
              "type": "uint256"
            },
            {
              "internalType": "uint32",
              "name": "slopeNumerator",
              "type": "uint32"
            },
            {
              "internalType": "uint32",
              "name": "n",
              "type": "uint32"
            },
            {
              "internalType": "uint32",
              "name": "fee",
              "type": "uint32"
            }
          ],
          "internalType": "struct IDAOfiV1Router01.LiquidityParams",
          "name": "lp",
          "type": "tuple"
        },
        {
          "internalType": "uint256",
          "name": "deadline",
          "type": "uint256"
        }
      ],
      "name": "removeLiquidityETH",
      "outputs": [
        {
          "internalType": "uint256",
          "name": "amountToken",
          "type": "uint256"
        },
        {
          "internalType": "uint256",
          "name": "amountETH",
          "type": "uint256"
        }
      ],
      "stateMutability": "nonpayable",
      "type": "function"
    },
    {
      "inputs": [
        {
          "components": [
            {
              "internalType": "address",
              "name": "sender",
              "type": "address"
            },
            {
              "internalType": "address",
              "name": "to",
              "type": "address"
            },
            {
              "internalType": "address",
              "name": "tokenIn",
              "type": "address"
            },
            {
              "internalType": "address",
              "name": "tokenOut",
              "type": "address"
            },
            {
              "internalType": "uint256",
              "name": "amountIn",
              "type": "uint256"
            },
            {
              "internalType": "uint256",
              "name": "amountOut",
              "type": "uint256"
            },
            {
              "internalType": "address",
              "name": "tokenBase",
              "type": "address"
            },
            {
              "internalType": "address",
              "name": "tokenQuote",
              "type": "address"
            },
            {
              "internalType": "uint32",
              "name": "slopeNumerator",
              "type": "uint32"
            },
            {
              "internalType": "uint32",
              "name": "n",
              "type": "uint32"
            },
            {
              "internalType": "uint32",
              "name": "fee",
              "type": "uint32"
            }
          ],
          "internalType": "struct IDAOfiV1Router01.SwapParams",
          "name": "sp",
          "type": "tuple"
        },
        {
          "internalType": "uint256",
          "name": "deadline",
          "type": "uint256"
        }
      ],
      "name": "swapExactETHForTokens",
      "outputs": [],
      "stateMutability": "payable",
      "type": "function"
    },
    {
      "inputs": [
        {
          "components": [
            {
              "internalType": "address",
              "name": "sender",
              "type": "address"
            },
            {
              "internalType": "address",
              "name": "to",
              "type": "address"
            },
            {
              "internalType": "address",
              "name": "tokenIn",
              "type": "address"
            },
            {
              "internalType": "address",
              "name": "tokenOut",
              "type": "address"
            },
            {
              "internalType": "uint256",
              "name": "amountIn",
              "type": "uint256"
            },
            {
              "internalType": "uint256",
              "name": "amountOut",
              "type": "uint256"
            },
            {
              "internalType": "address",
              "name": "tokenBase",
              "type": "address"
            },
            {
              "internalType": "address",
              "name": "tokenQuote",
              "type": "address"
            },
            {
              "internalType": "uint32",
              "name": "slopeNumerator",
              "type": "uint32"
            },
            {
              "internalType": "uint32",
              "name": "n",
              "type": "uint32"
            },
            {
              "internalType": "uint32",
              "name": "fee",
              "type": "uint32"
            }
          ],
          "internalType": "struct IDAOfiV1Router01.SwapParams",
          "name": "sp",
          "type": "tuple"
        },
        {
          "internalType": "uint256",
          "name": "deadline",
          "type": "uint256"
        }
      ],
      "name": "swapExactTokensForETH",
      "outputs": [],
      "stateMutability": "nonpayable",
      "type": "function"
    },
    {
      "inputs": [
        {
          "components": [
            {
              "internalType": "address",
              "name": "sender",
              "type": "address"
            },
            {
              "internalType": "address",
              "name": "to",
              "type": "address"
            },
            {
              "internalType": "address",
              "name": "tokenIn",
              "type": "address"
            },
            {
              "internalType": "address",
              "name": "tokenOut",
              "type": "address"
            },
            {
              "internalType": "uint256",
              "name": "amountIn",
              "type": "uint256"
            },
            {
              "internalType": "uint256",
              "name": "amountOut",
              "type": "uint256"
            },
            {
              "internalType": "address",
              "name": "tokenBase",
              "type": "address"
            },
            {
              "internalType": "address",
              "name": "tokenQuote",
              "type": "address"
            },
            {
              "internalType": "uint32",
              "name": "slopeNumerator",
              "type": "uint32"
            },
            {
              "internalType": "uint32",
              "name": "n",
              "type": "uint32"
            },
            {
              "internalType": "uint32",
              "name": "fee",
              "type": "uint32"
            }
          ],
          "internalType": "struct IDAOfiV1Router01.SwapParams",
          "name": "sp",
          "type": "tuple"
        },
        {
          "internalType": "uint256",
          "name": "deadline",
          "type": "uint256"
        }
      ],
      "name": "swapExactTokensForTokens",
      "outputs": [],
      "stateMutability": "nonpayable",
      "type": "function"
    },
    {
      "stateMutability": "payable",
      "type": "receive"
    }
  ],
  "bytecode": "0x60c06040523480156200001157600080fd5b50604051620050d2380380620050d28339818101604052810190620000379190620001aa565b600073ffffffffffffffffffffffffffffffffffffffff168273ffffffffffffffffffffffffffffffffffffffff161415620000aa576040517f08c379a0000000000000000000000000000000000000000000000000000000008152600401620000a190620002dd565b60405180910390fd5b600073ffffffffffffffffffffffffffffffffffffffff168173ffffffffffffffffffffffffffffffffffffffff1614156200011d576040517f08c379a00000000000000000000000000000000000000000000000000000000081526004016200011490620002bb565b60405180910390fd5b8173ffffffffffffffffffffffffffffffffffffffff1660808173ffffffffffffffffffffffffffffffffffffffff1660601b815250508073ffffffffffffffffffffffffffffffffffffffff1660a08173ffffffffffffffffffffffffffffffffffffffff1660601b8152505050506200035e565b600081519050620001a48162000344565b92915050565b60008060408385031215620001be57600080fd5b6000620001ce8582860162000193565b9250506020620001e18582860162000193565b9150509250929050565b6000620001fa602383620002ff565b91507f44414f66695631526f757465723a20494e56414c49442057455448204144445260008301527f45535300000000000000000000000000000000000000000000000000000000006020830152604082019050919050565b600062000262602683620002ff565b91507f44414f66695631526f757465723a20494e56414c494420464143544f5259204160008301527f44445245535300000000000000000000000000000000000000000000000000006020830152604082019050919050565b60006020820190508181036000830152620002d681620001eb565b9050919050565b60006020820190508181036000830152620002f88162000253565b9050919050565b600082825260208201905092915050565b60006200031d8262000324565b9050919050565b600073ffffffffffffffffffffffffffffffffffffffff82169050919050565b6200034f8162000310565b81146200035b57600080fd5b50565b60805160601c60a05160601c614ca66200042c6000398060b2528061124952806112e9528061143c52806119f45280611a705280611b705280611fc8528061225e52806127595280612acf5280612b6f5280612c9e5280612d1f528061301752806135d65280613747528061385152806138d5528061395a5250806103bb528061138e5280611c295280611d285280611f94528061236c52806124ce52806125e6528061278352806128f85280612a675280612c14528061358752806136f7528061381d5250614ca66000f3fe6080604052600436106100ab5760003560e01c8063ad5c464811610064578063ad5c464814610254578063bfee05041461027f578063c19e9a7c146102bc578063c45a0155146102f9578063d591ba8314610324578063ddbaa6131461034057610107565b80630627a1211461010c5780632357b7be1461013557806342f8540c1461015e5780635707b2011461019b57806368db681a146101d95780637b4c493f1461021757610107565b36610107577f000000000000000000000000000000000000000000000000000000000000000073ffffffffffffffffffffffffffffffffffffffff163373ffffffffffffffffffffffffffffffffffffffff161461010557fe5b005b600080fd5b34801561011857600080fd5b50610133600480360381019061012e919061414f565b610370565b005b34801561014157600080fd5b5061015c6004803603810190610157919061414f565b611203565b005b34801561016a57600080fd5b5061018560048036038101906101809190614071565b611c22565b6040516101929190614a57565b60405180910390f35b3480156101a757600080fd5b506101c260048036038101906101bd9190614111565b611cda565b6040516101d0929190614a72565b60405180910390f35b3480156101e557600080fd5b5061020060048036038101906101fb9190614111565b611f46565b60405161020e929190614a72565b60405180910390f35b34801561022357600080fd5b5061023e60048036038101906102399190614111565b61230c565b60405161024b9190614a57565b60405180910390f35b34801561026057600080fd5b50610269612757565b6040516102769190614770565b60405180910390f35b34801561028b57600080fd5b506102a660048036038101906102a191906141b6565b61277b565b6040516102b39190614a57565b60405180910390f35b3480156102c857600080fd5b506102e360048036038101906102de91906141b6565b6128f0565b6040516102f09190614a57565b60405180910390f35b34801561030557600080fd5b5061030e612a65565b60405161031b9190614770565b60405180910390f35b61033e6004803603810190610339919061414f565b612a89565b005b61035a60048036038101906103559190614111565b613527565b6040516103679190614a57565b60405180910390f35b80428110156103b4576040517f08c379a00000000000000000000000000000000000000000000000000000000081526004016103ab906149f7565b60405180910390fd5b60006104417f00000000000000000000000000000000000000000000000000000000000000008560c00160208101906103ed919061401f565b8660e0016020810190610400919061401f565b87610100016020810190610414919061427b565b88610120016020810190610428919061427b565b8961014001602081019061043c919061427b565b613ad3565b9050610465846040016020810190610459919061401f565b33838760800135613b3b565b600084606001602081019061047a919061401f565b73ffffffffffffffffffffffffffffffffffffffff166370a082318660200160208101906104a8919061401f565b6040518263ffffffff1660e01b81526004016104c49190614770565b60206040518083038186803b1580156104dc57600080fd5b505afa1580156104f0573d6000803e3d6000fd5b505050506040513d601f19601f82011682018060405250810190610514919061418d565b9050846060016020810190610529919061401f565b73ffffffffffffffffffffffffffffffffffffffff168273ffffffffffffffffffffffffffffffffffffffff1663c55dae636040518163ffffffff1660e01b815260040160206040518083038186803b15801561058557600080fd5b505afa158015610599573d6000803e3d6000fd5b505050506040513d601f19601f820116820180604052508101906105bd9190614048565b73ffffffffffffffffffffffffffffffffffffffff161415610b6a5760008273ffffffffffffffffffffffffffffffffffffffff16630902f1ac6040518163ffffffff1660e01b8152600401604080518083038186803b15801561062057600080fd5b505afa158015610634573d6000803e3d6000fd5b505050506040513d601f19601f82011682018060405250810190610658919061423f565b91505060008373ffffffffffffffffffffffffffffffffffffffff1663552372006040518163ffffffff1660e01b8152600401604080518083038186803b1580156106a257600080fd5b505afa1580156106b6573d6000803e3d6000fd5b505050506040513d601f19601f820116820180604052508101906106da919061423f565b91505060008473ffffffffffffffffffffffffffffffffffffffff16639dade07d6040518163ffffffff1660e01b8152600401604080518083038186803b15801561072457600080fd5b505afa158015610738573d6000803e3d6000fd5b505050506040513d601f19601f8201168201806040525081019061075c919061423f565b91505060006108328261082485610816888e6040016020810190610780919061401f565b73ffffffffffffffffffffffffffffffffffffffff166370a082318d6040518263ffffffff1660e01b81526004016107b89190614770565b60206040518083038186803b1580156107d057600080fd5b505afa1580156107e4573d6000803e3d6000fd5b505050506040513d601f19601f82011682018060405250810190610808919061418d565b613d2090919063ffffffff16565b613d2090919063ffffffff16565b613d2090919063ffffffff16565b90506000610ab5828873ffffffffffffffffffffffffffffffffffffffff1663c55dae636040518163ffffffff1660e01b815260040160206040518083038186803b15801561088057600080fd5b505afa158015610894573d6000803e3d6000fd5b505050506040513d601f19601f820116820180604052508101906108b89190614048565b8973ffffffffffffffffffffffffffffffffffffffff1663217a4b706040518163ffffffff1660e01b815260040160206040518083038186803b1580156108fe57600080fd5b505afa158015610912573d6000803e3d6000fd5b505050506040513d601f19601f820116820180604052508101906109369190614048565b8a73ffffffffffffffffffffffffffffffffffffffff166321800fc36040518163ffffffff1660e01b815260040160206040518083038186803b15801561097c57600080fd5b505afa158015610990573d6000803e3d6000fd5b505050506040513d601f19601f820116820180604052508101906109b491906142a4565b8b73ffffffffffffffffffffffffffffffffffffffff16632e52d6066040518163ffffffff1660e01b815260040160206040518083038186803b1580156109fa57600080fd5b505afa158015610a0e573d6000803e3d6000fd5b505050506040513d601f19601f82011682018060405250810190610a3291906142a4565b8c73ffffffffffffffffffffffffffffffffffffffff1663ddca3f436040518163ffffffff1660e01b815260040160206040518083038186803b158015610a7857600080fd5b505afa158015610a8c573d6000803e3d6000fd5b505050506040513d601f19601f82011682018060405250810190610ab091906142a4565b6128f0565b90508673ffffffffffffffffffffffffffffffffffffffff1663d5bcb9b58b6040016020810190610ae6919061401f565b8c6060016020810190610af9919061401f565b85858f6020016020810190610b0e919061401f565b6040518663ffffffff1660e01b8152600401610b2e959493929190614815565b600060405180830381600087803b158015610b4857600080fd5b505af1158015610b5c573d6000803e3d6000fd5b5050505050505050506110f7565b60008273ffffffffffffffffffffffffffffffffffffffff16630902f1ac6040518163ffffffff1660e01b8152600401604080518083038186803b158015610bb157600080fd5b505afa158015610bc5573d6000803e3d6000fd5b505050506040513d601f19601f82011682018060405250810190610be9919061423f565b50905060008373ffffffffffffffffffffffffffffffffffffffff1663552372006040518163ffffffff1660e01b8152600401604080518083038186803b158015610c3357600080fd5b505afa158015610c47573d6000803e3d6000fd5b505050506040513d601f19601f82011682018060405250810190610c6b919061423f565b50905060008473ffffffffffffffffffffffffffffffffffffffff16639dade07d6040518163ffffffff1660e01b8152600401604080518083038186803b158015610cb557600080fd5b505afa158015610cc9573d6000803e3d6000fd5b505050506040513d601f19601f82011682018060405250810190610ced919061423f565b5090506000610dc382610db585610da7888e6040016020810190610d11919061401f565b73ffffffffffffffffffffffffffffffffffffffff166370a082318d6040518263ffffffff1660e01b8152600401610d499190614770565b60206040518083038186803b158015610d6157600080fd5b505afa158015610d75573d6000803e3d6000fd5b505050506040513d601f19601f82011682018060405250810190610d99919061418d565b613d2090919063ffffffff16565b613d2090919063ffffffff16565b613d2090919063ffffffff16565b90506000611046828873ffffffffffffffffffffffffffffffffffffffff1663c55dae636040518163ffffffff1660e01b815260040160206040518083038186803b158015610e1157600080fd5b505afa158015610e25573d6000803e3d6000fd5b505050506040513d601f19601f82011682018060405250810190610e499190614048565b8973ffffffffffffffffffffffffffffffffffffffff1663217a4b706040518163ffffffff1660e01b815260040160206040518083038186803b158015610e8f57600080fd5b505afa158015610ea3573d6000803e3d6000fd5b505050506040513d601f19601f82011682018060405250810190610ec79190614048565b8a73ffffffffffffffffffffffffffffffffffffffff166321800fc36040518163ffffffff1660e01b815260040160206040518083038186803b158015610f0d57600080fd5b505afa158015610f21573d6000803e3d6000fd5b505050506040513d601f19601f82011682018060405250810190610f4591906142a4565b8b73ffffffffffffffffffffffffffffffffffffffff16632e52d6066040518163ffffffff1660e01b815260040160206040518083038186803b158015610f8b57600080fd5b505afa158015610f9f573d6000803e3d6000fd5b505050506040513d601f19601f82011682018060405250810190610fc391906142a4565b8c73ffffffffffffffffffffffffffffffffffffffff1663ddca3f436040518163ffffffff1660e01b815260040160206040518083038186803b15801561100957600080fd5b505afa15801561101d573d6000803e3d6000fd5b505050506040513d601f19601f8201168201806040525081019061104191906142a4565b61277b565b90508673ffffffffffffffffffffffffffffffffffffffff1663d5bcb9b58b6040016020810190611077919061401f565b8c606001602081019061108a919061401f565b85858f602001602081019061109f919061401f565b6040518663ffffffff1660e01b81526004016110bf959493929190614815565b600060405180830381600087803b1580156110d957600080fd5b505af11580156110ed573d6000803e3d6000fd5b5050505050505050505b8460a001356111bb82876060016020810190611113919061401f565b73ffffffffffffffffffffffffffffffffffffffff166370a08231896020016020810190611141919061401f565b6040518263ffffffff1660e01b815260040161115d9190614770565b60206040518083038186803b15801561117557600080fd5b505afa158015611189573d6000803e3d6000fd5b505050506040513d601f19601f820116820180604052508101906111ad919061418d565b613d2090919063ffffffff16565b10156111fc576040517f08c379a00000000000000000000000000000000000000000000000000000000081526004016111f390614957565b60405180910390fd5b5050505050565b8042811015611247576040517f08c379a000000000000000000000000000000000000000000000000000000000815260040161123e906149f7565b60405180910390fd5b7f000000000000000000000000000000000000000000000000000000000000000073ffffffffffffffffffffffffffffffffffffffff168360e0016020810190611291919061401f565b73ffffffffffffffffffffffffffffffffffffffff16146112e7576040517f08c379a00000000000000000000000000000000000000000000000000000000081526004016112de906149b7565b60405180910390fd5b7f000000000000000000000000000000000000000000000000000000000000000073ffffffffffffffffffffffffffffffffffffffff16836060016020810190611331919061401f565b73ffffffffffffffffffffffffffffffffffffffff1614611387576040517f08c379a000000000000000000000000000000000000000000000000000000000815260040161137e90614937565b60405180910390fd5b60006114147f00000000000000000000000000000000000000000000000000000000000000008560c00160208101906113c0919061401f565b8660e00160208101906113d3919061401f565b876101000160208101906113e7919061427b565b886101200160208101906113fb919061427b565b8961014001602081019061140f919061427b565b613ad3565b905061143884604001602081019061142c919061401f565b33838760800135613b3b565b60007f000000000000000000000000000000000000000000000000000000000000000073ffffffffffffffffffffffffffffffffffffffff166370a08231306040518263ffffffff1660e01b8152600401611493919061478b565b60206040518083038186803b1580156114ab57600080fd5b505afa1580156114bf573d6000803e3d6000fd5b505050506040513d601f19601f820116820180604052508101906114e3919061418d565b905060008273ffffffffffffffffffffffffffffffffffffffff16630902f1ac6040518163ffffffff1660e01b8152600401604080518083038186803b15801561152c57600080fd5b505afa158015611540573d6000803e3d6000fd5b505050506040513d601f19601f82011682018060405250810190611564919061423f565b50905060008373ffffffffffffffffffffffffffffffffffffffff1663552372006040518163ffffffff1660e01b8152600401604080518083038186803b1580156115ae57600080fd5b505afa1580156115c2573d6000803e3d6000fd5b505050506040513d601f19601f820116820180604052508101906115e6919061423f565b50905060008473ffffffffffffffffffffffffffffffffffffffff16639dade07d6040518163ffffffff1660e01b8152600401604080518083038186803b15801561163057600080fd5b505afa158015611644573d6000803e3d6000fd5b505050506040513d601f19601f82011682018060405250810190611668919061423f565b509050600061173e8261173085611722888e604001602081019061168c919061401f565b73ffffffffffffffffffffffffffffffffffffffff166370a082318d6040518263ffffffff1660e01b81526004016116c49190614770565b60206040518083038186803b1580156116dc57600080fd5b505afa1580156116f0573d6000803e3d6000fd5b505050506040513d601f19601f82011682018060405250810190611714919061418d565b613d2090919063ffffffff16565b613d2090919063ffffffff16565b613d2090919063ffffffff16565b905060006119c1828873ffffffffffffffffffffffffffffffffffffffff1663c55dae636040518163ffffffff1660e01b815260040160206040518083038186803b15801561178c57600080fd5b505afa1580156117a0573d6000803e3d6000fd5b505050506040513d601f19601f820116820180604052508101906117c49190614048565b8973ffffffffffffffffffffffffffffffffffffffff1663217a4b706040518163ffffffff1660e01b815260040160206040518083038186803b15801561180a57600080fd5b505afa15801561181e573d6000803e3d6000fd5b505050506040513d601f19601f820116820180604052508101906118429190614048565b8a73ffffffffffffffffffffffffffffffffffffffff166321800fc36040518163ffffffff1660e01b815260040160206040518083038186803b15801561188857600080fd5b505afa15801561189c573d6000803e3d6000fd5b505050506040513d601f19601f820116820180604052508101906118c091906142a4565b8b73ffffffffffffffffffffffffffffffffffffffff16632e52d6066040518163ffffffff1660e01b815260040160206040518083038186803b15801561190657600080fd5b505afa15801561191a573d6000803e3d6000fd5b505050506040513d601f19601f8201168201806040525081019061193e91906142a4565b8c73ffffffffffffffffffffffffffffffffffffffff1663ddca3f436040518163ffffffff1660e01b815260040160206040518083038186803b15801561198457600080fd5b505afa158015611998573d6000803e3d6000fd5b505050506040513d601f19601f820116820180604052508101906119bc91906142a4565b61277b565b90508673ffffffffffffffffffffffffffffffffffffffff1663d5bcb9b58b60400160208101906119f2919061401f565b7f00000000000000000000000000000000000000000000000000000000000000008585306040518663ffffffff1660e01b8152600401611a36959493929190614868565b600060405180830381600087803b158015611a5057600080fd5b505af1158015611a64573d6000803e3d6000fd5b505050506000611b25877f000000000000000000000000000000000000000000000000000000000000000073ffffffffffffffffffffffffffffffffffffffff166370a08231306040518263ffffffff1660e01b8152600401611ac7919061478b565b60206040518083038186803b158015611adf57600080fd5b505afa158015611af3573d6000803e3d6000fd5b505050506040513d601f19601f82011682018060405250810190611b17919061418d565b613d2090919063ffffffff16565b90508a60a00135811015611b6e576040517f08c379a0000000000000000000000000000000000000000000000000000000008152600401611b6590614957565b60405180910390fd5b7f000000000000000000000000000000000000000000000000000000000000000073ffffffffffffffffffffffffffffffffffffffff16632e1a7d4d826040518263ffffffff1660e01b8152600401611bc79190614a57565b600060405180830381600087803b158015611be157600080fd5b505af1158015611bf5573d6000803e3d6000fd5b50505050611c158b6020016020810190611c0f919061401f565b82613d70565b5050505050505050505050565b6000611c527f00000000000000000000000000000000000000000000000000000000000000008787878787613ad3565b73ffffffffffffffffffffffffffffffffffffffff1663a035b1fe6040518163ffffffff1660e01b815260040160206040518083038186803b158015611c9757600080fd5b505afa158015611cab573d6000803e3d6000fd5b505050506040513d601f19601f82011682018060405250810190611ccf919061418d565b905095945050505050565b6000808242811015611d21576040517f08c379a0000000000000000000000000000000000000000000000000000000008152600401611d18906149f7565b60405180910390fd5b6000611dac7f0000000000000000000000000000000000000000000000000000000000000000876040016020810190611d5a919061401f565b886060016020810190611d6d919061401f565b8960c0016020810190611d80919061427b565b8a60e0016020810190611d93919061427b565b8b610100016020810190611da7919061427b565b613ad3565b90508073ffffffffffffffffffffffffffffffffffffffff16632ec2fe3d6040518163ffffffff1660e01b815260040160206040518083038186803b158015611df457600080fd5b505afa158015611e08573d6000803e3d6000fd5b505050506040513d601f19601f82011682018060405250810190611e2c9190614048565b73ffffffffffffffffffffffffffffffffffffffff163373ffffffffffffffffffffffffffffffffffffffff1614611e99576040517f08c379a0000000000000000000000000000000000000000000000000000000008152600401611e90906149d7565b60405180910390fd5b8073ffffffffffffffffffffffffffffffffffffffff166351cff8d9876020016020810190611ec8919061401f565b6040518263ffffffff1660e01b8152600401611ee49190614770565b6040805180830381600087803b158015611efd57600080fd5b505af1158015611f11573d6000803e3d6000fd5b505050506040513d601f19601f82011682018060405250810190611f35919061423f565b809450819550505050509250929050565b6000808242811015611f8d576040517f08c379a0000000000000000000000000000000000000000000000000000000008152600401611f84906149f7565b60405180910390fd5b60006120267f0000000000000000000000000000000000000000000000000000000000000000876040016020810190611fc6919061401f565b7f00000000000000000000000000000000000000000000000000000000000000008960c0016020810190611ffa919061427b565b8a60e001602081019061200d919061427b565b8b610100016020810190612021919061427b565b613ad3565b90508073ffffffffffffffffffffffffffffffffffffffff16632ec2fe3d6040518163ffffffff1660e01b815260040160206040518083038186803b15801561206e57600080fd5b505afa158015612082573d6000803e3d6000fd5b505050506040513d601f19601f820116820180604052508101906120a69190614048565b73ffffffffffffffffffffffffffffffffffffffff163373ffffffffffffffffffffffffffffffffffffffff1614612113576040517f08c379a000000000000000000000000000000000000000000000000000000000815260040161210a906149d7565b60405180910390fd5b8073ffffffffffffffffffffffffffffffffffffffff166351cff8d9306040518263ffffffff1660e01b815260040161214c919061478b565b6040805180830381600087803b15801561216557600080fd5b505af1158015612179573d6000803e3d6000fd5b505050506040513d601f19601f8201168201806040525081019061219d919061423f565b80945081955050508560400160208101906121b8919061401f565b73ffffffffffffffffffffffffffffffffffffffff1663a9059cbb8760200160208101906121e6919061401f565b866040518363ffffffff1660e01b815260040161220492919061490e565b602060405180830381600087803b15801561221e57600080fd5b505af1158015612232573d6000803e3d6000fd5b505050506040513d601f19601f8201168201806040525081019061225691906140e8565b61225c57fe5b7f000000000000000000000000000000000000000000000000000000000000000073ffffffffffffffffffffffffffffffffffffffff16632e1a7d4d846040518263ffffffff1660e01b81526004016122b59190614a57565b600060405180830381600087803b1580156122cf57600080fd5b505af11580156122e3573d6000803e3d6000fd5b505050506123038660200160208101906122fd919061401f565b84613d70565b50509250929050565b60008142811015612352576040517f08c379a0000000000000000000000000000000000000000000000000000000008152600401612349906149f7565b60405180910390fd5b600073ffffffffffffffffffffffffffffffffffffffff167f000000000000000000000000000000000000000000000000000000000000000073ffffffffffffffffffffffffffffffffffffffff16636b8b5e318660400160208101906123b9919061401f565b8760600160208101906123cc919061401f565b8860c00160208101906123df919061427b565b8960e00160208101906123f2919061427b565b8a610100016020810190612406919061427b565b6040518663ffffffff1660e01b81526004016124269594939291906148bb565b60206040518083038186803b15801561243e57600080fd5b505afa158015612452573d6000803e3d6000fd5b505050506040513d601f19601f820116820180604052508101906124769190614048565b73ffffffffffffffffffffffffffffffffffffffff16146124cc576040517f08c379a00000000000000000000000000000000000000000000000000000000081526004016124c390614a17565b60405180910390fd5b7f000000000000000000000000000000000000000000000000000000000000000073ffffffffffffffffffffffffffffffffffffffff1663835f6ef63086604001602081019061251c919061401f565b87606001602081019061252f919061401f565b338960c0016020810190612543919061427b565b8a60e0016020810190612556919061427b565b8b61010001602081019061256a919061427b565b6040518863ffffffff1660e01b815260040161258c97969594939291906147a6565b602060405180830381600087803b1580156125a657600080fd5b505af11580156125ba573d6000803e3d6000fd5b505050506040513d601f19601f820116820180604052508101906125de9190614048565b50600061266a7f0000000000000000000000000000000000000000000000000000000000000000866040016020810190612618919061401f565b87606001602081019061262b919061401f565b8860c001602081019061263e919061427b565b8960e0016020810190612651919061427b565b8a610100016020810190612665919061427b565b613ad3565b905061268e856040016020810190612682919061401f565b33838860800135613b3b565b6126b08560600160208101906126a4919061401f565b33838860a00135613b3b565b8073ffffffffffffffffffffffffffffffffffffffff1663f340fa018660200160208101906126df919061401f565b6040518263ffffffff1660e01b81526004016126fb9190614770565b602060405180830381600087803b15801561271557600080fd5b505af1158015612729573d6000803e3d6000fd5b505050506040513d601f19601f8201168201806040525081019061274d919061418d565b9250505092915050565b7f000000000000000000000000000000000000000000000000000000000000000081565b6000806127ac7f00000000000000000000000000000000000000000000000000000000000000008888888888613ad3565b90506103e86128508273ffffffffffffffffffffffffffffffffffffffff166334fbc9a16040518163ffffffff1660e01b815260040160206040518083038186803b1580156127fa57600080fd5b505afa15801561280e573d6000803e3d6000fd5b505050506040513d601f19601f8201168201806040525081019061283291906142cd565b60ff1685016103e80363ffffffff168a613ecf90919063ffffffff16565b8161285757fe5b0497508073ffffffffffffffffffffffffffffffffffffffff16637b31ae64896040518263ffffffff1660e01b81526004016128939190614a57565b60206040518083038186803b1580156128ab57600080fd5b505afa1580156128bf573d6000803e3d6000fd5b505050506040513d601f19601f820116820180604052508101906128e3919061418d565b9150509695505050505050565b6000806129217f00000000000000000000000000000000000000000000000000000000000000008888888888613ad3565b90506103e86129c58273ffffffffffffffffffffffffffffffffffffffff166334fbc9a16040518163ffffffff1660e01b815260040160206040518083038186803b15801561296f57600080fd5b505afa158015612983573d6000803e3d6000fd5b505050506040513d601f19601f820116820180604052508101906129a791906142cd565b60ff1685016103e80363ffffffff168a613ecf90919063ffffffff16565b816129cc57fe5b0497508073ffffffffffffffffffffffffffffffffffffffff1663e6d7059a896040518263ffffffff1660e01b8152600401612a089190614a57565b60206040518083038186803b158015612a2057600080fd5b505afa158015612a34573d6000803e3d6000fd5b505050506040513d601f19601f82011682018060405250810190612a58919061418d565b9150509695505050505050565b7f000000000000000000000000000000000000000000000000000000000000000081565b8042811015612acd576040517f08c379a0000000000000000000000000000000000000000000000000000000008152600401612ac4906149f7565b60405180910390fd5b7f000000000000000000000000000000000000000000000000000000000000000073ffffffffffffffffffffffffffffffffffffffff168360e0016020810190612b17919061401f565b73ffffffffffffffffffffffffffffffffffffffff1614612b6d576040517f08c379a0000000000000000000000000000000000000000000000000000000008152600401612b64906149b7565b60405180910390fd5b7f000000000000000000000000000000000000000000000000000000000000000073ffffffffffffffffffffffffffffffffffffffff16836040016020810190612bb7919061401f565b73ffffffffffffffffffffffffffffffffffffffff1614612c0d576040517f08c379a0000000000000000000000000000000000000000000000000000000008152600401612c0490614997565b60405180910390fd5b6000612c9a7f00000000000000000000000000000000000000000000000000000000000000008560c0016020810190612c46919061401f565b8660e0016020810190612c59919061401f565b87610100016020810190612c6d919061427b565b88610120016020810190612c81919061427b565b89610140016020810190612c95919061427b565b613ad3565b90507f000000000000000000000000000000000000000000000000000000000000000073ffffffffffffffffffffffffffffffffffffffff1663d0e30db0346040518263ffffffff1660e01b81526004016000604051808303818588803b158015612d0457600080fd5b505af1158015612d18573d6000803e3d6000fd5b50505050507f000000000000000000000000000000000000000000000000000000000000000073ffffffffffffffffffffffffffffffffffffffff1663a9059cbb82346040518363ffffffff1660e01b8152600401612d7892919061490e565b602060405180830381600087803b158015612d9257600080fd5b505af1158015612da6573d6000803e3d6000fd5b505050506040513d601f19601f82011682018060405250810190612dca91906140e8565b612dd057fe5b6000846060016020810190612de5919061401f565b73ffffffffffffffffffffffffffffffffffffffff166370a08231866020016020810190612e13919061401f565b6040518263ffffffff1660e01b8152600401612e2f9190614770565b60206040518083038186803b158015612e4757600080fd5b505afa158015612e5b573d6000803e3d6000fd5b505050506040513d601f19601f82011682018060405250810190612e7f919061418d565b905060008273ffffffffffffffffffffffffffffffffffffffff16630902f1ac6040518163ffffffff1660e01b8152600401604080518083038186803b158015612ec857600080fd5b505afa158015612edc573d6000803e3d6000fd5b505050506040513d601f19601f82011682018060405250810190612f00919061423f565b91505060008373ffffffffffffffffffffffffffffffffffffffff1663552372006040518163ffffffff1660e01b8152600401604080518083038186803b158015612f4a57600080fd5b505afa158015612f5e573d6000803e3d6000fd5b505050506040513d601f19601f82011682018060405250810190612f82919061423f565b91505060008473ffffffffffffffffffffffffffffffffffffffff16639dade07d6040518163ffffffff1660e01b8152600401604080518083038186803b158015612fcc57600080fd5b505afa158015612fe0573d6000803e3d6000fd5b505050506040513d601f19601f82011682018060405250810190613004919061423f565b91505060006130e8826130da856130cc887f000000000000000000000000000000000000000000000000000000000000000073ffffffffffffffffffffffffffffffffffffffff166370a082318d6040518263ffffffff1660e01b815260040161306e9190614770565b60206040518083038186803b15801561308657600080fd5b505afa15801561309a573d6000803e3d6000fd5b505050506040513d601f19601f820116820180604052508101906130be919061418d565b613d2090919063ffffffff16565b613d2090919063ffffffff16565b613d2090919063ffffffff16565b9050600061336b828873ffffffffffffffffffffffffffffffffffffffff1663c55dae636040518163ffffffff1660e01b815260040160206040518083038186803b15801561313657600080fd5b505afa15801561314a573d6000803e3d6000fd5b505050506040513d601f19601f8201168201806040525081019061316e9190614048565b8973ffffffffffffffffffffffffffffffffffffffff1663217a4b706040518163ffffffff1660e01b815260040160206040518083038186803b1580156131b457600080fd5b505afa1580156131c8573d6000803e3d6000fd5b505050506040513d601f19601f820116820180604052508101906131ec9190614048565b8a73ffffffffffffffffffffffffffffffffffffffff166321800fc36040518163ffffffff1660e01b815260040160206040518083038186803b15801561323257600080fd5b505afa158015613246573d6000803e3d6000fd5b505050506040513d601f19601f8201168201806040525081019061326a91906142a4565b8b73ffffffffffffffffffffffffffffffffffffffff16632e52d6066040518163ffffffff1660e01b815260040160206040518083038186803b1580156132b057600080fd5b505afa1580156132c4573d6000803e3d6000fd5b505050506040513d601f19601f820116820180604052508101906132e891906142a4565b8c73ffffffffffffffffffffffffffffffffffffffff1663ddca3f436040518163ffffffff1660e01b815260040160206040518083038186803b15801561332e57600080fd5b505afa158015613342573d6000803e3d6000fd5b505050506040513d601f19601f8201168201806040525081019061336691906142a4565b6128f0565b90508673ffffffffffffffffffffffffffffffffffffffff1663d5bcb9b58b604001602081019061339c919061401f565b8c60600160208101906133af919061401f565b85858f60200160208101906133c4919061401f565b6040518663ffffffff1660e01b81526004016133e4959493929190614815565b600060405180830381600087803b1580156133fe57600080fd5b505af1158015613412573d6000803e3d6000fd5b505050508960a001356134da878c6060016020810190613432919061401f565b73ffffffffffffffffffffffffffffffffffffffff166370a082318e6020016020810190613460919061401f565b6040518263ffffffff1660e01b815260040161347c9190614770565b60206040518083038186803b15801561349457600080fd5b505afa1580156134a8573d6000803e3d6000fd5b505050506040513d601f19601f820116820180604052508101906134cc919061418d565b613d2090919063ffffffff16565b101561351b576040517f08c379a000000000000000000000000000000000000000000000000000000000815260040161351290614957565b60405180910390fd5b50505050505050505050565b6000814281101561356d576040517f08c379a0000000000000000000000000000000000000000000000000000000008152600401613564906149f7565b60405180910390fd5b600073ffffffffffffffffffffffffffffffffffffffff167f000000000000000000000000000000000000000000000000000000000000000073ffffffffffffffffffffffffffffffffffffffff16636b8b5e318660400160208101906135d4919061401f565b7f00000000000000000000000000000000000000000000000000000000000000008860c0016020810190613608919061427b565b8960e001602081019061361b919061427b565b8a61010001602081019061362f919061427b565b6040518663ffffffff1660e01b815260040161364f9594939291906148bb565b60206040518083038186803b15801561366757600080fd5b505afa15801561367b573d6000803e3d6000fd5b505050506040513d601f19601f8201168201806040525081019061369f9190614048565b73ffffffffffffffffffffffffffffffffffffffff16146136f5576040517f08c379a00000000000000000000000000000000000000000000000000000000081526004016136ec90614a17565b60405180910390fd5b7f000000000000000000000000000000000000000000000000000000000000000073ffffffffffffffffffffffffffffffffffffffff1663835f6ef630866040016020810190613745919061401f565b7f0000000000000000000000000000000000000000000000000000000000000000338960c001602081019061377a919061427b565b8a60e001602081019061378d919061427b565b8b6101000160208101906137a1919061427b565b6040518863ffffffff1660e01b81526004016137c397969594939291906147a6565b602060405180830381600087803b1580156137dd57600080fd5b505af11580156137f1573d6000803e3d6000fd5b505050506040513d601f19601f820116820180604052508101906138159190614048565b5060006138af7f000000000000000000000000000000000000000000000000000000000000000086604001602081019061384f919061401f565b7f00000000000000000000000000000000000000000000000000000000000000008860c0016020810190613883919061427b565b8960e0016020810190613896919061427b565b8a6101000160208101906138aa919061427b565b613ad3565b90506138d38560400160208101906138c7919061401f565b33838860800135613b3b565b7f000000000000000000000000000000000000000000000000000000000000000073ffffffffffffffffffffffffffffffffffffffff1663d0e30db08660a001356040518263ffffffff1660e01b81526004016000604051808303818588803b15801561393f57600080fd5b505af1158015613953573d6000803e3d6000fd5b50505050507f000000000000000000000000000000000000000000000000000000000000000073ffffffffffffffffffffffffffffffffffffffff1663a9059cbb828760a001356040518363ffffffff1660e01b81526004016139b792919061490e565b602060405180830381600087803b1580156139d157600080fd5b505af11580156139e5573d6000803e3d6000fd5b505050506040513d601f19601f82011682018060405250810190613a0991906140e8565b613a0f57fe5b8073ffffffffffffffffffffffffffffffffffffffff1663f340fa01866020016020810190613a3e919061401f565b6040518263ffffffff1660e01b8152600401613a5a9190614770565b602060405180830381600087803b158015613a7457600080fd5b505af1158015613a88573d6000803e3d6000fd5b505050506040513d601f19601f82011682018060405250810190613aac919061418d565b92508460a00135341115613acb57613aca338660a001353403613d70565b5b505092915050565b6000868686868686604051602001613aef9594939291906146cf565b60405160208183030381529060405280519060200120604051602001613b1692919061472e565b6040516020818303038152906040528051906020012060001c90509695505050505050565b600060608573ffffffffffffffffffffffffffffffffffffffff166323b872dd868686604051602401808473ffffffffffffffffffffffffffffffffffffffff1681526020018373ffffffffffffffffffffffffffffffffffffffff16815260200182815260200193505050506040516020818303038152906040529060e01b6020820180517bffffffffffffffffffffffffffffffffffffffffffffffffffffffff83818316178352505050506040518082805190602001908083835b60208310613c1c5780518252602082019150602081019050602083039250613bf9565b6001836020036101000a0380198251168184511680821785525050505050509050019150506000604051808303816000865af19150503d8060008114613c7e576040519150601f19603f3d011682016040523d82523d6000602084013e613c83565b606091505b5091509150818015613cc35750600081511480613cc25750808060200190516020811015613cb057600080fd5b81019080805190602001909291905050505b5b613d18576040517f08c379a0000000000000000000000000000000000000000000000000000000008152600401808060200182810382526024815260200180614c4d6024913960400191505060405180910390fd5b505050505050565b600081831015613d65576040517f08c379a0000000000000000000000000000000000000000000000000000000008152600401613d5c90614a37565b60405180910390fd5b818303905092915050565b60008273ffffffffffffffffffffffffffffffffffffffff1682600067ffffffffffffffff81118015613da257600080fd5b506040519080825280601f01601f191660200182016040528015613dd55781602001600182028036833780820191505090505b506040518082805190602001908083835b60208310613e095780518252602082019150602081019050602083039250613de6565b6001836020036101000a03801982511681845116808217855250505050505090500191505060006040518083038185875af1925050503d8060008114613e6b576040519150601f19603f3d011682016040523d82523d6000602084013e613e70565b606091505b5050905080613eca576040517f08c379a0000000000000000000000000000000000000000000000000000000008152600401808060200182810382526023815260200180614c2a6023913960400191505060405180910390fd5b505050565b600080831415613ee25760009050613f39565b6000828402905082848281613ef357fe5b0414613f34576040517f08c379a0000000000000000000000000000000000000000000000000000000008152600401613f2b90614977565b60405180910390fd5b809150505b92915050565b600081359050613f4e81614bb6565b92915050565b600081519050613f6381614bb6565b92915050565b600081519050613f7881614bcd565b92915050565b60006101208284031215613f9157600080fd5b81905092915050565b60006101608284031215613fad57600080fd5b81905092915050565b600081359050613fc581614be4565b92915050565b600081519050613fda81614be4565b92915050565b600081359050613fef81614bfb565b92915050565b60008151905061400481614bfb565b92915050565b60008151905061401981614c12565b92915050565b60006020828403121561403157600080fd5b600061403f84828501613f3f565b91505092915050565b60006020828403121561405a57600080fd5b600061406884828501613f54565b91505092915050565b600080600080600060a0868803121561408957600080fd5b600061409788828901613f3f565b95505060206140a888828901613f3f565b94505060406140b988828901613fe0565b93505060606140ca88828901613fe0565b92505060806140db88828901613fe0565b9150509295509295909350565b6000602082840312156140fa57600080fd5b600061410884828501613f69565b91505092915050565b600080610140838503121561412557600080fd5b600061413385828601613f7e565b92505061012061414585828601613fb6565b9150509250929050565b600080610180838503121561416357600080fd5b600061417185828601613f9a565b92505061016061418385828601613fb6565b9150509250929050565b60006020828403121561419f57600080fd5b60006141ad84828501613fcb565b91505092915050565b60008060008060008060c087890312156141cf57600080fd5b60006141dd89828a01613fb6565b96505060206141ee89828a01613f3f565b95505060406141ff89828a01613f3f565b945050606061421089828a01613fe0565b935050608061422189828a01613fe0565b92505060a061423289828a01613fe0565b9150509295509295509295565b6000806040838503121561425257600080fd5b600061426085828601613fcb565b925050602061427185828601613fcb565b9150509250929050565b60006020828403121561428d57600080fd5b600061429b84828501613fe0565b91505092915050565b6000602082840312156142b657600080fd5b60006142c484828501613ff5565b91505092915050565b6000602082840312156142df57600080fd5b60006142ed8482850161400a565b91505092915050565b6142ff81614b26565b82525050565b61430e81614ab7565b82525050565b61432561432082614ab7565b614b5c565b82525050565b61433c61433782614ad5565b614b6e565b82525050565b600061434f603483614a9b565b91507f44414f66695631526f757465723a20494e56414c494420544f4b454e2c20574560008301527f5448204d55535420424520544f4b454e204f55540000000000000000000000006020830152604082019050919050565b60006143b5602983614a9b565b91507f44414f66695631526f757465723a20494e53554646494349454e545f4f55545060008301527f55545f414d4f554e5400000000000000000000000000000000000000000000006020830152604082019050919050565b600061441b600c83614a9b565b91507f4552525f4f564552464c4f5700000000000000000000000000000000000000006000830152602082019050919050565b600061445b603383614a9b565b91507f44414f66695631526f757465723a20494e56414c494420544f4b454e2c20574560008301527f5448204d55535420424520544f4b454e20494e000000000000000000000000006020830152604082019050919050565b60006144c1602083614aac565b91507fc91c25d60f81a860a0db94dea30188b1d93d923682b5d5a38a6f23c330c2f66c6000830152602082019050919050565b6000614501603083614a9b565b91507f44414f66695631526f757465723a20494e56414c494420544f4b454e2c20574560008301527f5448204d5553542042452051554f5445000000000000000000000000000000006020830152604082019050919050565b6000614567601883614a9b565b91507f44414f66695631526f757465723a20464f5242494444454e00000000000000006000830152602082019050919050565b60006145a7600183614aac565b91507fff000000000000000000000000000000000000000000000000000000000000006000830152600182019050919050565b60006145e7601683614a9b565b91507f44414f66695631526f757465723a2045585049524544000000000000000000006000830152602082019050919050565b6000614627601a83614a9b565b91507f44414f66695631526f757465723a20504149525f4558495354530000000000006000830152602082019050919050565b6000614667600d83614a9b565b91507f4552525f554e444552464c4f57000000000000000000000000000000000000006000830152602082019050919050565b6146a381614aff565b82525050565b6146b281614b09565b82525050565b6146c96146c482614b09565b614b8a565b82525050565b60006146db8288614314565b6014820191506146eb8287614314565b6014820191506146fb82866146b8565b60048201915061470b82856146b8565b60048201915061471b82846146b8565b6004820191508190509695505050505050565b60006147398261459a565b91506147458285614314565b601482019150614755828461432b565b602082019150614764826144b4565b91508190509392505050565b60006020820190506147856000830184614305565b92915050565b60006020820190506147a060008301846142f6565b92915050565b600060e0820190506147bb600083018a6142f6565b6147c86020830189614305565b6147d56040830188614305565b6147e260608301876142f6565b6147ef60808301866146a9565b6147fc60a08301856146a9565b61480960c08301846146a9565b98975050505050505050565b600060a08201905061482a6000830188614305565b6148376020830187614305565b614844604083018661469a565b614851606083018561469a565b61485e6080830184614305565b9695505050505050565b600060a08201905061487d6000830188614305565b61488a6020830187614305565b614897604083018661469a565b6148a4606083018561469a565b6148b160808301846142f6565b9695505050505050565b600060a0820190506148d06000830188614305565b6148dd6020830187614305565b6148ea60408301866146a9565b6148f760608301856146a9565b61490460808301846146a9565b9695505050505050565b60006040820190506149236000830185614305565b614930602083018461469a565b9392505050565b6000602082019050818103600083015261495081614342565b9050919050565b60006020820190508181036000830152614970816143a8565b9050919050565b600060208201905081810360008301526149908161440e565b9050919050565b600060208201905081810360008301526149b08161444e565b9050919050565b600060208201905081810360008301526149d0816144f4565b9050919050565b600060208201905081810360008301526149f08161455a565b9050919050565b60006020820190508181036000830152614a10816145da565b9050919050565b60006020820190508181036000830152614a308161461a565b9050919050565b60006020820190508181036000830152614a508161465a565b9050919050565b6000602082019050614a6c600083018461469a565b92915050565b6000604082019050614a87600083018561469a565b614a94602083018461469a565b9392505050565b600082825260208201905092915050565b600081905092915050565b6000614ac282614adf565b9050919050565b60008115159050919050565b6000819050919050565b600073ffffffffffffffffffffffffffffffffffffffff82169050919050565b6000819050919050565b600063ffffffff82169050919050565b600060ff82169050919050565b6000614b3182614b38565b9050919050565b6000614b4382614b4a565b9050919050565b6000614b5582614adf565b9050919050565b6000614b6782614b78565b9050919050565b6000819050919050565b6000614b8382614ba9565b9050919050565b6000614b9582614b9c565b9050919050565b60008160e01b9050919050565b60008160601b9050919050565b614bbf81614ab7565b8114614bca57600080fd5b50565b614bd681614ac9565b8114614be157600080fd5b50565b614bed81614aff565b8114614bf857600080fd5b50565b614c0481614b09565b8114614c0f57600080fd5b50565b614c1b81614b19565b8114614c2657600080fd5b5056fe5472616e7366657248656c7065723a204554485f5452414e534645525f4641494c45445472616e7366657248656c7065723a205452414e534645525f46524f4d5f4641494c4544a2646970667358221220b4ec92c9488b06f8563688f81e50a5fc6fe1438e114973047ced80e303c188df64736f6c63430007040033",
  "linkReferences": {},
  "deployedLinkReferences": {}
}