{
  "address": "0x5FbDB2315678afecb367f032d93F642f64180aa3",
  "abi": [
    {
      "inputs": [],
      "stateMutability": "nonpayable",
      "type": "constructor"
    },
    {
      "anonymous": false,
      "inputs": [
        {
          "indexed": true,
          "internalType": "uint256",
          "name": "tokenId",
          "type": "uint256"
        },
        {
          "components": [
            {
              "internalType": "uint256",
              "name": "amount",
              "type": "uint256"
            },
            {
              "internalType": "address",
              "name": "currency",
              "type": "address"
            }
          ],
          "indexed": false,
          "internalType": "struct IMarket.Ask",
          "name": "ask",
          "type": "tuple"
        }
      ],
      "name": "AskCreated",
      "type": "event"
    },
    {
      "anonymous": false,
      "inputs": [
        {
          "indexed": true,
          "internalType": "uint256",
          "name": "tokenId",
          "type": "uint256"
        },
        {
          "components": [
            {
              "internalType": "uint256",
              "name": "amount",
              "type": "uint256"
            },
            {
              "internalType": "address",
              "name": "currency",
              "type": "address"
            }
          ],
          "indexed": false,
          "internalType": "struct IMarket.Ask",
          "name": "ask",
          "type": "tuple"
        }
      ],
      "name": "AskRemoved",
      "type": "event"
    },
    {
      "anonymous": false,
      "inputs": [
        {
          "indexed": true,
          "internalType": "uint256",
          "name": "tokenId",
          "type": "uint256"
        },
        {
          "components": [
            {
              "internalType": "uint256",
              "name": "amount",
              "type": "uint256"
            },
            {
              "internalType": "address",
              "name": "currency",
              "type": "address"
            },
            {
              "internalType": "address",
              "name": "bidder",
              "type": "address"
            },
            {
              "internalType": "address",
              "name": "recipient",
              "type": "address"
            },
            {
              "components": [
                {
                  "internalType": "uint256",
                  "name": "value",
                  "type": "uint256"
                }
              ],
              "internalType": "struct Decimal.D256",
              "name": "sellOnShare",
              "type": "tuple"
            }
          ],
          "indexed": false,
          "internalType": "struct IMarket.Bid",
          "name": "bid",
          "type": "tuple"
        }
      ],
      "name": "BidCreated",
      "type": "event"
    },
    {
      "anonymous": false,
      "inputs": [
        {
          "indexed": true,
          "internalType": "uint256",
          "name": "tokenId",
          "type": "uint256"
        },
        {
          "components": [
            {
              "internalType": "uint256",
              "name": "amount",
              "type": "uint256"
            },
            {
              "internalType": "address",
              "name": "currency",
              "type": "address"
            },
            {
              "internalType": "address",
              "name": "bidder",
              "type": "address"
            },
            {
              "internalType": "address",
              "name": "recipient",
              "type": "address"
            },
            {
              "components": [
                {
                  "internalType": "uint256",
                  "name": "value",
                  "type": "uint256"
                }
              ],
              "internalType": "struct Decimal.D256",
              "name": "sellOnShare",
              "type": "tuple"
            }
          ],
          "indexed": false,
          "internalType": "struct IMarket.Bid",
          "name": "bid",
          "type": "tuple"
        }
      ],
      "name": "BidFinalized",
      "type": "event"
    },
    {
      "anonymous": false,
      "inputs": [
        {
          "indexed": true,
          "internalType": "uint256",
          "name": "tokenId",
          "type": "uint256"
        },
        {
          "components": [
            {
              "internalType": "uint256",
              "name": "amount",
              "type": "uint256"
            },
            {
              "internalType": "address",
              "name": "currency",
              "type": "address"
            },
            {
              "internalType": "address",
              "name": "bidder",
              "type": "address"
            },
            {
              "internalType": "address",
              "name": "recipient",
              "type": "address"
            },
            {
              "components": [
                {
                  "internalType": "uint256",
                  "name": "value",
                  "type": "uint256"
                }
              ],
              "internalType": "struct Decimal.D256",
              "name": "sellOnShare",
              "type": "tuple"
            }
          ],
          "indexed": false,
          "internalType": "struct IMarket.Bid",
          "name": "bid",
          "type": "tuple"
        }
      ],
      "name": "BidRemoved",
      "type": "event"
    },
    {
      "anonymous": false,
      "inputs": [
        {
          "indexed": true,
          "internalType": "uint256",
          "name": "tokenId",
          "type": "uint256"
        },
        {
          "components": [
            {
              "components": [
                {
                  "internalType": "uint256",
                  "name": "value",
                  "type": "uint256"
                }
              ],
              "internalType": "struct Decimal.D256",
              "name": "prevOwner",
              "type": "tuple"
            },
            {
              "components": [
                {
                  "internalType": "uint256",
                  "name": "value",
                  "type": "uint256"
                }
              ],
              "internalType": "struct Decimal.D256",
              "name": "creator",
              "type": "tuple"
            },
            {
              "components": [
                {
                  "internalType": "uint256",
                  "name": "value",
                  "type": "uint256"
                }
              ],
              "internalType": "struct Decimal.D256",
              "name": "owner",
              "type": "tuple"
            }
          ],
          "indexed": false,
          "internalType": "struct IMarket.BidShares",
          "name": "bidShares",
          "type": "tuple"
        }
      ],
      "name": "BidShareUpdated",
      "type": "event"
    },
    {
      "inputs": [
        {
          "internalType": "uint256",
          "name": "tokenId",
          "type": "uint256"
        },
        {
          "components": [
            {
              "internalType": "uint256",
              "name": "amount",
              "type": "uint256"
            },
            {
              "internalType": "address",
              "name": "currency",
              "type": "address"
            },
            {
              "internalType": "address",
              "name": "bidder",
              "type": "address"
            },
            {
              "internalType": "address",
              "name": "recipient",
              "type": "address"
            },
            {
              "components": [
                {
                  "internalType": "uint256",
                  "name": "value",
                  "type": "uint256"
                }
              ],
              "internalType": "struct Decimal.D256",
              "name": "sellOnShare",
              "type": "tuple"
            }
          ],
          "internalType": "struct IMarket.Bid",
          "name": "expectedBid",
          "type": "tuple"
        }
      ],
      "name": "acceptBid",
      "outputs": [],
      "stateMutability": "nonpayable",
      "type": "function"
    },
    {
      "inputs": [
        {
          "internalType": "uint256",
          "name": "tokenId",
          "type": "uint256"
        },
        {
          "internalType": "address",
          "name": "bidder",
          "type": "address"
        }
      ],
      "name": "bidForTokenBidder",
      "outputs": [
        {
          "components": [
            {
              "internalType": "uint256",
              "name": "amount",
              "type": "uint256"
            },
            {
              "internalType": "address",
              "name": "currency",
              "type": "address"
            },
            {
              "internalType": "address",
              "name": "bidder",
              "type": "address"
            },
            {
              "internalType": "address",
              "name": "recipient",
              "type": "address"
            },
            {
              "components": [
                {
                  "internalType": "uint256",
                  "name": "value",
                  "type": "uint256"
                }
              ],
              "internalType": "struct Decimal.D256",
              "name": "sellOnShare",
              "type": "tuple"
            }
          ],
          "internalType": "struct IMarket.Bid",
          "name": "",
          "type": "tuple"
        }
      ],
      "stateMutability": "view",
      "type": "function"
    },
    {
      "inputs": [
        {
          "internalType": "uint256",
          "name": "tokenId",
          "type": "uint256"
        }
      ],
      "name": "bidSharesForToken",
      "outputs": [
        {
          "components": [
            {
              "components": [
                {
                  "internalType": "uint256",
                  "name": "value",
                  "type": "uint256"
                }
              ],
              "internalType": "struct Decimal.D256",
              "name": "prevOwner",
              "type": "tuple"
            },
            {
              "components": [
                {
                  "internalType": "uint256",
                  "name": "value",
                  "type": "uint256"
                }
              ],
              "internalType": "struct Decimal.D256",
              "name": "creator",
              "type": "tuple"
            },
            {
              "components": [
                {
                  "internalType": "uint256",
                  "name": "value",
                  "type": "uint256"
                }
              ],
              "internalType": "struct Decimal.D256",
              "name": "owner",
              "type": "tuple"
            }
          ],
          "internalType": "struct IMarket.BidShares",
          "name": "",
          "type": "tuple"
        }
      ],
      "stateMutability": "view",
      "type": "function"
    },
    {
      "inputs": [
        {
          "internalType": "address",
          "name": "mediaContractAddress",
          "type": "address"
        }
      ],
      "name": "configure",
      "outputs": [],
      "stateMutability": "nonpayable",
      "type": "function"
    },
    {
      "inputs": [
        {
          "internalType": "uint256",
          "name": "tokenId",
          "type": "uint256"
        }
      ],
      "name": "currentAskForToken",
      "outputs": [
        {
          "components": [
            {
              "internalType": "uint256",
              "name": "amount",
              "type": "uint256"
            },
            {
              "internalType": "address",
              "name": "currency",
              "type": "address"
            }
          ],
          "internalType": "struct IMarket.Ask",
          "name": "",
          "type": "tuple"
        }
      ],
      "stateMutability": "view",
      "type": "function"
    },
    {
      "inputs": [
        {
          "internalType": "uint256",
          "name": "tokenId",
          "type": "uint256"
        },
        {
          "internalType": "uint256",
          "name": "bidAmount",
          "type": "uint256"
        }
      ],
      "name": "isValidBid",
      "outputs": [
        {
          "internalType": "bool",
          "name": "",
          "type": "bool"
        }
      ],
      "stateMutability": "view",
      "type": "function"
    },
    {
      "inputs": [
        {
          "components": [
            {
              "components": [
                {
                  "internalType": "uint256",
                  "name": "value",
                  "type": "uint256"
                }
              ],
              "internalType": "struct Decimal.D256",
              "name": "prevOwner",
              "type": "tuple"
            },
            {
              "components": [
                {
                  "internalType": "uint256",
                  "name": "value",
                  "type": "uint256"
                }
              ],
              "internalType": "struct Decimal.D256",
              "name": "creator",
              "type": "tuple"
            },
            {
              "components": [
                {
                  "internalType": "uint256",
                  "name": "value",
                  "type": "uint256"
                }
              ],
              "internalType": "struct Decimal.D256",
              "name": "owner",
              "type": "tuple"
            }
          ],
          "internalType": "struct IMarket.BidShares",
          "name": "bidShares",
          "type": "tuple"
        }
      ],
      "name": "isValidBidShares",
      "outputs": [
        {
          "internalType": "bool",
          "name": "",
          "type": "bool"
        }
      ],
      "stateMutability": "pure",
      "type": "function"
    },
    {
      "inputs": [],
      "name": "mediaContract",
      "outputs": [
        {
          "internalType": "address",
          "name": "",
          "type": "address"
        }
      ],
      "stateMutability": "view",
      "type": "function"
    },
    {
      "inputs": [
        {
          "internalType": "uint256",
          "name": "tokenId",
          "type": "uint256"
        }
      ],
      "name": "removeAsk",
      "outputs": [],
      "stateMutability": "nonpayable",
      "type": "function"
    },
    {
      "inputs": [
        {
          "internalType": "uint256",
          "name": "tokenId",
          "type": "uint256"
        },
        {
          "internalType": "address",
          "name": "bidder",
          "type": "address"
        }
      ],
      "name": "removeBid",
      "outputs": [],
      "stateMutability": "nonpayable",
      "type": "function"
    },
    {
      "inputs": [
        {
          "internalType": "uint256",
          "name": "tokenId",
          "type": "uint256"
        },
        {
          "components": [
            {
              "internalType": "uint256",
              "name": "amount",
              "type": "uint256"
            },
            {
              "internalType": "address",
              "name": "currency",
              "type": "address"
            }
          ],
          "internalType": "struct IMarket.Ask",
          "name": "ask",
          "type": "tuple"
        }
      ],
      "name": "setAsk",
      "outputs": [],
      "stateMutability": "nonpayable",
      "type": "function"
    },
    {
      "inputs": [
        {
          "internalType": "uint256",
          "name": "tokenId",
          "type": "uint256"
        },
        {
          "components": [
            {
              "internalType": "uint256",
              "name": "amount",
              "type": "uint256"
            },
            {
              "internalType": "address",
              "name": "currency",
              "type": "address"
            },
            {
              "internalType": "address",
              "name": "bidder",
              "type": "address"
            },
            {
              "internalType": "address",
              "name": "recipient",
              "type": "address"
            },
            {
              "components": [
                {
                  "internalType": "uint256",
                  "name": "value",
                  "type": "uint256"
                }
              ],
              "internalType": "struct Decimal.D256",
              "name": "sellOnShare",
              "type": "tuple"
            }
          ],
          "internalType": "struct IMarket.Bid",
          "name": "bid",
          "type": "tuple"
        },
        {
          "internalType": "address",
          "name": "spender",
          "type": "address"
        }
      ],
      "name": "setBid",
      "outputs": [],
      "stateMutability": "nonpayable",
      "type": "function"
    },
    {
      "inputs": [
        {
          "internalType": "uint256",
          "name": "tokenId",
          "type": "uint256"
        },
        {
          "components": [
            {
              "components": [
                {
                  "internalType": "uint256",
                  "name": "value",
                  "type": "uint256"
                }
              ],
              "internalType": "struct Decimal.D256",
              "name": "prevOwner",
              "type": "tuple"
            },
            {
              "components": [
                {
                  "internalType": "uint256",
                  "name": "value",
                  "type": "uint256"
                }
              ],
              "internalType": "struct Decimal.D256",
              "name": "creator",
              "type": "tuple"
            },
            {
              "components": [
                {
                  "internalType": "uint256",
                  "name": "value",
                  "type": "uint256"
                }
              ],
              "internalType": "struct Decimal.D256",
              "name": "owner",
              "type": "tuple"
            }
          ],
          "internalType": "struct IMarket.BidShares",
          "name": "bidShares",
          "type": "tuple"
        }
      ],
      "name": "setBidShares",
      "outputs": [],
      "stateMutability": "nonpayable",
      "type": "function"
    },
    {
      "inputs": [
        {
          "components": [
            {
              "internalType": "uint256",
              "name": "value",
              "type": "uint256"
            }
          ],
          "internalType": "struct Decimal.D256",
          "name": "sharePercentage",
          "type": "tuple"
        },
        {
          "internalType": "uint256",
          "name": "amount",
          "type": "uint256"
        }
      ],
      "name": "splitShare",
      "outputs": [
        {
          "internalType": "uint256",
          "name": "",
          "type": "uint256"
        }
      ],
      "stateMutability": "pure",
      "type": "function"
    }
  ],
  "transactionHash": "0x18c137f528b8aa841554a8a01b65fa7082fcc639fcd8acb5c38af7fe3b81e3c8",
  "args": [],
  "solcInputHash": "1948a18864de6dded01c377ace6149ae",
  "bytecode": "0x608060405234801561001057600080fd5b5033600160006101000a81548173ffffffffffffffffffffffffffffffffffffffff021916908373ffffffffffffffffffffffffffffffffffffffff160217905550613fcf806100616000396000f3fe608060405234801561001057600080fd5b50600436106100ea5760003560e01c8063776a08351161008c578063ba33939911610066578063ba3393991461026d578063bdb5869814610289578063eb55683a146102a5578063f9ce0582146102c1576100ea565b8063776a0835146101f1578063ad827dc41461020d578063b920c1231461023d576100ea565b80634e21f9c0116100c85780634e21f9c01461016b578063578064f61461018957806362f24b70146101b957806375cb2672146101d5576100ea565b806302e8fe13146100ef57806328220f351461011f578063360636eb1461013b575b600080fd5b61010960048036038101906101049190612c08565b6102f1565b604051610116919061325f565b60405180910390f35b61013960048036038101906101349190612a77565b6103ab565b005b61015560048036038101906101509190612a12565b6104cb565b604051610162919061325f565b60405180910390f35b610173610533565b60405161018091906131e4565b60405180910390f35b6101a3600480360381019061019e9190612a77565b610557565b6040516101b091906134fc565b60405180910390f35b6101d360048036038101906101ce9190612b05565b6105e4565b005b6101ef60048036038101906101ea9190612997565b610763565b005b61020b60048036038101906102069190612ac9565b610935565b005b61022760048036038101906102229190612ac9565b610bdf565b6040516102349190613568565b60405180910390f35b61025760048036038101906102529190612a3b565b610d74565b604051610264919061359e565b60405180910390f35b61028760048036038101906102829190612b7d565b610d9b565b005b6102a3600480360381019061029e9190612bb9565b611169565b005b6102bf60048036038101906102ba9190612b41565b61198e565b005b6102db60048036038101906102d69190612a77565b611af6565b6040516102e89190613532565b60405180910390f35b6000806102fd84611af6565b9050610308816104cb565b610347576040517f08c379a000000000000000000000000000000000000000000000000000000000815260040161033e9061343c565b60405180910390fd5b600083141580156103a2575061039f610364826040015185610d74565b610391610375846000015187610d74565b610383856020015188610d74565b611b7d90919063ffffffff16565b611b7d90919063ffffffff16565b83145b91505092915050565b3373ffffffffffffffffffffffffffffffffffffffff1660008054906101000a900473ffffffffffffffffffffffffffffffffffffffff1673ffffffffffffffffffffffffffffffffffffffff1614610439576040517f08c379a0000000000000000000000000000000000000000000000000000000008152600401610430906133fc565b60405180910390fd5b807fbf58f6d6c7d7c6efc69e7444efa93ed26d7cdc0e82e12a37df96f36a367561df6004600084815260200190815260200160002060405161047b9190613517565b60405180910390a2600460008281526020019081526020016000206000808201600090556001820160006101000a81549073ffffffffffffffffffffffffffffffffffffffff0219169055505050565b60006104ee6012600a6104de9190613713565b6064611b9390919063ffffffff16565b61052b83600001516000015161051d856040015160000151866020015160000151611b7d90919063ffffffff16565b611b7d90919063ffffffff16565b149050919050565b60008054906101000a900473ffffffffffffffffffffffffffffffffffffffff1681565b61055f6126ba565b60046000838152602001908152602001600020604051806040016040529081600082015481526020016001820160009054906101000a900473ffffffffffffffffffffffffffffffffffffffff1673ffffffffffffffffffffffffffffffffffffffff1673ffffffffffffffffffffffffffffffffffffffff16815250509050919050565b3373ffffffffffffffffffffffffffffffffffffffff1660008054906101000a900473ffffffffffffffffffffffffffffffffffffffff1673ffffffffffffffffffffffffffffffffffffffff1614610672576040517f08c379a0000000000000000000000000000000000000000000000000000000008152600401610669906133fc565b60405180910390fd5b6106808282600001516102f1565b6106bf576040517f08c379a00000000000000000000000000000000000000000000000000000000081526004016106b69061331c565b60405180910390fd5b80600460008481526020019081526020016000206000820151816000015560208201518160010160006101000a81548173ffffffffffffffffffffffffffffffffffffffff021916908373ffffffffffffffffffffffffffffffffffffffff160217905550905050817ff7347cb9e91d8cbe995b51920ba5f92cbf84a9e09cbed3cd7a739fef4d1d07cf8260405161075791906134fc565b60405180910390a25050565b600160009054906101000a900473ffffffffffffffffffffffffffffffffffffffff1673ffffffffffffffffffffffffffffffffffffffff163373ffffffffffffffffffffffffffffffffffffffff16146107f3576040517f08c379a00000000000000000000000000000000000000000000000000000000081526004016107ea906133bc565b60405180910390fd5b600073ffffffffffffffffffffffffffffffffffffffff1660008054906101000a900473ffffffffffffffffffffffffffffffffffffffff1673ffffffffffffffffffffffffffffffffffffffff1614610882576040517f08c379a00000000000000000000000000000000000000000000000000000000081526004016108799061347c565b60405180910390fd5b600073ffffffffffffffffffffffffffffffffffffffff168173ffffffffffffffffffffffffffffffffffffffff1614156108f2576040517f08c379a00000000000000000000000000000000000000000000000000000000081526004016108e9906134dc565b60405180910390fd5b806000806101000a81548173ffffffffffffffffffffffffffffffffffffffff021916908373ffffffffffffffffffffffffffffffffffffffff16021790555050565b3373ffffffffffffffffffffffffffffffffffffffff1660008054906101000a900473ffffffffffffffffffffffffffffffffffffffff1673ffffffffffffffffffffffffffffffffffffffff16146109c3576040517f08c379a00000000000000000000000000000000000000000000000000000000081526004016109ba906133fc565b60405180910390fd5b60006002600084815260200190815260200160002060008373ffffffffffffffffffffffffffffffffffffffff1673ffffffffffffffffffffffffffffffffffffffff168152602001908152602001600020905060008160000154905060008260010160009054906101000a900473ffffffffffffffffffffffffffffffffffffffff1690506000836000015411610a90576040517f08c379a0000000000000000000000000000000000000000000000000000000008152600401610a879061333c565b60405180910390fd5b6000819050857fcbebd567b8a5c57f63ec61dc46746aab28daff6bdd1f4a6a0a305c17fa5465c985604051610ac59190613583565b60405180910390a26002600087815260200190815260200160002060008673ffffffffffffffffffffffffffffffffffffffff1673ffffffffffffffffffffffffffffffffffffffff1681526020019081526020016000206000808201600090556001820160006101000a81549073ffffffffffffffffffffffffffffffffffffffff02191690556002820160006101000a81549073ffffffffffffffffffffffffffffffffffffffff02191690556003820160006101000a81549073ffffffffffffffffffffffffffffffffffffffff02191690556004820160008082016000905550505050610bd785848373ffffffffffffffffffffffffffffffffffffffff16611ba99092919063ffffffff16565b505050505050565b610be76126ea565b6002600084815260200190815260200160002060008373ffffffffffffffffffffffffffffffffffffffff1673ffffffffffffffffffffffffffffffffffffffff1681526020019081526020016000206040518060a0016040529081600082015481526020016001820160009054906101000a900473ffffffffffffffffffffffffffffffffffffffff1673ffffffffffffffffffffffffffffffffffffffff1673ffffffffffffffffffffffffffffffffffffffff1681526020016002820160009054906101000a900473ffffffffffffffffffffffffffffffffffffffff1673ffffffffffffffffffffffffffffffffffffffff1673ffffffffffffffffffffffffffffffffffffffff1681526020016003820160009054906101000a900473ffffffffffffffffffffffffffffffffffffffff1673ffffffffffffffffffffffffffffffffffffffff1673ffffffffffffffffffffffffffffffffffffffff1681526020016004820160405180602001604052908160008201548152505081525050905092915050565b6000610d936064610d858486611c2f565b611c5590919063ffffffff16565b905092915050565b3373ffffffffffffffffffffffffffffffffffffffff1660008054906101000a900473ffffffffffffffffffffffffffffffffffffffff1673ffffffffffffffffffffffffffffffffffffffff1614610e29576040517f08c379a0000000000000000000000000000000000000000000000000000000008152600401610e20906133fc565b60405180910390fd5b6000600260008481526020019081526020016000206000836040016020810190610e539190612997565b73ffffffffffffffffffffffffffffffffffffffff1673ffffffffffffffffffffffffffffffffffffffff1681526020019081526020016000206040518060a0016040529081600082015481526020016001820160009054906101000a900473ffffffffffffffffffffffffffffffffffffffff1673ffffffffffffffffffffffffffffffffffffffff1673ffffffffffffffffffffffffffffffffffffffff1681526020016002820160009054906101000a900473ffffffffffffffffffffffffffffffffffffffff1673ffffffffffffffffffffffffffffffffffffffff1673ffffffffffffffffffffffffffffffffffffffff1681526020016003820160009054906101000a900473ffffffffffffffffffffffffffffffffffffffff1673ffffffffffffffffffffffffffffffffffffffff1673ffffffffffffffffffffffffffffffffffffffff16815260200160048201604051806020016040529081600082015481525050815250509050600081600001511161100b576040517f08c379a00000000000000000000000000000000000000000000000000000000081526004016110029061339c565b60405180910390fd5b8160000135816000015114801561106357508160200160208101906110309190612997565b73ffffffffffffffffffffffffffffffffffffffff16816020015173ffffffffffffffffffffffffffffffffffffffff16145b801561107d57508160800160000135816080015160000151145b80156110ca57508160600160208101906110979190612997565b73ffffffffffffffffffffffffffffffffffffffff16816060015173ffffffffffffffffffffffffffffffffffffffff16145b611109576040517f08c379a0000000000000000000000000000000000000000000000000000000008152600401611100906133dc565b60405180910390fd5b6111178382600001516102f1565b611156576040517f08c379a000000000000000000000000000000000000000000000000000000000815260040161114d906132dc565b60405180910390fd5b611164838260400151611c6b565b505050565b3373ffffffffffffffffffffffffffffffffffffffff1660008054906101000a900473ffffffffffffffffffffffffffffffffffffffff1673ffffffffffffffffffffffffffffffffffffffff16146111f7576040517f08c379a00000000000000000000000000000000000000000000000000000000081526004016111ee906133fc565b60405180910390fd5b600060036000858152602001908152602001600020604051806060016040529081600082016040518060200160405290816000820154815250508152602001600182016040518060200160405290816000820154815250508152602001600282016040518060200160405290816000820154815250508152505090506112946012600a6112849190613713565b6064611b9390919063ffffffff16565b6112b7846080015160000151836020015160000151611b7d90919063ffffffff16565b11156112f8576040517f08c379a00000000000000000000000000000000000000000000000000000000081526004016112ef9061341c565b60405180910390fd5b600073ffffffffffffffffffffffffffffffffffffffff16836040015173ffffffffffffffffffffffffffffffffffffffff16141561136c576040517f08c379a0000000000000000000000000000000000000000000000000000000008152600401611363906132fc565b60405180910390fd5b6000836000015114156113b4576040517f08c379a00000000000000000000000000000000000000000000000000000000081526004016113ab9061337c565b60405180910390fd5b600073ffffffffffffffffffffffffffffffffffffffff16836020015173ffffffffffffffffffffffffffffffffffffffff161415611428576040517f08c379a000000000000000000000000000000000000000000000000000000000815260040161141f906132bc565b60405180910390fd5b600073ffffffffffffffffffffffffffffffffffffffff16836060015173ffffffffffffffffffffffffffffffffffffffff16141561149c576040517f08c379a00000000000000000000000000000000000000000000000000000000081526004016114939061349c565b60405180910390fd5b6000600260008681526020019081526020016000206000856040015173ffffffffffffffffffffffffffffffffffffffff1673ffffffffffffffffffffffffffffffffffffffff16815260200190815260200160002090506000816000015411156115105761150f858560400151610935565b5b60008460200151905060008173ffffffffffffffffffffffffffffffffffffffff166370a08231306040518263ffffffff1660e01b815260040161155491906131e4565b60206040518083038186803b15801561156c57600080fd5b505afa158015611580573d6000803e3d6000fd5b505050506040513d601f19601f820116820180604052508101906115a49190612aa0565b90506115d7853088600001518573ffffffffffffffffffffffffffffffffffffffff1661237e909392919063ffffffff16565b60008273ffffffffffffffffffffffffffffffffffffffff166370a08231306040518263ffffffff1660e01b815260040161161291906131e4565b60206040518083038186803b15801561162a57600080fd5b505afa15801561163e573d6000803e3d6000fd5b505050506040513d601f19601f820116820180604052508101906116629190612aa0565b90506040518060a00160405280611682848461240790919063ffffffff16565b8152602001886020015173ffffffffffffffffffffffffffffffffffffffff168152602001886040015173ffffffffffffffffffffffffffffffffffffffff168152602001886060015173ffffffffffffffffffffffffffffffffffffffff1681526020018860800151815250600260008a81526020019081526020016000206000896040015173ffffffffffffffffffffffffffffffffffffffff1673ffffffffffffffffffffffffffffffffffffffff1681526020019081526020016000206000820151816000015560208201518160010160006101000a81548173ffffffffffffffffffffffffffffffffffffffff021916908373ffffffffffffffffffffffffffffffffffffffff16021790555060408201518160020160006101000a81548173ffffffffffffffffffffffffffffffffffffffff021916908373ffffffffffffffffffffffffffffffffffffffff16021790555060608201518160030160006101000a81548173ffffffffffffffffffffffffffffffffffffffff021916908373ffffffffffffffffffffffffffffffffffffffff160217905550608082015181600401600082015181600001555050905050877f327bc9021bfbee403a11b13dd6c819999006aff090cc129f07e9f2840af38dd58860405161186a9190613568565b60405180910390a2600073ffffffffffffffffffffffffffffffffffffffff16600460008a815260200190815260200160002060010160009054906101000a900473ffffffffffffffffffffffffffffffffffffffff1673ffffffffffffffffffffffffffffffffffffffff161415801561194a57506004600089815260200190815260200160002060010160009054906101000a900473ffffffffffffffffffffffffffffffffffffffff1673ffffffffffffffffffffffffffffffffffffffff16876020015173ffffffffffffffffffffffffffffffffffffffff16145b801561197057506004600089815260200190815260200160002060000154876000015110155b1561198457611983888860400151611c6b565b5b5050505050505050565b3373ffffffffffffffffffffffffffffffffffffffff1660008054906101000a900473ffffffffffffffffffffffffffffffffffffffff1673ffffffffffffffffffffffffffffffffffffffff1614611a1c576040517f08c379a0000000000000000000000000000000000000000000000000000000008152600401611a13906133fc565b60405180910390fd5b611a25816104cb565b611a64576040517f08c379a0000000000000000000000000000000000000000000000000000000008152600401611a5b9061329c565b60405180910390fd5b8060036000848152602001908152602001600020600082015181600001600082015181600001555050602082015181600101600082015181600001555050604082015181600201600082015181600001555050905050817fdb88d4e96cb8697aaee5e575ee5f460817709a1dfcfbf7ba15192e90b5c86f9f82604051611aea9190613532565b60405180910390a25050565b611afe612761565b6003600083815260200190815260200160002060405180606001604052908160008201604051806020016040529081600082015481525050815260200160018201604051806020016040529081600082015481525050815260200160028201604051806020016040529081600082015481525050815250509050919050565b60008183611b8b9190613639565b905092915050565b60008183611ba19190613831565b905092915050565b611c2a8363a9059cbb60e01b8484604051602401611bc8929190613236565b604051602081830303815290604052907bffffffffffffffffffffffffffffffffffffffffffffffffffffffff19166020820180517bffffffffffffffffffffffffffffffffffffffffffffffffffffffff838183161783525050505061241d565b505050565b6000611c4d8383600001516012600a611c489190613713565b6124e4565b905092915050565b60008183611c63919061368f565b905092915050565b60006002600084815260200190815260200160002060008373ffffffffffffffffffffffffffffffffffffffff1673ffffffffffffffffffffffffffffffffffffffff1681526020019081526020016000206040518060a0016040529081600082015481526020016001820160009054906101000a900473ffffffffffffffffffffffffffffffffffffffff1673ffffffffffffffffffffffffffffffffffffffff1673ffffffffffffffffffffffffffffffffffffffff1681526020016002820160009054906101000a900473ffffffffffffffffffffffffffffffffffffffff1673ffffffffffffffffffffffffffffffffffffffff1673ffffffffffffffffffffffffffffffffffffffff1681526020016003820160009054906101000a900473ffffffffffffffffffffffffffffffffffffffff1673ffffffffffffffffffffffffffffffffffffffff1673ffffffffffffffffffffffffffffffffffffffff168152602001600482016040518060200160405290816000820154815250508152505090506000600360008581526020019081526020016000209050600082602001519050611f0c60008054906101000a900473ffffffffffffffffffffffffffffffffffffffff1673ffffffffffffffffffffffffffffffffffffffff16636352211e876040518263ffffffff1660e01b8152600401611e70919061359e565b60206040518083038186803b158015611e8857600080fd5b505afa158015611e9c573d6000803e3d6000fd5b505050506040513d601f19601f82011682018060405250810190611ec091906129c0565b611ee6846002016040518060200160405290816000820154815250508660000151610d74565b8373ffffffffffffffffffffffffffffffffffffffff16611ba99092919063ffffffff16565b61200460008054906101000a900473ffffffffffffffffffffffffffffffffffffffff1673ffffffffffffffffffffffffffffffffffffffff1663e0fd045f876040518263ffffffff1660e01b8152600401611f68919061359e565b60206040518083038186803b158015611f8057600080fd5b505afa158015611f94573d6000803e3d6000fd5b505050506040513d601f19601f82011682018060405250810190611fb891906129c0565b611fde846001016040518060200160405290816000820154815250508660000151610d74565b8373ffffffffffffffffffffffffffffffffffffffff16611ba99092919063ffffffff16565b6120fc60008054906101000a900473ffffffffffffffffffffffffffffffffffffffff1673ffffffffffffffffffffffffffffffffffffffff16639d8e7260876040518263ffffffff1660e01b8152600401612060919061359e565b60206040518083038186803b15801561207857600080fd5b505afa15801561208c573d6000803e3d6000fd5b505050506040513d601f19601f820116820180604052508101906120b091906129c0565b6120d6846000016040518060200160405290816000820154815250508660000151610d74565b8373ffffffffffffffffffffffffffffffffffffffff16611ba99092919063ffffffff16565b60008054906101000a900473ffffffffffffffffffffffffffffffffffffffff1673ffffffffffffffffffffffffffffffffffffffff1663f6b630f08685606001516040518363ffffffff1660e01b815260040161215b9291906135b9565b600060405180830381600087803b15801561217557600080fd5b505af1158015612189573d6000803e3d6000fd5b5050505060405180602001604052806121fe8560800151600001516121f0600360008b8152602001908152602001600020600101600001546121e26012600a6121d29190613713565b6064611b9390919063ffffffff16565b61240790919063ffffffff16565b61240790919063ffffffff16565b8152508260020160008201518160000155905050826080015182600001600082015181600001559050506002600086815260200190815260200160002060008573ffffffffffffffffffffffffffffffffffffffff1673ffffffffffffffffffffffffffffffffffffffff1681526020019081526020016000206000808201600090556001820160006101000a81549073ffffffffffffffffffffffffffffffffffffffff02191690556002820160006101000a81549073ffffffffffffffffffffffffffffffffffffffff02191690556003820160006101000a81549073ffffffffffffffffffffffffffffffffffffffff02191690556004820160008082016000905550505050847fdb88d4e96cb8697aaee5e575ee5f460817709a1dfcfbf7ba15192e90b5c86f9f83604051612337919061354d565b60405180910390a2847fb6ef177c7a6f32b283a49b5e0463a39240cdaa278028dfb219480d050e8ee54c8460405161236f9190613568565b60405180910390a25050505050565b612401846323b872dd60e01b85858560405160240161239f939291906131ff565b604051602081830303815290604052907bffffffffffffffffffffffffffffffffffffffffffffffffffffffff19166020820180517bffffffffffffffffffffffffffffffffffffffffffffffffffffffff838183161783525050505061241d565b50505050565b60008183612415919061388b565b905092915050565b600061247f826040518060400160405280602081526020017f5361666545524332303a206c6f772d6c6576656c2063616c6c206661696c65648152508573ffffffffffffffffffffffffffffffffffffffff166125149092919063ffffffff16565b90506000815111156124df578080602001905181019061249f91906129e9565b6124de576040517f08c379a00000000000000000000000000000000000000000000000000000000081526004016124d5906134bc565b60405180910390fd5b5b505050565b600061250b826124fd8587611b9390919063ffffffff16565b611c5590919063ffffffff16565b90509392505050565b6060612523848460008561252c565b90509392505050565b606082471015612571576040517f08c379a00000000000000000000000000000000000000000000000000000000081526004016125689061335c565b60405180910390fd5b61257a85612640565b6125b9576040517f08c379a00000000000000000000000000000000000000000000000000000000081526004016125b09061345c565b60405180910390fd5b6000808673ffffffffffffffffffffffffffffffffffffffff1685876040516125e291906131cd565b60006040518083038185875af1925050503d806000811461261f576040519150601f19603f3d011682016040523d82523d6000602084013e612624565b606091505b5091509150612634828286612653565b92505050949350505050565b600080823b905060008111915050919050565b60608315612663578290506126b3565b6000835111156126765782518084602001fd5b816040517f08c379a00000000000000000000000000000000000000000000000000000000081526004016126aa919061327a565b60405180910390fd5b9392505050565b604051806040016040528060008152602001600073ffffffffffffffffffffffffffffffffffffffff1681525090565b6040518060a0016040528060008152602001600073ffffffffffffffffffffffffffffffffffffffff168152602001600073ffffffffffffffffffffffffffffffffffffffff168152602001600073ffffffffffffffffffffffffffffffffffffffff16815260200161275b612794565b81525090565b6040518060600160405280612774612794565b8152602001612781612794565b815260200161278e612794565b81525090565b6040518060200160405280600081525090565b6000813590506127b681613f54565b92915050565b6000815190506127cb81613f54565b92915050565b6000815190506127e081613f6b565b92915050565b6000604082840312156127f857600080fd5b61280260406135e2565b905060006128128482850161296d565b6000830152506020612826848285016127a7565b60208301525092915050565b60006060828403121561284457600080fd5b61284e60606135e2565b9050600061285e84828501612935565b600083015250602061287284828501612935565b602083015250604061288684828501612935565b60408301525092915050565b600060a082840312156128a457600080fd5b81905092915050565b600060a082840312156128bf57600080fd5b6128c960a06135e2565b905060006128d98482850161296d565b60008301525060206128ed848285016127a7565b6020830152506040612901848285016127a7565b6040830152506060612915848285016127a7565b606083015250608061292984828501612935565b60808301525092915050565b60006020828403121561294757600080fd5b61295160206135e2565b905060006129618482850161296d565b60008301525092915050565b60008135905061297c81613f82565b92915050565b60008151905061299181613f82565b92915050565b6000602082840312156129a957600080fd5b60006129b7848285016127a7565b91505092915050565b6000602082840312156129d257600080fd5b60006129e0848285016127bc565b91505092915050565b6000602082840312156129fb57600080fd5b6000612a09848285016127d1565b91505092915050565b600060608284031215612a2457600080fd5b6000612a3284828501612832565b91505092915050565b60008060408385031215612a4e57600080fd5b6000612a5c85828601612935565b9250506020612a6d8582860161296d565b9150509250929050565b600060208284031215612a8957600080fd5b6000612a978482850161296d565b91505092915050565b600060208284031215612ab257600080fd5b6000612ac084828501612982565b91505092915050565b60008060408385031215612adc57600080fd5b6000612aea8582860161296d565b9250506020612afb858286016127a7565b9150509250929050565b60008060608385031215612b1857600080fd5b6000612b268582860161296d565b9250506020612b37858286016127e6565b9150509250929050565b60008060808385031215612b5457600080fd5b6000612b628582860161296d565b9250506020612b7385828601612832565b9150509250929050565b60008060c08385031215612b9057600080fd5b6000612b9e8582860161296d565b9250506020612baf85828601612892565b9150509250929050565b600080600060e08486031215612bce57600080fd5b6000612bdc8682870161296d565b9350506020612bed868287016128ad565b92505060c0612bfe868287016127a7565b9150509250925092565b60008060408385031215612c1b57600080fd5b6000612c298582860161296d565b9250506020612c3a8582860161296d565b9150509250929050565b612c4d816138e9565b82525050565b612c5c816138e9565b82525050565b612c6b816138fb565b82525050565b6000612c7c82613607565b612c86818561361d565b9350612c96818560208601613931565b80840191505092915050565b6000612cad82613612565b612cb78185613628565b9350612cc7818560208601613931565b612cd081613a56565b840191505092915050565b6000612ce8602b83613628565b9150612cf382613a81565b604082019050919050565b6000612d0b602883613628565b9150612d1682613ad0565b604082019050919050565b6000612d2e602783613628565b9150612d3982613b1f565b604082019050919050565b6000612d51602283613628565b9150612d5c82613b6e565b604082019050919050565b6000612d74602783613628565b9150612d7f82613bbd565b604082019050919050565b6000612d97602583613628565b9150612da282613c0c565b604082019050919050565b6000612dba602683613628565b9150612dc582613c5b565b604082019050919050565b6000612ddd601e83613628565b9150612de882613caa565b602082019050919050565b6000612e00601e83613628565b9150612e0b82613cd3565b602082019050919050565b6000612e23601283613628565b9150612e2e82613cfc565b602082019050919050565b6000612e46601d83613628565b9150612e5182613d25565b602082019050919050565b6000612e69601b83613628565b9150612e7482613d4e565b602082019050919050565b6000612e8c602f83613628565b9150612e9782613d77565b604082019050919050565b6000612eaf602483613628565b9150612eba82613dc6565b604082019050919050565b6000612ed2601d83613628565b9150612edd82613e15565b602082019050919050565b6000612ef5601a83613628565b9150612f0082613e3e565b602082019050919050565b6000612f18602983613628565b9150612f2382613e67565b604082019050919050565b6000612f3b602a83613628565b9150612f4682613eb6565b604082019050919050565b6000612f5e603183613628565b9150612f6982613f05565b604082019050919050565b604082016000820151612f8a60008501826131af565b506020820151612f9d6020850182612c44565b50505050565b604082016000808301549050612fb88161397e565b612fc560008601826131af565b5060018301549050612fd681613964565b612fe36020860182612c44565b5050505050565b606082016000820151613000600085018261316a565b506020820151613013602085018261316a565b506040820151613026604085018261316a565b50505050565b6060820160008083016130426000860182613186565b50600183016130546020860182613186565b50600283016130666040860182613186565b5050505050565b60a08201600082015161308360008501826131af565b5060208201516130966020850182612c44565b5060408201516130a96040850182612c44565b5060608201516130bc6060850182612c44565b5060808201516130cf608085018261316a565b50505050565b60a0820160008083015490506130ea8161397e565b6130f760008601826131af565b506001830154905061310881613964565b6131156020860182612c44565b506002830154905061312681613964565b6131336040860182612c44565b506003830154905061314481613964565b6131516060860182612c44565b50600483016131636080860182613186565b5050505050565b60208201600082015161318060008501826131af565b50505050565b60208201600080830154905061319b8161397e565b6131a860008601826131af565b5050505050565b6131b881613927565b82525050565b6131c781613927565b82525050565b60006131d98284612c71565b915081905092915050565b60006020820190506131f96000830184612c53565b92915050565b60006060820190506132146000830186612c53565b6132216020830185612c53565b61322e60408301846131be565b949350505050565b600060408201905061324b6000830185612c53565b61325860208301846131be565b9392505050565b60006020820190506132746000830184612c62565b92915050565b600060208201905081810360008301526132948184612ca2565b905092915050565b600060208201905081810360008301526132b581612cdb565b9050919050565b600060208201905081810360008301526132d581612cfe565b9050919050565b600060208201905081810360008301526132f581612d21565b9050919050565b6000602082019050818103600083015261331581612d44565b9050919050565b6000602082019050818103600083015261333581612d67565b9050919050565b6000602082019050818103600083015261335581612d8a565b9050919050565b6000602082019050818103600083015261337581612dad565b9050919050565b6000602082019050818103600083015261339581612dd0565b9050919050565b600060208201905081810360008301526133b581612df3565b9050919050565b600060208201905081810360008301526133d581612e16565b9050919050565b600060208201905081810360008301526133f581612e39565b9050919050565b6000602082019050818103600083015261341581612e5c565b9050919050565b6000602082019050818103600083015261343581612e7f565b9050919050565b6000602082019050818103600083015261345581612ea2565b9050919050565b6000602082019050818103600083015261347581612ec5565b9050919050565b6000602082019050818103600083015261349581612ee8565b9050919050565b600060208201905081810360008301526134b581612f0b565b9050919050565b600060208201905081810360008301526134d581612f2e565b9050919050565b600060208201905081810360008301526134f581612f51565b9050919050565b60006040820190506135116000830184612f74565b92915050565b600060408201905061352c6000830184612fa3565b92915050565b60006060820190506135476000830184612fea565b92915050565b6000606082019050613562600083018461302c565b92915050565b600060a08201905061357d600083018461306d565b92915050565b600060a08201905061359860008301846130d5565b92915050565b60006020820190506135b360008301846131be565b92915050565b60006040820190506135ce60008301856131be565b6135db6020830184612c53565b9392505050565b60006135ec6135fd565b90506135f88282613998565b919050565b6000604051905090565b600081519050919050565b600081519050919050565b600081905092915050565b600082825260208201905092915050565b600061364482613927565b915061364f83613927565b9250827fffffffffffffffffffffffffffffffffffffffffffffffffffffffffffffffff03821115613684576136836139c9565b5b828201905092915050565b600061369a82613927565b91506136a583613927565b9250826136b5576136b46139f8565b5b828204905092915050565b6000808291508390505b600185111561370a578086048111156136e6576136e56139c9565b5b60018516156136f55780820291505b808102905061370385613a74565b94506136ca565b94509492505050565b600061371e82613927565b915061372983613927565b92506137567fffffffffffffffffffffffffffffffffffffffffffffffffffffffffffffffff848461375e565b905092915050565b60008261376e576001905061382a565b8161377c576000905061382a565b8160018114613792576002811461379c576137cb565b600191505061382a565b60ff8411156137ae576137ad6139c9565b5b8360020a9150848211156137c5576137c46139c9565b5b5061382a565b5060208310610133831016604e8410600b84101617156138005782820a9050838111156137fb576137fa6139c9565b5b61382a565b61380d84848460016136c0565b92509050818404811115613824576138236139c9565b5b81810290505b9392505050565b600061383c82613927565b915061384783613927565b9250817fffffffffffffffffffffffffffffffffffffffffffffffffffffffffffffffff04831182151516156138805761387f6139c9565b5b828202905092915050565b600061389682613927565b91506138a183613927565b9250828210156138b4576138b36139c9565b5b828203905092915050565b600073ffffffffffffffffffffffffffffffffffffffff82169050919050565b6000819050919050565b60006138f482613907565b9050919050565b60008115159050919050565b600073ffffffffffffffffffffffffffffffffffffffff82169050919050565b6000819050919050565b60005b8381101561394f578082015181840152602081019050613934565b8381111561395e576000848401525b50505050565b600061397761397283613a67565b6138bf565b9050919050565b600061399161398c83613a67565b6138df565b9050919050565b6139a182613a56565b810181811067ffffffffffffffff821117156139c0576139bf613a27565b5b80604052505050565b7f4e487b7100000000000000000000000000000000000000000000000000000000600052601160045260246000fd5b7f4e487b7100000000000000000000000000000000000000000000000000000000600052601260045260246000fd5b7f4e487b7100000000000000000000000000000000000000000000000000000000600052604160045260246000fd5b6000601f19601f8301169050919050565b60008160001c9050919050565b60008160011c9050919050565b7f4d61726b65743a20496e76616c696420626964207368617265732c206d75737460008201527f2073756d20746f20313030000000000000000000000000000000000000000000602082015250565b7f4d61726b65743a206269642063757272656e63792063616e6e6f74206265203060008201527f2061646472657373000000000000000000000000000000000000000000000000602082015250565b7f4d61726b65743a2042696420696e76616c696420666f7220736861726520737060008201527f6c697474696e6700000000000000000000000000000000000000000000000000602082015250565b7f4d61726b65743a206269646465722063616e6e6f74206265203020616464726560008201527f7373000000000000000000000000000000000000000000000000000000000000602082015250565b7f4d61726b65743a2041736b20696e76616c696420666f7220736861726520737060008201527f6c697474696e6700000000000000000000000000000000000000000000000000602082015250565b7f4d61726b65743a2063616e6e6f742072656d6f76652062696420616d6f756e7460008201527f206f662030000000000000000000000000000000000000000000000000000000602082015250565b7f416464726573733a20696e73756666696369656e742062616c616e636520666f60008201527f722063616c6c0000000000000000000000000000000000000000000000000000602082015250565b7f4d61726b65743a2063616e6e6f742062696420616d6f756e74206f6620300000600082015250565b7f4d61726b65743a2063616e6e6f742061636365707420626964206f6620300000600082015250565b7f4d61726b65743a204f6e6c79206f776e65720000000000000000000000000000600082015250565b7f4d61726b65743a20556e65787065637465642062696420666f756e642e000000600082015250565b7f4d61726b65743a204f6e6c79206d6564696120636f6e74726163740000000000600082015250565b7f4d61726b65743a2053656c6c206f6e2066656520696e76616c696420666f722060008201527f73686172652073706c697474696e670000000000000000000000000000000000602082015250565b7f4d61726b65743a20496e76616c6964206269642073686172657320666f72207460008201527f6f6b656e00000000000000000000000000000000000000000000000000000000602082015250565b7f416464726573733a2063616c6c20746f206e6f6e2d636f6e7472616374000000600082015250565b7f4d61726b65743a20416c726561647920636f6e66696775726564000000000000600082015250565b7f4d61726b65743a2062696420726563697069656e742063616e6e6f742062652060008201527f3020616464726573730000000000000000000000000000000000000000000000602082015250565b7f5361666545524332303a204552433230206f7065726174696f6e20646964206e60008201527f6f74207375636365656400000000000000000000000000000000000000000000602082015250565b7f4d61726b65743a2063616e6e6f7420736574206d6564696120636f6e7472616360008201527f74206173207a65726f2061646472657373000000000000000000000000000000602082015250565b613f5d816138e9565b8114613f6857600080fd5b50565b613f74816138fb565b8114613f7f57600080fd5b50565b613f8b81613927565b8114613f9657600080fd5b5056fea2646970667358221220352344176445b40aef166ecc85c2c735013dcbe511de4c2d178a4f0d22f17bcf64736f6c63430008040033",
  "devdoc": {
    "kind": "dev",
    "methods": {},
    "title": "A Market for pieces of media",
    "version": 1
  },
  "userdoc": {
    "kind": "user",
    "methods": {
      "acceptBid(uint256,(uint256,address,address,address,(uint256)))": {
        "notice": "Accepts a bid from a particular bidder. Can only be called by the media contract. See {_finalizeNFTTransfer} Provided bid must match a bid in storage. This is to prevent a race condition where a bid may change while the acceptBid call is in transit. A bid cannot be accepted if it cannot be split equally into its shareholders. This should only revert in rare instances (example, a low bid with a zero-decimal token), but is necessary to ensure fairness to all shareholders."
      },
      "configure(address)": {
        "notice": "Sets the media contract address. This address is the only permitted address that can call the mutable functions. This method can only be called once."
      },
      "isValidBid(uint256,uint256)": {
        "notice": "Validates that the bid is valid by ensuring that the bid amount can be split perfectly into all the bid shares.  We do this by comparing the sum of the individual share values with the amount and ensuring they are equal. Because  the splitShare function uses integer division, any inconsistencies with the original and split sums would be due to  a bid splitting that does not perfectly divide the bid amount."
      },
      "isValidBidShares(((uint256),(uint256),(uint256)))": {
        "notice": "Validates that the provided bid shares sum to 100"
      },
      "removeAsk(uint256)": {
        "notice": "removes an ask for a token and emits an AskRemoved event"
      },
      "removeBid(uint256,address)": {
        "notice": "Removes the bid on a particular media for a bidder. The bid amount is transferred from this contract to the bidder, if they have a bid placed."
      },
      "setAsk(uint256,(uint256,address))": {
        "notice": "Sets the ask on a particular media. If the ask cannot be evenly split into the media's bid shares, this reverts."
      },
      "setBid(uint256,(uint256,address,address,address,(uint256)),address)": {
        "notice": "Sets the bid on a particular media for a bidder. The token being used to bid is transferred from the spender to this contract to be held until removed or accepted. If another bid already exists for the bidder, it is refunded."
      },
      "setBidShares(uint256,((uint256),(uint256),(uint256)))": {
        "notice": "Sets bid shares for a particular tokenId. These bid shares must sum to 100."
      },
      "splitShare((uint256),uint256)": {
        "notice": "return a % of the specified amount. This function is used to split a bid into shares for a media's shareholders."
      }
    },
    "notice": "This contract contains all of the market logic for Media",
    "version": 1
  },
  "storageLayout": {
    "storage": [
      {
        "astId": 3886,
        "contract": "contracts/nft/ZapMarket.sol:ZapMarket",
        "label": "mediaContract",
        "offset": 0,
        "slot": "0",
        "type": "t_address"
      },
      {
        "astId": 3888,
        "contract": "contracts/nft/ZapMarket.sol:ZapMarket",
        "label": "_owner",
        "offset": 0,
        "slot": "1",
        "type": "t_address"
      },
      {
        "astId": 3895,
        "contract": "contracts/nft/ZapMarket.sol:ZapMarket",
        "label": "_tokenBidders",
        "offset": 0,
        "slot": "2",
        "type": "t_mapping(t_uint256,t_mapping(t_address,t_struct(Bid)5761_storage))"
      },
      {
        "astId": 3900,
        "contract": "contracts/nft/ZapMarket.sol:ZapMarket",
        "label": "_bidShares",
        "offset": 0,
        "slot": "3",
        "type": "t_mapping(t_uint256,t_struct(BidShares)5776_storage)"
      },
      {
        "astId": 3905,
        "contract": "contracts/nft/ZapMarket.sol:ZapMarket",
        "label": "_tokenAsks",
        "offset": 0,
        "slot": "4",
        "type": "t_mapping(t_uint256,t_struct(Ask)5766_storage)"
      }
    ],
    "types": {
      "t_address": {
        "encoding": "inplace",
        "label": "address",
        "numberOfBytes": "20"
      },
      "t_mapping(t_address,t_struct(Bid)5761_storage)": {
        "encoding": "mapping",
        "key": "t_address",
        "label": "mapping(address => struct IMarket.Bid)",
        "numberOfBytes": "32",
        "value": "t_struct(Bid)5761_storage"
      },
      "t_mapping(t_uint256,t_mapping(t_address,t_struct(Bid)5761_storage))": {
        "encoding": "mapping",
        "key": "t_uint256",
        "label": "mapping(uint256 => mapping(address => struct IMarket.Bid))",
        "numberOfBytes": "32",
        "value": "t_mapping(t_address,t_struct(Bid)5761_storage)"
      },
      "t_mapping(t_uint256,t_struct(Ask)5766_storage)": {
        "encoding": "mapping",
        "key": "t_uint256",
        "label": "mapping(uint256 => struct IMarket.Ask)",
        "numberOfBytes": "32",
        "value": "t_struct(Ask)5766_storage"
      },
      "t_mapping(t_uint256,t_struct(BidShares)5776_storage)": {
        "encoding": "mapping",
        "key": "t_uint256",
        "label": "mapping(uint256 => struct IMarket.BidShares)",
        "numberOfBytes": "32",
        "value": "t_struct(BidShares)5776_storage"
      },
      "t_struct(Ask)5766_storage": {
        "encoding": "inplace",
        "label": "struct IMarket.Ask",
        "members": [
          {
            "astId": 5763,
            "contract": "contracts/nft/ZapMarket.sol:ZapMarket",
            "label": "amount",
            "offset": 0,
            "slot": "0",
            "type": "t_uint256"
          },
          {
            "astId": 5765,
            "contract": "contracts/nft/ZapMarket.sol:ZapMarket",
            "label": "currency",
            "offset": 0,
            "slot": "1",
            "type": "t_address"
          }
        ],
        "numberOfBytes": "64"
      },
      "t_struct(Bid)5761_storage": {
        "encoding": "inplace",
        "label": "struct IMarket.Bid",
        "members": [
          {
            "astId": 5751,
            "contract": "contracts/nft/ZapMarket.sol:ZapMarket",
            "label": "amount",
            "offset": 0,
            "slot": "0",
            "type": "t_uint256"
          },
          {
            "astId": 5753,
            "contract": "contracts/nft/ZapMarket.sol:ZapMarket",
            "label": "currency",
            "offset": 0,
            "slot": "1",
            "type": "t_address"
          },
          {
            "astId": 5755,
            "contract": "contracts/nft/ZapMarket.sol:ZapMarket",
            "label": "bidder",
            "offset": 0,
            "slot": "2",
            "type": "t_address"
          },
          {
            "astId": 5757,
            "contract": "contracts/nft/ZapMarket.sol:ZapMarket",
            "label": "recipient",
            "offset": 0,
            "slot": "3",
            "type": "t_address"
          },
          {
            "astId": 5760,
            "contract": "contracts/nft/ZapMarket.sol:ZapMarket",
            "label": "sellOnShare",
            "offset": 0,
            "slot": "4",
            "type": "t_struct(D256)2637_storage"
          }
        ],
        "numberOfBytes": "160"
      },
      "t_struct(BidShares)5776_storage": {
        "encoding": "inplace",
        "label": "struct IMarket.BidShares",
        "members": [
          {
            "astId": 5769,
            "contract": "contracts/nft/ZapMarket.sol:ZapMarket",
            "label": "prevOwner",
            "offset": 0,
            "slot": "0",
            "type": "t_struct(D256)2637_storage"
          },
          {
            "astId": 5772,
            "contract": "contracts/nft/ZapMarket.sol:ZapMarket",
            "label": "creator",
            "offset": 0,
            "slot": "1",
            "type": "t_struct(D256)2637_storage"
          },
          {
            "astId": 5775,
            "contract": "contracts/nft/ZapMarket.sol:ZapMarket",
            "label": "owner",
            "offset": 0,
            "slot": "2",
            "type": "t_struct(D256)2637_storage"
          }
        ],
        "numberOfBytes": "96"
      },
      "t_struct(D256)2637_storage": {
        "encoding": "inplace",
        "label": "struct Decimal.D256",
        "members": [
          {
            "astId": 2636,
            "contract": "contracts/nft/ZapMarket.sol:ZapMarket",
            "label": "value",
            "offset": 0,
            "slot": "0",
            "type": "t_uint256"
          }
        ],
        "numberOfBytes": "32"
      },
      "t_uint256": {
        "encoding": "inplace",
        "label": "uint256",
        "numberOfBytes": "32"
      }
    }
  }
}