{
  "address": "0x5FbDB2315678afecb367f032d93F642f64180aa3",
  "abi": [
    {
      "inputs": [],
      "stateMutability": "nonpayable",
      "type": "constructor"
    },
    {
      "anonymous": false,
      "inputs": [
        {
          "indexed": true,
          "internalType": "uint256",
          "name": "tokenId",
          "type": "uint256"
        },
        {
          "components": [
            {
              "internalType": "uint256",
              "name": "amount",
              "type": "uint256"
            },
            {
              "internalType": "address",
              "name": "currency",
              "type": "address"
            }
          ],
          "indexed": false,
          "internalType": "struct IMarket.Ask",
          "name": "ask",
          "type": "tuple"
        }
      ],
      "name": "AskCreated",
      "type": "event"
    },
    {
      "anonymous": false,
      "inputs": [
        {
          "indexed": true,
          "internalType": "uint256",
          "name": "tokenId",
          "type": "uint256"
        },
        {
          "components": [
            {
              "internalType": "uint256",
              "name": "amount",
              "type": "uint256"
            },
            {
              "internalType": "address",
              "name": "currency",
              "type": "address"
            }
          ],
          "indexed": false,
          "internalType": "struct IMarket.Ask",
          "name": "ask",
          "type": "tuple"
        }
      ],
      "name": "AskRemoved",
      "type": "event"
    },
    {
      "anonymous": false,
      "inputs": [
        {
          "indexed": true,
          "internalType": "uint256",
          "name": "tokenId",
          "type": "uint256"
        },
        {
          "components": [
            {
              "internalType": "uint256",
              "name": "amount",
              "type": "uint256"
            },
            {
              "internalType": "address",
              "name": "currency",
              "type": "address"
            },
            {
              "internalType": "address",
              "name": "bidder",
              "type": "address"
            },
            {
              "internalType": "address",
              "name": "recipient",
              "type": "address"
            },
            {
              "components": [
                {
                  "internalType": "uint256",
                  "name": "value",
                  "type": "uint256"
                }
              ],
              "internalType": "struct Decimal.D256",
              "name": "sellOnShare",
              "type": "tuple"
            }
          ],
          "indexed": false,
          "internalType": "struct IMarket.Bid",
          "name": "bid",
          "type": "tuple"
        }
      ],
      "name": "BidCreated",
      "type": "event"
    },
    {
      "anonymous": false,
      "inputs": [
        {
          "indexed": true,
          "internalType": "uint256",
          "name": "tokenId",
          "type": "uint256"
        },
        {
          "components": [
            {
              "internalType": "uint256",
              "name": "amount",
              "type": "uint256"
            },
            {
              "internalType": "address",
              "name": "currency",
              "type": "address"
            },
            {
              "internalType": "address",
              "name": "bidder",
              "type": "address"
            },
            {
              "internalType": "address",
              "name": "recipient",
              "type": "address"
            },
            {
              "components": [
                {
                  "internalType": "uint256",
                  "name": "value",
                  "type": "uint256"
                }
              ],
              "internalType": "struct Decimal.D256",
              "name": "sellOnShare",
              "type": "tuple"
            }
          ],
          "indexed": false,
          "internalType": "struct IMarket.Bid",
          "name": "bid",
          "type": "tuple"
        }
      ],
      "name": "BidFinalized",
      "type": "event"
    },
    {
      "anonymous": false,
      "inputs": [
        {
          "indexed": true,
          "internalType": "uint256",
          "name": "tokenId",
          "type": "uint256"
        },
        {
          "components": [
            {
              "internalType": "uint256",
              "name": "amount",
              "type": "uint256"
            },
            {
              "internalType": "address",
              "name": "currency",
              "type": "address"
            },
            {
              "internalType": "address",
              "name": "bidder",
              "type": "address"
            },
            {
              "internalType": "address",
              "name": "recipient",
              "type": "address"
            },
            {
              "components": [
                {
                  "internalType": "uint256",
                  "name": "value",
                  "type": "uint256"
                }
              ],
              "internalType": "struct Decimal.D256",
              "name": "sellOnShare",
              "type": "tuple"
            }
          ],
          "indexed": false,
          "internalType": "struct IMarket.Bid",
          "name": "bid",
          "type": "tuple"
        }
      ],
      "name": "BidRemoved",
      "type": "event"
    },
    {
      "anonymous": false,
      "inputs": [
        {
          "indexed": true,
          "internalType": "uint256",
          "name": "tokenId",
          "type": "uint256"
        },
        {
          "components": [
            {
              "components": [
                {
                  "internalType": "uint256",
                  "name": "value",
                  "type": "uint256"
                }
              ],
              "internalType": "struct Decimal.D256",
              "name": "prevOwner",
              "type": "tuple"
            },
            {
              "components": [
                {
                  "internalType": "uint256",
                  "name": "value",
                  "type": "uint256"
                }
              ],
              "internalType": "struct Decimal.D256",
              "name": "creator",
              "type": "tuple"
            },
            {
              "components": [
                {
                  "internalType": "uint256",
                  "name": "value",
                  "type": "uint256"
                }
              ],
              "internalType": "struct Decimal.D256",
              "name": "owner",
              "type": "tuple"
            }
          ],
          "indexed": false,
          "internalType": "struct IMarket.BidShares",
          "name": "bidShares",
          "type": "tuple"
        }
      ],
      "name": "BidShareUpdated",
      "type": "event"
    },
    {
      "inputs": [
        {
          "internalType": "uint256",
          "name": "tokenId",
          "type": "uint256"
        },
        {
          "components": [
            {
              "internalType": "uint256",
              "name": "amount",
              "type": "uint256"
            },
            {
              "internalType": "address",
              "name": "currency",
              "type": "address"
            },
            {
              "internalType": "address",
              "name": "bidder",
              "type": "address"
            },
            {
              "internalType": "address",
              "name": "recipient",
              "type": "address"
            },
            {
              "components": [
                {
                  "internalType": "uint256",
                  "name": "value",
                  "type": "uint256"
                }
              ],
              "internalType": "struct Decimal.D256",
              "name": "sellOnShare",
              "type": "tuple"
            }
          ],
          "internalType": "struct IMarket.Bid",
          "name": "expectedBid",
          "type": "tuple"
        }
      ],
      "name": "acceptBid",
      "outputs": [],
      "stateMutability": "nonpayable",
      "type": "function"
    },
    {
      "inputs": [
        {
          "internalType": "uint256",
          "name": "tokenId",
          "type": "uint256"
        },
        {
          "internalType": "address",
          "name": "bidder",
          "type": "address"
        }
      ],
      "name": "bidForTokenBidder",
      "outputs": [
        {
          "components": [
            {
              "internalType": "uint256",
              "name": "amount",
              "type": "uint256"
            },
            {
              "internalType": "address",
              "name": "currency",
              "type": "address"
            },
            {
              "internalType": "address",
              "name": "bidder",
              "type": "address"
            },
            {
              "internalType": "address",
              "name": "recipient",
              "type": "address"
            },
            {
              "components": [
                {
                  "internalType": "uint256",
                  "name": "value",
                  "type": "uint256"
                }
              ],
              "internalType": "struct Decimal.D256",
              "name": "sellOnShare",
              "type": "tuple"
            }
          ],
          "internalType": "struct IMarket.Bid",
          "name": "",
          "type": "tuple"
        }
      ],
      "stateMutability": "view",
      "type": "function"
    },
    {
      "inputs": [
        {
          "internalType": "uint256",
          "name": "tokenId",
          "type": "uint256"
        }
      ],
      "name": "bidSharesForToken",
      "outputs": [
        {
          "components": [
            {
              "components": [
                {
                  "internalType": "uint256",
                  "name": "value",
                  "type": "uint256"
                }
              ],
              "internalType": "struct Decimal.D256",
              "name": "prevOwner",
              "type": "tuple"
            },
            {
              "components": [
                {
                  "internalType": "uint256",
                  "name": "value",
                  "type": "uint256"
                }
              ],
              "internalType": "struct Decimal.D256",
              "name": "creator",
              "type": "tuple"
            },
            {
              "components": [
                {
                  "internalType": "uint256",
                  "name": "value",
                  "type": "uint256"
                }
              ],
              "internalType": "struct Decimal.D256",
              "name": "owner",
              "type": "tuple"
            }
          ],
          "internalType": "struct IMarket.BidShares",
          "name": "",
          "type": "tuple"
        }
      ],
      "stateMutability": "view",
      "type": "function"
    },
    {
      "inputs": [
        {
          "internalType": "address",
          "name": "mediaContractAddress",
          "type": "address"
        }
      ],
      "name": "configure",
      "outputs": [],
      "stateMutability": "nonpayable",
      "type": "function"
    },
    {
      "inputs": [
        {
          "internalType": "uint256",
          "name": "tokenId",
          "type": "uint256"
        }
      ],
      "name": "currentAskForToken",
      "outputs": [
        {
          "components": [
            {
              "internalType": "uint256",
              "name": "amount",
              "type": "uint256"
            },
            {
              "internalType": "address",
              "name": "currency",
              "type": "address"
            }
          ],
          "internalType": "struct IMarket.Ask",
          "name": "",
          "type": "tuple"
        }
      ],
      "stateMutability": "view",
      "type": "function"
    },
    {
      "inputs": [
        {
          "internalType": "address",
          "name": "",
          "type": "address"
        }
      ],
      "name": "isConfigured",
      "outputs": [
        {
          "internalType": "bool",
          "name": "",
          "type": "bool"
        }
      ],
      "stateMutability": "view",
      "type": "function"
    },
    {
      "inputs": [
        {
          "internalType": "uint256",
          "name": "tokenId",
          "type": "uint256"
        },
        {
          "internalType": "uint256",
          "name": "bidAmount",
          "type": "uint256"
        }
      ],
      "name": "isValidBid",
      "outputs": [
        {
          "internalType": "bool",
          "name": "",
          "type": "bool"
        }
      ],
      "stateMutability": "view",
      "type": "function"
    },
    {
      "inputs": [
        {
          "components": [
            {
              "components": [
                {
                  "internalType": "uint256",
                  "name": "value",
                  "type": "uint256"
                }
              ],
              "internalType": "struct Decimal.D256",
              "name": "prevOwner",
              "type": "tuple"
            },
            {
              "components": [
                {
                  "internalType": "uint256",
                  "name": "value",
                  "type": "uint256"
                }
              ],
              "internalType": "struct Decimal.D256",
              "name": "creator",
              "type": "tuple"
            },
            {
              "components": [
                {
                  "internalType": "uint256",
                  "name": "value",
                  "type": "uint256"
                }
              ],
              "internalType": "struct Decimal.D256",
              "name": "owner",
              "type": "tuple"
            }
          ],
          "internalType": "struct IMarket.BidShares",
          "name": "bidShares",
          "type": "tuple"
        }
      ],
      "name": "isValidBidShares",
      "outputs": [
        {
          "internalType": "bool",
          "name": "",
          "type": "bool"
        }
      ],
      "stateMutability": "pure",
      "type": "function"
    },
    {
      "inputs": [
        {
          "internalType": "address",
          "name": "",
          "type": "address"
        }
      ],
      "name": "mediaContract",
      "outputs": [
        {
          "internalType": "address",
          "name": "",
          "type": "address"
        }
      ],
      "stateMutability": "view",
      "type": "function"
    },
    {
      "inputs": [
        {
          "internalType": "uint256",
          "name": "tokenId",
          "type": "uint256"
        }
      ],
      "name": "removeAsk",
      "outputs": [],
      "stateMutability": "nonpayable",
      "type": "function"
    },
    {
      "inputs": [
        {
          "internalType": "uint256",
          "name": "tokenId",
          "type": "uint256"
        },
        {
          "internalType": "address",
          "name": "bidder",
          "type": "address"
        }
      ],
      "name": "removeBid",
      "outputs": [],
      "stateMutability": "nonpayable",
      "type": "function"
    },
    {
      "inputs": [
        {
          "internalType": "uint256",
          "name": "tokenId",
          "type": "uint256"
        },
        {
          "components": [
            {
              "internalType": "uint256",
              "name": "amount",
              "type": "uint256"
            },
            {
              "internalType": "address",
              "name": "currency",
              "type": "address"
            }
          ],
          "internalType": "struct IMarket.Ask",
          "name": "ask",
          "type": "tuple"
        }
      ],
      "name": "setAsk",
      "outputs": [],
      "stateMutability": "nonpayable",
      "type": "function"
    },
    {
      "inputs": [
        {
          "internalType": "uint256",
          "name": "tokenId",
          "type": "uint256"
        },
        {
          "components": [
            {
              "internalType": "uint256",
              "name": "amount",
              "type": "uint256"
            },
            {
              "internalType": "address",
              "name": "currency",
              "type": "address"
            },
            {
              "internalType": "address",
              "name": "bidder",
              "type": "address"
            },
            {
              "internalType": "address",
              "name": "recipient",
              "type": "address"
            },
            {
              "components": [
                {
                  "internalType": "uint256",
                  "name": "value",
                  "type": "uint256"
                }
              ],
              "internalType": "struct Decimal.D256",
              "name": "sellOnShare",
              "type": "tuple"
            }
          ],
          "internalType": "struct IMarket.Bid",
          "name": "bid",
          "type": "tuple"
        },
        {
          "internalType": "address",
          "name": "spender",
          "type": "address"
        }
      ],
      "name": "setBid",
      "outputs": [],
      "stateMutability": "nonpayable",
      "type": "function"
    },
    {
      "inputs": [
        {
          "internalType": "uint256",
          "name": "tokenId",
          "type": "uint256"
        },
        {
          "components": [
            {
              "components": [
                {
                  "internalType": "uint256",
                  "name": "value",
                  "type": "uint256"
                }
              ],
              "internalType": "struct Decimal.D256",
              "name": "prevOwner",
              "type": "tuple"
            },
            {
              "components": [
                {
                  "internalType": "uint256",
                  "name": "value",
                  "type": "uint256"
                }
              ],
              "internalType": "struct Decimal.D256",
              "name": "creator",
              "type": "tuple"
            },
            {
              "components": [
                {
                  "internalType": "uint256",
                  "name": "value",
                  "type": "uint256"
                }
              ],
              "internalType": "struct Decimal.D256",
              "name": "owner",
              "type": "tuple"
            }
          ],
          "internalType": "struct IMarket.BidShares",
          "name": "bidShares",
          "type": "tuple"
        }
      ],
      "name": "setBidShares",
      "outputs": [],
      "stateMutability": "nonpayable",
      "type": "function"
    },
    {
      "inputs": [
        {
          "components": [
            {
              "internalType": "uint256",
              "name": "value",
              "type": "uint256"
            }
          ],
          "internalType": "struct Decimal.D256",
          "name": "sharePercentage",
          "type": "tuple"
        },
        {
          "internalType": "uint256",
          "name": "amount",
          "type": "uint256"
        }
      ],
      "name": "splitShare",
      "outputs": [
        {
          "internalType": "uint256",
          "name": "",
          "type": "uint256"
        }
      ],
      "stateMutability": "pure",
      "type": "function"
    }
  ],
  "transactionHash": "0x45e1395b011e7c099c059e5dc710661909815923a286cf755d3e8a196d48bc4c",
  "args": [],
  "solcInputHash": "900710d24f775b52062e483c4e8cd116",
  "bytecode": "0x608060405234801561001057600080fd5b5033600160006101000a81548173ffffffffffffffffffffffffffffffffffffffff021916908373ffffffffffffffffffffffffffffffffffffffff16021790555061383b806100616000396000f3fe608060405234801561001057600080fd5b50600436106100f55760003560e01c806375cb267211610097578063ba33939911610066578063ba339399146102ba578063bdb58698146102d6578063eb55683a146102f2578063f9ce05821461030e576100f5565b806375cb267214610222578063776a08351461023e578063ad827dc41461025a578063b920c1231461028a576100f5565b806336490ad3116100d357806336490ad314610176578063483c89c2146101a6578063578064f6146101d657806362f24b7014610206576100f5565b806302e8fe13146100fa57806328220f351461012a578063360636eb14610146575b600080fd5b610114600480360381019061010f9190612575565b61033e565b6040516101219190612b86565b60405180910390f35b610144600480360381019061013f91906123e4565b6103f8565b005b610160600480360381019061015b919061237f565b61048a565b60405161016d9190612b86565b60405180910390f35b610190600480360381019061018b919061232d565b6104f2565b60405161019d9190612b86565b60405180910390f35b6101c060048036038101906101bb919061232d565b610512565b6040516101cd9190612b0b565b60405180910390f35b6101f060048036038101906101eb91906123e4565b610545565b6040516101fd9190612de3565b60405180910390f35b610220600480360381019061021b9190612472565b6105d2565b005b61023c6004803603810190610237919061232d565b6106c3565b005b61025860048036038101906102539190612436565b61089f565b005b610274600480360381019061026f9190612436565b610abb565b6040516102819190612e4f565b60405180910390f35b6102a4600480360381019061029f91906123a8565b610c50565b6040516102b19190612e85565b60405180910390f35b6102d460048036038101906102cf91906124ea565b610c77565b005b6102f060048036038101906102eb9190612526565b610fa9565b005b61030c600480360381019061030791906124ae565b611740565b005b610328600480360381019061032391906123e4565b61181a565b6040516103359190612e19565b60405180910390f35b60008061034a8461181a565b90506103558161048a565b610394576040517f08c379a000000000000000000000000000000000000000000000000000000000815260040161038b90612d23565b60405180910390fd5b600083141580156103ef57506103ec6103b1826040015185610c50565b6103de6103c2846000015187610c50565b6103d0856020015188610c50565b6118a190919063ffffffff16565b6118a190919063ffffffff16565b83145b91505092915050565b807fbf58f6d6c7d7c6efc69e7444efa93ed26d7cdc0e82e12a37df96f36a367561df6004600084815260200190815260200160002060405161043a9190612dfe565b60405180910390a2600460008281526020019081526020016000206000808201600090556001820160006101000a81549073ffffffffffffffffffffffffffffffffffffffff0219169055505050565b60006104ad6012600a61049d9190612fd1565b60646118b790919063ffffffff16565b6104ea8360000151600001516104dc8560400151600001518660200151600001516118a190919063ffffffff16565b6118a190919063ffffffff16565b149050919050565b60056020528060005260406000206000915054906101000a900460ff1681565b60006020528060005260406000206000915054906101000a900473ffffffffffffffffffffffffffffffffffffffff1681565b61054d612065565b60046000838152602001908152602001600020604051806040016040529081600082015481526020016001820160009054906101000a900473ffffffffffffffffffffffffffffffffffffffff1673ffffffffffffffffffffffffffffffffffffffff1673ffffffffffffffffffffffffffffffffffffffff16815250509050919050565b6105e082826000015161033e565b61061f576040517f08c379a000000000000000000000000000000000000000000000000000000000815260040161061690612c43565b60405180910390fd5b80600460008481526020019081526020016000206000820151816000015560208201518160010160006101000a81548173ffffffffffffffffffffffffffffffffffffffff021916908373ffffffffffffffffffffffffffffffffffffffff160217905550905050817ff7347cb9e91d8cbe995b51920ba5f92cbf84a9e09cbed3cd7a739fef4d1d07cf826040516106b79190612de3565b60405180910390a25050565b60011515600560008373ffffffffffffffffffffffffffffffffffffffff1673ffffffffffffffffffffffffffffffffffffffff16815260200190815260200160002060009054906101000a900460ff1615151415610757576040517f08c379a000000000000000000000000000000000000000000000000000000000815260040161074e90612d63565b60405180910390fd5b600073ffffffffffffffffffffffffffffffffffffffff168173ffffffffffffffffffffffffffffffffffffffff1614156107c7576040517f08c379a00000000000000000000000000000000000000000000000000000000081526004016107be90612dc3565b60405180910390fd5b6001600560008373ffffffffffffffffffffffffffffffffffffffff1673ffffffffffffffffffffffffffffffffffffffff16815260200190815260200160002060006101000a81548160ff021916908315150217905550806000803373ffffffffffffffffffffffffffffffffffffffff1673ffffffffffffffffffffffffffffffffffffffff16815260200190815260200160002060006101000a81548173ffffffffffffffffffffffffffffffffffffffff021916908373ffffffffffffffffffffffffffffffffffffffff16021790555050565b60006002600084815260200190815260200160002060008373ffffffffffffffffffffffffffffffffffffffff1673ffffffffffffffffffffffffffffffffffffffff168152602001908152602001600020905060008160000154905060008260010160009054906101000a900473ffffffffffffffffffffffffffffffffffffffff169050600083600001541161096c576040517f08c379a000000000000000000000000000000000000000000000000000000000815260040161096390612c63565b60405180910390fd5b6000819050857fcbebd567b8a5c57f63ec61dc46746aab28daff6bdd1f4a6a0a305c17fa5465c9856040516109a19190612e6a565b60405180910390a26002600087815260200190815260200160002060008673ffffffffffffffffffffffffffffffffffffffff1673ffffffffffffffffffffffffffffffffffffffff1681526020019081526020016000206000808201600090556001820160006101000a81549073ffffffffffffffffffffffffffffffffffffffff02191690556002820160006101000a81549073ffffffffffffffffffffffffffffffffffffffff02191690556003820160006101000a81549073ffffffffffffffffffffffffffffffffffffffff02191690556004820160008082016000905550505050610ab385848373ffffffffffffffffffffffffffffffffffffffff166118cd9092919063ffffffff16565b505050505050565b610ac3612095565b6002600084815260200190815260200160002060008373ffffffffffffffffffffffffffffffffffffffff1673ffffffffffffffffffffffffffffffffffffffff1681526020019081526020016000206040518060a0016040529081600082015481526020016001820160009054906101000a900473ffffffffffffffffffffffffffffffffffffffff1673ffffffffffffffffffffffffffffffffffffffff1673ffffffffffffffffffffffffffffffffffffffff1681526020016002820160009054906101000a900473ffffffffffffffffffffffffffffffffffffffff1673ffffffffffffffffffffffffffffffffffffffff1673ffffffffffffffffffffffffffffffffffffffff1681526020016003820160009054906101000a900473ffffffffffffffffffffffffffffffffffffffff1673ffffffffffffffffffffffffffffffffffffffff1673ffffffffffffffffffffffffffffffffffffffff1681526020016004820160405180602001604052908160008201548152505081525050905092915050565b6000610c6f6064610c618486611953565b61197990919063ffffffff16565b905092915050565b6000600260008481526020019081526020016000206000836040016020810190610ca1919061232d565b73ffffffffffffffffffffffffffffffffffffffff1673ffffffffffffffffffffffffffffffffffffffff1681526020019081526020016000206040518060a0016040529081600082015481526020016001820160009054906101000a900473ffffffffffffffffffffffffffffffffffffffff1673ffffffffffffffffffffffffffffffffffffffff1673ffffffffffffffffffffffffffffffffffffffff1681526020016002820160009054906101000a900473ffffffffffffffffffffffffffffffffffffffff1673ffffffffffffffffffffffffffffffffffffffff1673ffffffffffffffffffffffffffffffffffffffff1681526020016003820160009054906101000a900473ffffffffffffffffffffffffffffffffffffffff1673ffffffffffffffffffffffffffffffffffffffff1673ffffffffffffffffffffffffffffffffffffffff168152602001600482016040518060200160405290816000820154815250508152505090506000816000015111610e59576040517f08c379a0000000000000000000000000000000000000000000000000000000008152600401610e5090612cc3565b60405180910390fd5b81600001358160000151148015610eb15750816020016020810190610e7e919061232d565b73ffffffffffffffffffffffffffffffffffffffff16816020015173ffffffffffffffffffffffffffffffffffffffff16145b8015610ecb57508160800160000135816080015160000151145b8015610f185750816060016020810190610ee5919061232d565b73ffffffffffffffffffffffffffffffffffffffff16816060015173ffffffffffffffffffffffffffffffffffffffff16145b610f57576040517f08c379a0000000000000000000000000000000000000000000000000000000008152600401610f4e90612ce3565b60405180910390fd5b610f6583826000015161033e565b610fa4576040517f08c379a0000000000000000000000000000000000000000000000000000000008152600401610f9b90612c03565b60405180910390fd5b505050565b600060036000858152602001908152602001600020604051806060016040529081600082016040518060200160405290816000820154815250508152602001600182016040518060200160405290816000820154815250508152602001600282016040518060200160405290816000820154815250508152505090506110466012600a6110369190612fd1565b60646118b790919063ffffffff16565b6110698460800151600001518360200151600001516118a190919063ffffffff16565b11156110aa576040517f08c379a00000000000000000000000000000000000000000000000000000000081526004016110a190612d03565b60405180910390fd5b600073ffffffffffffffffffffffffffffffffffffffff16836040015173ffffffffffffffffffffffffffffffffffffffff16141561111e576040517f08c379a000000000000000000000000000000000000000000000000000000000815260040161111590612c23565b60405180910390fd5b600083600001511415611166576040517f08c379a000000000000000000000000000000000000000000000000000000000815260040161115d90612ca3565b60405180910390fd5b600073ffffffffffffffffffffffffffffffffffffffff16836020015173ffffffffffffffffffffffffffffffffffffffff1614156111da576040517f08c379a00000000000000000000000000000000000000000000000000000000081526004016111d190612be3565b60405180910390fd5b600073ffffffffffffffffffffffffffffffffffffffff16836060015173ffffffffffffffffffffffffffffffffffffffff16141561124e576040517f08c379a000000000000000000000000000000000000000000000000000000000815260040161124590612d83565b60405180910390fd5b6000600260008681526020019081526020016000206000856040015173ffffffffffffffffffffffffffffffffffffffff1673ffffffffffffffffffffffffffffffffffffffff16815260200190815260200160002090506000816000015411156112c2576112c185856040015161089f565b5b60008460200151905060008173ffffffffffffffffffffffffffffffffffffffff166370a08231306040518263ffffffff1660e01b81526004016113069190612b0b565b60206040518083038186803b15801561131e57600080fd5b505afa158015611332573d6000803e3d6000fd5b505050506040513d601f19601f82011682018060405250810190611356919061240d565b9050611389853088600001518573ffffffffffffffffffffffffffffffffffffffff1661198f909392919063ffffffff16565b60008273ffffffffffffffffffffffffffffffffffffffff166370a08231306040518263ffffffff1660e01b81526004016113c49190612b0b565b60206040518083038186803b1580156113dc57600080fd5b505afa1580156113f0573d6000803e3d6000fd5b505050506040513d601f19601f82011682018060405250810190611414919061240d565b90506040518060a001604052806114348484611a1890919063ffffffff16565b8152602001886020015173ffffffffffffffffffffffffffffffffffffffff168152602001886040015173ffffffffffffffffffffffffffffffffffffffff168152602001886060015173ffffffffffffffffffffffffffffffffffffffff1681526020018860800151815250600260008a81526020019081526020016000206000896040015173ffffffffffffffffffffffffffffffffffffffff1673ffffffffffffffffffffffffffffffffffffffff1681526020019081526020016000206000820151816000015560208201518160010160006101000a81548173ffffffffffffffffffffffffffffffffffffffff021916908373ffffffffffffffffffffffffffffffffffffffff16021790555060408201518160020160006101000a81548173ffffffffffffffffffffffffffffffffffffffff021916908373ffffffffffffffffffffffffffffffffffffffff16021790555060608201518160030160006101000a81548173ffffffffffffffffffffffffffffffffffffffff021916908373ffffffffffffffffffffffffffffffffffffffff160217905550608082015181600401600082015181600001555050905050877f327bc9021bfbee403a11b13dd6c819999006aff090cc129f07e9f2840af38dd58860405161161c9190612e4f565b60405180910390a2600073ffffffffffffffffffffffffffffffffffffffff16600460008a815260200190815260200160002060010160009054906101000a900473ffffffffffffffffffffffffffffffffffffffff1673ffffffffffffffffffffffffffffffffffffffff16141580156116fc57506004600089815260200190815260200160002060010160009054906101000a900473ffffffffffffffffffffffffffffffffffffffff1673ffffffffffffffffffffffffffffffffffffffff16876020015173ffffffffffffffffffffffffffffffffffffffff16145b801561172257506004600089815260200190815260200160002060000154876000015110155b1561173657611735888860400151611a2e565b5b5050505050505050565b6117498161048a565b611788576040517f08c379a000000000000000000000000000000000000000000000000000000000815260040161177f90612bc3565b60405180910390fd5b8060036000848152602001908152602001600020600082015181600001600082015181600001555050602082015181600101600082015181600001555050604082015181600201600082015181600001555050905050817fdb88d4e96cb8697aaee5e575ee5f460817709a1dfcfbf7ba15192e90b5c86f9f8260405161180e9190612e19565b60405180910390a25050565b61182261210c565b6003600083815260200190815260200160002060405180606001604052908160008201604051806020016040529081600082015481525050815260200160018201604051806020016040529081600082015481525050815260200160028201604051806020016040529081600082015481525050815250509050919050565b600081836118af9190612ef7565b905092915050565b600081836118c591906130ef565b905092915050565b61194e8363a9059cbb60e01b84846040516024016118ec929190612b5d565b604051602081830303815290604052907bffffffffffffffffffffffffffffffffffffffffffffffffffffffff19166020820180517bffffffffffffffffffffffffffffffffffffffffffffffffffffffff8381831617835250505050611dc8565b505050565b60006119718383600001516012600a61196c9190612fd1565b611e8f565b905092915050565b600081836119879190612f4d565b905092915050565b611a12846323b872dd60e01b8585856040516024016119b093929190612b26565b604051602081830303815290604052907bffffffffffffffffffffffffffffffffffffffffffffffffffffffff19166020820180517bffffffffffffffffffffffffffffffffffffffffffffffffffffffff8381831617835250505050611dc8565b50505050565b60008183611a269190613149565b905092915050565b60006002600084815260200190815260200160002060008373ffffffffffffffffffffffffffffffffffffffff1673ffffffffffffffffffffffffffffffffffffffff1681526020019081526020016000206040518060a0016040529081600082015481526020016001820160009054906101000a900473ffffffffffffffffffffffffffffffffffffffff1673ffffffffffffffffffffffffffffffffffffffff1673ffffffffffffffffffffffffffffffffffffffff1681526020016002820160009054906101000a900473ffffffffffffffffffffffffffffffffffffffff1673ffffffffffffffffffffffffffffffffffffffff1673ffffffffffffffffffffffffffffffffffffffff1681526020016003820160009054906101000a900473ffffffffffffffffffffffffffffffffffffffff1673ffffffffffffffffffffffffffffffffffffffff1673ffffffffffffffffffffffffffffffffffffffff1681526020016004820160405180602001604052908160008201548152505081525050905060006003600085815260200190815260200160002090506000826020015190506040518060200160405280611c48856080015160000151611c3a600360008b815260200190815260200160002060010160000154611c2c6012600a611c1c9190612fd1565b60646118b790919063ffffffff16565b611a1890919063ffffffff16565b611a1890919063ffffffff16565b8152508260020160008201518160000155905050826080015182600001600082015181600001559050506002600086815260200190815260200160002060008573ffffffffffffffffffffffffffffffffffffffff1673ffffffffffffffffffffffffffffffffffffffff1681526020019081526020016000206000808201600090556001820160006101000a81549073ffffffffffffffffffffffffffffffffffffffff02191690556002820160006101000a81549073ffffffffffffffffffffffffffffffffffffffff02191690556003820160006101000a81549073ffffffffffffffffffffffffffffffffffffffff02191690556004820160008082016000905550505050847fdb88d4e96cb8697aaee5e575ee5f460817709a1dfcfbf7ba15192e90b5c86f9f83604051611d819190612e34565b60405180910390a2847fb6ef177c7a6f32b283a49b5e0463a39240cdaa278028dfb219480d050e8ee54c84604051611db99190612e4f565b60405180910390a25050505050565b6000611e2a826040518060400160405280602081526020017f5361666545524332303a206c6f772d6c6576656c2063616c6c206661696c65648152508573ffffffffffffffffffffffffffffffffffffffff16611ebf9092919063ffffffff16565b9050600081511115611e8a5780806020019051810190611e4a9190612356565b611e89576040517f08c379a0000000000000000000000000000000000000000000000000000000008152600401611e8090612da3565b60405180910390fd5b5b505050565b6000611eb682611ea885876118b790919063ffffffff16565b61197990919063ffffffff16565b90509392505050565b6060611ece8484600085611ed7565b90509392505050565b606082471015611f1c576040517f08c379a0000000000000000000000000000000000000000000000000000000008152600401611f1390612c83565b60405180910390fd5b611f2585611feb565b611f64576040517f08c379a0000000000000000000000000000000000000000000000000000000008152600401611f5b90612d43565b60405180910390fd5b6000808673ffffffffffffffffffffffffffffffffffffffff168587604051611f8d9190612af4565b60006040518083038185875af1925050503d8060008114611fca576040519150601f19603f3d011682016040523d82523d6000602084013e611fcf565b606091505b5091509150611fdf828286611ffe565b92505050949350505050565b600080823b905060008111915050919050565b6060831561200e5782905061205e565b6000835111156120215782518084602001fd5b816040517f08c379a00000000000000000000000000000000000000000000000000000000081526004016120559190612ba1565b60405180910390fd5b9392505050565b604051806040016040528060008152602001600073ffffffffffffffffffffffffffffffffffffffff1681525090565b6040518060a0016040528060008152602001600073ffffffffffffffffffffffffffffffffffffffff168152602001600073ffffffffffffffffffffffffffffffffffffffff168152602001600073ffffffffffffffffffffffffffffffffffffffff16815260200161210661213f565b81525090565b604051806060016040528061211f61213f565b815260200161212c61213f565b815260200161213961213f565b81525090565b6040518060200160405280600081525090565b600081359050612161816137c0565b92915050565b600081519050612176816137d7565b92915050565b60006040828403121561218e57600080fd5b6121986040612ea0565b905060006121a884828501612303565b60008301525060206121bc84828501612152565b60208301525092915050565b6000606082840312156121da57600080fd5b6121e46060612ea0565b905060006121f4848285016122cb565b6000830152506020612208848285016122cb565b602083015250604061221c848285016122cb565b60408301525092915050565b600060a0828403121561223a57600080fd5b81905092915050565b600060a0828403121561225557600080fd5b61225f60a0612ea0565b9050600061226f84828501612303565b600083015250602061228384828501612152565b602083015250604061229784828501612152565b60408301525060606122ab84828501612152565b60608301525060806122bf848285016122cb565b60808301525092915050565b6000602082840312156122dd57600080fd5b6122e76020612ea0565b905060006122f784828501612303565b60008301525092915050565b600081359050612312816137ee565b92915050565b600081519050612327816137ee565b92915050565b60006020828403121561233f57600080fd5b600061234d84828501612152565b91505092915050565b60006020828403121561236857600080fd5b600061237684828501612167565b91505092915050565b60006060828403121561239157600080fd5b600061239f848285016121c8565b91505092915050565b600080604083850312156123bb57600080fd5b60006123c9858286016122cb565b92505060206123da85828601612303565b9150509250929050565b6000602082840312156123f657600080fd5b600061240484828501612303565b91505092915050565b60006020828403121561241f57600080fd5b600061242d84828501612318565b91505092915050565b6000806040838503121561244957600080fd5b600061245785828601612303565b925050602061246885828601612152565b9150509250929050565b6000806060838503121561248557600080fd5b600061249385828601612303565b92505060206124a48582860161217c565b9150509250929050565b600080608083850312156124c157600080fd5b60006124cf85828601612303565b92505060206124e0858286016121c8565b9150509250929050565b60008060c083850312156124fd57600080fd5b600061250b85828601612303565b925050602061251c85828601612228565b9150509250929050565b600080600060e0848603121561253b57600080fd5b600061254986828701612303565b935050602061255a86828701612243565b92505060c061256b86828701612152565b9150509250925092565b6000806040838503121561258857600080fd5b600061259685828601612303565b92505060206125a785828601612303565b9150509250929050565b6125ba816131a7565b82525050565b6125c9816131a7565b82525050565b6125d8816131b9565b82525050565b60006125e982612ec5565b6125f38185612edb565b93506126038185602086016131ef565b80840191505092915050565b600061261a82612ed0565b6126248185612ee6565b93506126348185602086016131ef565b61263d81613314565b840191505092915050565b6000612655602b83612ee6565b91506126608261333f565b604082019050919050565b6000612678602883612ee6565b91506126838261338e565b604082019050919050565b600061269b602783612ee6565b91506126a6826133dd565b604082019050919050565b60006126be602283612ee6565b91506126c98261342c565b604082019050919050565b60006126e1602783612ee6565b91506126ec8261347b565b604082019050919050565b6000612704602583612ee6565b915061270f826134ca565b604082019050919050565b6000612727602683612ee6565b915061273282613519565b604082019050919050565b600061274a601e83612ee6565b915061275582613568565b602082019050919050565b600061276d601e83612ee6565b915061277882613591565b602082019050919050565b6000612790601d83612ee6565b915061279b826135ba565b602082019050919050565b60006127b3602f83612ee6565b91506127be826135e3565b604082019050919050565b60006127d6602483612ee6565b91506127e182613632565b604082019050919050565b60006127f9601d83612ee6565b915061280482613681565b602082019050919050565b600061281c601a83612ee6565b9150612827826136aa565b602082019050919050565b600061283f602983612ee6565b915061284a826136d3565b604082019050919050565b6000612862602a83612ee6565b915061286d82613722565b604082019050919050565b6000612885603183612ee6565b915061289082613771565b604082019050919050565b6040820160008201516128b16000850182612ad6565b5060208201516128c460208501826125b1565b50505050565b6040820160008083015490506128df8161323c565b6128ec6000860182612ad6565b50600183015490506128fd81613222565b61290a60208601826125b1565b5050505050565b6060820160008201516129276000850182612a91565b50602082015161293a6020850182612a91565b50604082015161294d6040850182612a91565b50505050565b6060820160008083016129696000860182612aad565b506001830161297b6020860182612aad565b506002830161298d6040860182612aad565b5050505050565b60a0820160008201516129aa6000850182612ad6565b5060208201516129bd60208501826125b1565b5060408201516129d060408501826125b1565b5060608201516129e360608501826125b1565b5060808201516129f66080850182612a91565b50505050565b60a082016000808301549050612a118161323c565b612a1e6000860182612ad6565b5060018301549050612a2f81613222565b612a3c60208601826125b1565b5060028301549050612a4d81613222565b612a5a60408601826125b1565b5060038301549050612a6b81613222565b612a7860608601826125b1565b5060048301612a8a6080860182612aad565b5050505050565b602082016000820151612aa76000850182612ad6565b50505050565b602082016000808301549050612ac28161323c565b612acf6000860182612ad6565b5050505050565b612adf816131e5565b82525050565b612aee816131e5565b82525050565b6000612b0082846125de565b915081905092915050565b6000602082019050612b2060008301846125c0565b92915050565b6000606082019050612b3b60008301866125c0565b612b4860208301856125c0565b612b556040830184612ae5565b949350505050565b6000604082019050612b7260008301856125c0565b612b7f6020830184612ae5565b9392505050565b6000602082019050612b9b60008301846125cf565b92915050565b60006020820190508181036000830152612bbb818461260f565b905092915050565b60006020820190508181036000830152612bdc81612648565b9050919050565b60006020820190508181036000830152612bfc8161266b565b9050919050565b60006020820190508181036000830152612c1c8161268e565b9050919050565b60006020820190508181036000830152612c3c816126b1565b9050919050565b60006020820190508181036000830152612c5c816126d4565b9050919050565b60006020820190508181036000830152612c7c816126f7565b9050919050565b60006020820190508181036000830152612c9c8161271a565b9050919050565b60006020820190508181036000830152612cbc8161273d565b9050919050565b60006020820190508181036000830152612cdc81612760565b9050919050565b60006020820190508181036000830152612cfc81612783565b9050919050565b60006020820190508181036000830152612d1c816127a6565b9050919050565b60006020820190508181036000830152612d3c816127c9565b9050919050565b60006020820190508181036000830152612d5c816127ec565b9050919050565b60006020820190508181036000830152612d7c8161280f565b9050919050565b60006020820190508181036000830152612d9c81612832565b9050919050565b60006020820190508181036000830152612dbc81612855565b9050919050565b60006020820190508181036000830152612ddc81612878565b9050919050565b6000604082019050612df8600083018461289b565b92915050565b6000604082019050612e1360008301846128ca565b92915050565b6000606082019050612e2e6000830184612911565b92915050565b6000606082019050612e496000830184612953565b92915050565b600060a082019050612e646000830184612994565b92915050565b600060a082019050612e7f60008301846129fc565b92915050565b6000602082019050612e9a6000830184612ae5565b92915050565b6000612eaa612ebb565b9050612eb68282613256565b919050565b6000604051905090565b600081519050919050565b600081519050919050565b600081905092915050565b600082825260208201905092915050565b6000612f02826131e5565b9150612f0d836131e5565b9250827fffffffffffffffffffffffffffffffffffffffffffffffffffffffffffffffff03821115612f4257612f41613287565b5b828201905092915050565b6000612f58826131e5565b9150612f63836131e5565b925082612f7357612f726132b6565b5b828204905092915050565b6000808291508390505b6001851115612fc857808604811115612fa457612fa3613287565b5b6001851615612fb35780820291505b8081029050612fc185613332565b9450612f88565b94509492505050565b6000612fdc826131e5565b9150612fe7836131e5565b92506130147fffffffffffffffffffffffffffffffffffffffffffffffffffffffffffffffff848461301c565b905092915050565b60008261302c57600190506130e8565b8161303a57600090506130e8565b8160018114613050576002811461305a57613089565b60019150506130e8565b60ff84111561306c5761306b613287565b5b8360020a91508482111561308357613082613287565b5b506130e8565b5060208310610133831016604e8410600b84101617156130be5782820a9050838111156130b9576130b8613287565b5b6130e8565b6130cb8484846001612f7e565b925090508184048111156130e2576130e1613287565b5b81810290505b9392505050565b60006130fa826131e5565b9150613105836131e5565b9250817fffffffffffffffffffffffffffffffffffffffffffffffffffffffffffffffff048311821515161561313e5761313d613287565b5b828202905092915050565b6000613154826131e5565b915061315f836131e5565b92508282101561317257613171613287565b5b828203905092915050565b600073ffffffffffffffffffffffffffffffffffffffff82169050919050565b6000819050919050565b60006131b2826131c5565b9050919050565b60008115159050919050565b600073ffffffffffffffffffffffffffffffffffffffff82169050919050565b6000819050919050565b60005b8381101561320d5780820151818401526020810190506131f2565b8381111561321c576000848401525b50505050565b600061323561323083613325565b61317d565b9050919050565b600061324f61324a83613325565b61319d565b9050919050565b61325f82613314565b810181811067ffffffffffffffff8211171561327e5761327d6132e5565b5b80604052505050565b7f4e487b7100000000000000000000000000000000000000000000000000000000600052601160045260246000fd5b7f4e487b7100000000000000000000000000000000000000000000000000000000600052601260045260246000fd5b7f4e487b7100000000000000000000000000000000000000000000000000000000600052604160045260246000fd5b6000601f19601f8301169050919050565b60008160001c9050919050565b60008160011c9050919050565b7f4d61726b65743a20496e76616c696420626964207368617265732c206d75737460008201527f2073756d20746f20313030000000000000000000000000000000000000000000602082015250565b7f4d61726b65743a206269642063757272656e63792063616e6e6f74206265203060008201527f2061646472657373000000000000000000000000000000000000000000000000602082015250565b7f4d61726b65743a2042696420696e76616c696420666f7220736861726520737060008201527f6c697474696e6700000000000000000000000000000000000000000000000000602082015250565b7f4d61726b65743a206269646465722063616e6e6f74206265203020616464726560008201527f7373000000000000000000000000000000000000000000000000000000000000602082015250565b7f4d61726b65743a2041736b20696e76616c696420666f7220736861726520737060008201527f6c697474696e6700000000000000000000000000000000000000000000000000602082015250565b7f4d61726b65743a2063616e6e6f742072656d6f76652062696420616d6f756e7460008201527f206f662030000000000000000000000000000000000000000000000000000000602082015250565b7f416464726573733a20696e73756666696369656e742062616c616e636520666f60008201527f722063616c6c0000000000000000000000000000000000000000000000000000602082015250565b7f4d61726b65743a2063616e6e6f742062696420616d6f756e74206f6620300000600082015250565b7f4d61726b65743a2063616e6e6f742061636365707420626964206f6620300000600082015250565b7f4d61726b65743a20556e65787065637465642062696420666f756e642e000000600082015250565b7f4d61726b65743a2053656c6c206f6e2066656520696e76616c696420666f722060008201527f73686172652073706c697474696e670000000000000000000000000000000000602082015250565b7f4d61726b65743a20496e76616c6964206269642073686172657320666f72207460008201527f6f6b656e00000000000000000000000000000000000000000000000000000000602082015250565b7f416464726573733a2063616c6c20746f206e6f6e2d636f6e7472616374000000600082015250565b7f4d61726b65743a20416c726561647920636f6e66696775726564000000000000600082015250565b7f4d61726b65743a2062696420726563697069656e742063616e6e6f742062652060008201527f3020616464726573730000000000000000000000000000000000000000000000602082015250565b7f5361666545524332303a204552433230206f7065726174696f6e20646964206e60008201527f6f74207375636365656400000000000000000000000000000000000000000000602082015250565b7f4d61726b65743a2063616e6e6f7420736574206d6564696120636f6e7472616360008201527f74206173207a65726f2061646472657373000000000000000000000000000000602082015250565b6137c9816131a7565b81146137d457600080fd5b50565b6137e0816131b9565b81146137eb57600080fd5b50565b6137f7816131e5565b811461380257600080fd5b5056fea264697066735822122027dc34ccd8b7f6dced8e676fa72a6c5fbd1325cb22364fe2331317881d46987664736f6c63430008040033",
  "devdoc": {
    "kind": "dev",
    "methods": {},
    "title": "A Market for pieces of media",
    "version": 1
  },
  "userdoc": {
    "kind": "user",
    "methods": {
      "acceptBid(uint256,(uint256,address,address,address,(uint256)))": {
        "notice": "Accepts a bid from a particular bidder. Can only be called by the media contract. See {_finalizeNFTTransfer} Provided bid must match a bid in storage. This is to prevent a race condition where a bid may change while the acceptBid call is in transit. A bid cannot be accepted if it cannot be split equally into its shareholders. This should only revert in rare instances (example, a low bid with a zero-decimal token), but is necessary to ensure fairness to all shareholders."
      },
      "configure(address)": {
        "notice": "Sets the media contract address. This address is the only permitted address that can call the mutable functions. This method can only be called once."
      },
      "isValidBid(uint256,uint256)": {
        "notice": "Validates that the bid is valid by ensuring that the bid amount can be split perfectly into all the bid shares.  We do this by comparing the sum of the individual share values with the amount and ensuring they are equal. Because  the splitShare function uses integer division, any inconsistencies with the original and split sums would be due to  a bid splitting that does not perfectly divide the bid amount."
      },
      "isValidBidShares(((uint256),(uint256),(uint256)))": {
        "notice": "Validates that the provided bid shares sum to 100"
      },
      "removeAsk(uint256)": {
        "notice": "removes an ask for a token and emits an AskRemoved event"
      },
      "removeBid(uint256,address)": {
        "notice": "Removes the bid on a particular media for a bidder. The bid amount is transferred from this contract to the bidder, if they have a bid placed."
      },
      "setAsk(uint256,(uint256,address))": {
        "notice": "Sets the ask on a particular media. If the ask cannot be evenly split into the media's bid shares, this reverts."
      },
      "setBid(uint256,(uint256,address,address,address,(uint256)),address)": {
        "notice": "Sets the bid on a particular media for a bidder. The token being used to bid is transferred from the spender to this contract to be held until removed or accepted. If another bid already exists for the bidder, it is refunded."
      },
      "setBidShares(uint256,((uint256),(uint256),(uint256)))": {
        "notice": "Sets bid shares for a particular tokenId. These bid shares must sum to 100."
      },
      "splitShare((uint256),uint256)": {
        "notice": "return a % of the specified amount. This function is used to split a bid into shares for a media's shareholders."
      }
    },
    "notice": "This contract contains all of the market logic for Media",
    "version": 1
  },
  "storageLayout": {
    "storage": [
      {
        "astId": 3889,
        "contract": "contracts/nft/ZapMarket.sol:ZapMarket",
        "label": "mediaContract",
        "offset": 0,
        "slot": "0",
        "type": "t_mapping(t_address,t_address)"
      },
      {
        "astId": 3891,
        "contract": "contracts/nft/ZapMarket.sol:ZapMarket",
        "label": "_owner",
        "offset": 0,
        "slot": "1",
        "type": "t_address"
      },
      {
        "astId": 3898,
        "contract": "contracts/nft/ZapMarket.sol:ZapMarket",
        "label": "_tokenBidders",
        "offset": 0,
        "slot": "2",
        "type": "t_mapping(t_uint256,t_mapping(t_address,t_struct(Bid)5724_storage))"
      },
      {
        "astId": 3903,
        "contract": "contracts/nft/ZapMarket.sol:ZapMarket",
        "label": "_bidShares",
        "offset": 0,
        "slot": "3",
        "type": "t_mapping(t_uint256,t_struct(BidShares)5739_storage)"
      },
      {
        "astId": 3908,
        "contract": "contracts/nft/ZapMarket.sol:ZapMarket",
        "label": "_tokenAsks",
        "offset": 0,
        "slot": "4",
        "type": "t_mapping(t_uint256,t_struct(Ask)5729_storage)"
      },
      {
        "astId": 3912,
        "contract": "contracts/nft/ZapMarket.sol:ZapMarket",
        "label": "isConfigured",
        "offset": 0,
        "slot": "5",
        "type": "t_mapping(t_address,t_bool)"
      }
    ],
    "types": {
      "t_address": {
        "encoding": "inplace",
        "label": "address",
        "numberOfBytes": "20"
      },
      "t_bool": {
        "encoding": "inplace",
        "label": "bool",
        "numberOfBytes": "1"
      },
      "t_mapping(t_address,t_address)": {
        "encoding": "mapping",
        "key": "t_address",
        "label": "mapping(address => address)",
        "numberOfBytes": "32",
        "value": "t_address"
      },
      "t_mapping(t_address,t_bool)": {
        "encoding": "mapping",
        "key": "t_address",
        "label": "mapping(address => bool)",
        "numberOfBytes": "32",
        "value": "t_bool"
      },
      "t_mapping(t_address,t_struct(Bid)5724_storage)": {
        "encoding": "mapping",
        "key": "t_address",
        "label": "mapping(address => struct IMarket.Bid)",
        "numberOfBytes": "32",
        "value": "t_struct(Bid)5724_storage"
      },
      "t_mapping(t_uint256,t_mapping(t_address,t_struct(Bid)5724_storage))": {
        "encoding": "mapping",
        "key": "t_uint256",
        "label": "mapping(uint256 => mapping(address => struct IMarket.Bid))",
        "numberOfBytes": "32",
        "value": "t_mapping(t_address,t_struct(Bid)5724_storage)"
      },
      "t_mapping(t_uint256,t_struct(Ask)5729_storage)": {
        "encoding": "mapping",
        "key": "t_uint256",
        "label": "mapping(uint256 => struct IMarket.Ask)",
        "numberOfBytes": "32",
        "value": "t_struct(Ask)5729_storage"
      },
      "t_mapping(t_uint256,t_struct(BidShares)5739_storage)": {
        "encoding": "mapping",
        "key": "t_uint256",
        "label": "mapping(uint256 => struct IMarket.BidShares)",
        "numberOfBytes": "32",
        "value": "t_struct(BidShares)5739_storage"
      },
      "t_struct(Ask)5729_storage": {
        "encoding": "inplace",
        "label": "struct IMarket.Ask",
        "members": [
          {
            "astId": 5726,
            "contract": "contracts/nft/ZapMarket.sol:ZapMarket",
            "label": "amount",
            "offset": 0,
            "slot": "0",
            "type": "t_uint256"
          },
          {
            "astId": 5728,
            "contract": "contracts/nft/ZapMarket.sol:ZapMarket",
            "label": "currency",
            "offset": 0,
            "slot": "1",
            "type": "t_address"
          }
        ],
        "numberOfBytes": "64"
      },
      "t_struct(Bid)5724_storage": {
        "encoding": "inplace",
        "label": "struct IMarket.Bid",
        "members": [
          {
            "astId": 5714,
            "contract": "contracts/nft/ZapMarket.sol:ZapMarket",
            "label": "amount",
            "offset": 0,
            "slot": "0",
            "type": "t_uint256"
          },
          {
            "astId": 5716,
            "contract": "contracts/nft/ZapMarket.sol:ZapMarket",
            "label": "currency",
            "offset": 0,
            "slot": "1",
            "type": "t_address"
          },
          {
            "astId": 5718,
            "contract": "contracts/nft/ZapMarket.sol:ZapMarket",
            "label": "bidder",
            "offset": 0,
            "slot": "2",
            "type": "t_address"
          },
          {
            "astId": 5720,
            "contract": "contracts/nft/ZapMarket.sol:ZapMarket",
            "label": "recipient",
            "offset": 0,
            "slot": "3",
            "type": "t_address"
          },
          {
            "astId": 5723,
            "contract": "contracts/nft/ZapMarket.sol:ZapMarket",
            "label": "sellOnShare",
            "offset": 0,
            "slot": "4",
            "type": "t_struct(D256)2637_storage"
          }
        ],
        "numberOfBytes": "160"
      },
      "t_struct(BidShares)5739_storage": {
        "encoding": "inplace",
        "label": "struct IMarket.BidShares",
        "members": [
          {
            "astId": 5732,
            "contract": "contracts/nft/ZapMarket.sol:ZapMarket",
            "label": "prevOwner",
            "offset": 0,
            "slot": "0",
            "type": "t_struct(D256)2637_storage"
          },
          {
            "astId": 5735,
            "contract": "contracts/nft/ZapMarket.sol:ZapMarket",
            "label": "creator",
            "offset": 0,
            "slot": "1",
            "type": "t_struct(D256)2637_storage"
          },
          {
            "astId": 5738,
            "contract": "contracts/nft/ZapMarket.sol:ZapMarket",
            "label": "owner",
            "offset": 0,
            "slot": "2",
            "type": "t_struct(D256)2637_storage"
          }
        ],
        "numberOfBytes": "96"
      },
      "t_struct(D256)2637_storage": {
        "encoding": "inplace",
        "label": "struct Decimal.D256",
        "members": [
          {
            "astId": 2636,
            "contract": "contracts/nft/ZapMarket.sol:ZapMarket",
            "label": "value",
            "offset": 0,
            "slot": "0",
            "type": "t_uint256"
          }
        ],
        "numberOfBytes": "32"
      },
      "t_uint256": {
        "encoding": "inplace",
        "label": "uint256",
        "numberOfBytes": "32"
      }
    }
  }
}